{
  "contractName": "Election",
  "abi": [
    {
      "inputs": [],
      "payable": false,
      "stateMutability": "nonpayable",
      "type": "constructor"
    },
    {
      "constant": true,
      "inputs": [],
      "name": "candidateCount",
      "outputs": [
        {
          "internalType": "uint256",
          "name": "",
          "type": "uint256"
        }
      ],
      "payable": false,
      "stateMutability": "view",
      "type": "function"
    },
    {
      "constant": true,
      "inputs": [
        {
          "internalType": "uint256",
          "name": "",
          "type": "uint256"
        }
      ],
      "name": "candidates",
      "outputs": [
        {
          "internalType": "uint256",
          "name": "id",
          "type": "uint256"
        },
        {
          "internalType": "string",
          "name": "politicalPartyName",
          "type": "string"
        },
        {
          "internalType": "string",
          "name": "politicalPartyDescription",
          "type": "string"
        },
        {
          "internalType": "string",
          "name": "leaders",
          "type": "string"
        },
        {
          "internalType": "uint256",
          "name": "voteCount",
          "type": "uint256"
        }
      ],
      "payable": false,
      "stateMutability": "view",
      "type": "function"
    },
    {
      "constant": true,
      "inputs": [],
      "name": "endTimestamp",
      "outputs": [
        {
          "internalType": "uint256",
          "name": "",
          "type": "uint256"
        }
      ],
      "payable": false,
      "stateMutability": "view",
      "type": "function"
    },
    {
      "constant": true,
      "inputs": [
        {
          "internalType": "uint256",
          "name": "",
          "type": "uint256"
        }
      ],
      "name": "executor_names",
      "outputs": [
        {
          "internalType": "string",
          "name": "",
          "type": "string"
        }
      ],
      "payable": false,
      "stateMutability": "view",
      "type": "function"
    },
    {
      "constant": true,
      "inputs": [
        {
          "internalType": "string",
          "name": "",
          "type": "string"
        }
      ],
      "name": "executors",
      "outputs": [
        {
          "internalType": "string",
          "name": "username",
          "type": "string"
        },
        {
          "internalType": "string",
          "name": "password",
          "type": "string"
        },
        {
          "internalType": "uint256",
          "name": "role",
          "type": "uint256"
        }
      ],
      "payable": false,
      "stateMutability": "view",
      "type": "function"
    },
    {
      "constant": true,
      "inputs": [],
      "name": "no_error",
      "outputs": [
        {
          "internalType": "string",
          "name": "",
          "type": "string"
        }
      ],
      "payable": false,
      "stateMutability": "view",
      "type": "function"
    },
    {
      "constant": true,
      "inputs": [],
      "name": "startTimestamp",
      "outputs": [
        {
          "internalType": "uint256",
          "name": "",
          "type": "uint256"
        }
      ],
      "payable": false,
      "stateMutability": "view",
      "type": "function"
    },
    {
      "constant": true,
      "inputs": [
        {
          "internalType": "address",
          "name": "",
          "type": "address"
        }
      ],
      "name": "voter_addresses",
      "outputs": [
        {
          "internalType": "bool",
          "name": "",
          "type": "bool"
        }
      ],
      "payable": false,
      "stateMutability": "view",
      "type": "function"
    },
    {
      "constant": true,
      "inputs": [
        {
          "internalType": "string",
          "name": "",
          "type": "string"
        }
      ],
      "name": "voter_ids",
      "outputs": [
        {
          "internalType": "bool",
          "name": "",
          "type": "bool"
        }
      ],
      "payable": false,
      "stateMutability": "view",
      "type": "function"
    },
    {
      "constant": false,
      "inputs": [
        {
          "internalType": "string",
          "name": "_partyName",
          "type": "string"
        },
        {
          "internalType": "string",
          "name": "_partyDescription",
          "type": "string"
        },
        {
          "internalType": "string",
          "name": "_leads",
          "type": "string"
        },
        {
          "internalType": "uint256",
          "name": "_curr_timestamp",
          "type": "uint256"
        }
      ],
      "name": "addCandidate",
      "outputs": [],
      "payable": false,
      "stateMutability": "nonpayable",
      "type": "function"
    },
    {
      "constant": false,
      "inputs": [
        {
          "internalType": "uint256",
          "name": "_id",
          "type": "uint256"
        },
        {
          "internalType": "string",
          "name": "_type",
          "type": "string"
        },
        {
          "internalType": "string",
          "name": "_data",
          "type": "string"
        },
        {
          "internalType": "uint256",
          "name": "_curr_timestamp",
          "type": "uint256"
        }
      ],
      "name": "editCandidate",
      "outputs": [],
      "payable": false,
      "stateMutability": "nonpayable",
      "type": "function"
    },
    {
      "constant": false,
      "inputs": [
        {
          "internalType": "uint256",
          "name": "_id",
          "type": "uint256"
        },
        {
          "internalType": "uint256",
          "name": "_curr_timestamp",
          "type": "uint256"
        }
      ],
      "name": "deleteCandidate",
      "outputs": [],
      "payable": false,
      "stateMutability": "nonpayable",
      "type": "function"
    },
    {
      "constant": true,
      "inputs": [
        {
          "internalType": "uint256",
          "name": "_id",
          "type": "uint256"
        }
      ],
      "name": "validate_candidate_id",
      "outputs": [
        {
          "internalType": "bool",
          "name": "",
          "type": "bool"
        }
      ],
      "payable": false,
      "stateMutability": "view",
      "type": "function"
    },
    {
      "constant": false,
      "inputs": [
        {
          "internalType": "string",
          "name": "_username",
          "type": "string"
        },
        {
          "internalType": "string",
          "name": "_password",
          "type": "string"
        },
        {
          "internalType": "uint256",
          "name": "_role",
          "type": "uint256"
        }
      ],
      "name": "addExecutor",
      "outputs": [],
      "payable": false,
      "stateMutability": "nonpayable",
      "type": "function"
    },
    {
      "constant": false,
      "inputs": [
        {
          "internalType": "string",
          "name": "_name",
          "type": "string"
        },
        {
          "internalType": "uint256",
          "name": "_role",
          "type": "uint256"
        }
      ],
      "name": "editExecutorRole",
      "outputs": [],
      "payable": false,
      "stateMutability": "nonpayable",
      "type": "function"
    },
    {
      "constant": false,
      "inputs": [
        {
          "internalType": "string",
          "name": "_name",
          "type": "string"
        }
      ],
      "name": "deleteExecutor",
      "outputs": [],
      "payable": false,
      "stateMutability": "nonpayable",
      "type": "function"
    },
    {
      "constant": true,
      "inputs": [
        {
          "internalType": "uint256",
          "name": "_type",
          "type": "uint256"
        },
        {
          "internalType": "string",
          "name": "_username",
          "type": "string"
        },
        {
          "internalType": "uint256",
          "name": "_role",
          "type": "uint256"
        }
      ],
      "name": "validate_executor_data",
      "outputs": [
        {
          "internalType": "string",
          "name": "",
          "type": "string"
        }
      ],
      "payable": false,
      "stateMutability": "view",
      "type": "function"
    },
    {
      "constant": true,
      "inputs": [],
      "name": "executorArrayLength",
      "outputs": [
        {
          "internalType": "uint256",
          "name": "count",
          "type": "uint256"
        }
      ],
      "payable": false,
      "stateMutability": "view",
      "type": "function"
    },
    {
      "constant": false,
      "inputs": [
        {
          "internalType": "string",
          "name": "_voterId",
          "type": "string"
        },
        {
          "internalType": "uint256",
          "name": "_candidateID",
          "type": "uint256"
        },
        {
          "internalType": "uint256",
          "name": "_currentTimestamp",
          "type": "uint256"
        }
      ],
      "name": "vote",
      "outputs": [],
      "payable": false,
      "stateMutability": "nonpayable",
      "type": "function"
    },
    {
      "constant": true,
      "inputs": [
        {
          "internalType": "string",
          "name": "_voterId",
          "type": "string"
        }
      ],
      "name": "validate_system_and_id",
      "outputs": [
        {
          "internalType": "uint256",
          "name": "",
          "type": "uint256"
        }
      ],
      "payable": false,
      "stateMutability": "view",
      "type": "function"
    },
    {
      "constant": true,
      "inputs": [
        {
          "internalType": "uint256",
          "name": "_curr_timestamp",
          "type": "uint256"
        }
      ],
      "name": "voting_status",
      "outputs": [
        {
          "internalType": "int256",
          "name": "",
          "type": "int256"
        }
      ],
      "payable": false,
      "stateMutability": "view",
      "type": "function"
    },
    {
      "constant": false,
      "inputs": [
        {
          "internalType": "uint256",
          "name": "_start_timestamp",
          "type": "uint256"
        },
        {
          "internalType": "uint256",
          "name": "_end_timestamp",
          "type": "uint256"
        },
        {
          "internalType": "uint256",
          "name": "_curr_timestamp",
          "type": "uint256"
        }
      ],
      "name": "changeElectionTiming",
      "outputs": [],
      "payable": false,
      "stateMutability": "nonpayable",
      "type": "function"
    },
    {
      "constant": true,
      "inputs": [
        {
          "internalType": "uint256",
          "name": "_start_timestamp",
          "type": "uint256"
        },
        {
          "internalType": "uint256",
          "name": "_end_timestamp",
          "type": "uint256"
        },
        {
          "internalType": "uint256",
          "name": "_curr_timestamp",
          "type": "uint256"
        }
      ],
      "name": "validate_timestamp",
      "outputs": [
        {
          "internalType": "string",
          "name": "",
          "type": "string"
        }
      ],
      "payable": false,
      "stateMutability": "view",
      "type": "function"
    },
    {
      "constant": true,
      "inputs": [
        {
          "internalType": "string",
          "name": "_username",
          "type": "string"
        },
        {
          "internalType": "string",
          "name": "_password",
          "type": "string"
        },
        {
          "internalType": "uint256",
          "name": "_type",
          "type": "uint256"
        }
      ],
      "name": "verifyPassword",
      "outputs": [
        {
          "internalType": "string",
          "name": "",
          "type": "string"
        }
      ],
      "payable": false,
      "stateMutability": "view",
      "type": "function"
    },
    {
      "constant": false,
      "inputs": [
        {
          "internalType": "string",
          "name": "_name",
          "type": "string"
        },
        {
          "internalType": "string",
          "name": "_new_password",
          "type": "string"
        },
        {
          "internalType": "uint256",
          "name": "_type",
          "type": "uint256"
        }
      ],
      "name": "changePassword",
      "outputs": [],
      "payable": false,
      "stateMutability": "nonpayable",
      "type": "function"
    },
    {
      "constant": true,
      "inputs": [
        {
          "internalType": "string",
          "name": "_username",
          "type": "string"
        }
      ],
      "name": "get_user_type",
      "outputs": [
        {
          "internalType": "int256",
          "name": "",
          "type": "int256"
        }
      ],
      "payable": false,
      "stateMutability": "view",
      "type": "function"
    },
    {
      "constant": true,
      "inputs": [],
      "name": "get_total_votes",
      "outputs": [
        {
          "internalType": "uint256",
          "name": "count",
          "type": "uint256"
        }
      ],
      "payable": false,
      "stateMutability": "view",
      "type": "function"
    },
    {
      "constant": true,
      "inputs": [],
      "name": "timestamp",
      "outputs": [
        {
          "internalType": "uint256",
          "name": "",
          "type": "uint256"
        }
      ],
      "payable": false,
      "stateMutability": "view",
      "type": "function"
    },
    {
      "constant": true,
      "inputs": [
        {
          "internalType": "uint256",
          "name": "_curr_timestamp",
          "type": "uint256"
        }
      ],
      "name": "validate_action",
      "outputs": [
        {
          "internalType": "bool",
          "name": "",
          "type": "bool"
        }
      ],
      "payable": false,
      "stateMutability": "view",
      "type": "function"
    }
  ],
  "bytecode": "0x60806040523480156200001157600080fd5b506040518060400160405280600581526020017f41646d696e000000000000000000000000000000000000000000000000000000815250600290805190602001906200005f92919062000637565b506040518060400160405280600a81526020017f313233343536373839300000000000000000000000000000000000000000000081525060039080519060200190620000ad92919062000637565b5065017ebdd8a94060078190555065017ebf901d40600881905550620001606040518060400160405280600381526020017f41415000000000000000000000000000000000000000000000000000000000008152506040518060600160405280602c815260200162004465602c91396040518060400160405280601781526020017f417276696e64204b656a726977616c0a4c6561646572310000000000000000008152506000620004ca60201b60201c565b620002146040518060400160405280600381526020017f424a5000000000000000000000000000000000000000000000000000000000008152506040518060400160405280601881526020017f4163636868652064696e2061616e652077616c652068616900000000000000008152506040518060400160405280601981526020017f504d204e6172656e647261204d6f64690a416d697420536861000000000000008152506000620004ca60201b60201c565b620002906040518060400160405280600881526020017f436f6e67726573730000000000000000000000000000000000000000000000008152506040518060600160405280602981526020016200449160299139604051806060016040528060298152602001620044ba602991396000620004ca60201b60201c565b600b8060018154018082558091505090600182039060005260206000200160006040518060400160405280601781526020017f557365726e616d6520616c726561647920657869737473000000000000000000815250909190915090805190602001906200030092919062000637565b5050600b8060018154018082558091505090600182039060005260206000200160006040518060600160405280602781526020016200441460279139909190915090805190602001906200035692919062000637565b5050600b8060018154018082558091505090600182039060005260206000200160006040518060400160405280601881526020017f557365726e616d6520646f6573206e6f7420657869737473000000000000000081525090919091509080519060200190620003c892919062000637565b5050600c806001815401808255809150509060018203906000526020600020016000604051806060016040528060278152602001620043ed60279139909190915090805190602001906200041e92919062000637565b5050600c8060018154018082558091505090600182039060005260206000200160006040518060600160405280602a81526020016200443b602a9139909190915090805190602001906200047492919062000637565b50506040518060400160405280600281526020017f4e41000000000000000000000000000000000000000000000000000000000000815250600d9080519060200190620004c392919062000637565b506200076d565b60008114620004ff576000620004e682620005e360201b60201c565b9050600015158115151415620004fd5750620005dd565b505b60016000815480929190600101919050555060006002600154816200052057fe5b066001546064020190506040518060a0016040528060015481526020018681526020018581526020018481526020018281525060008060015481526020019081526020016000206000820151816000015560208201518160010190805190602001906200058f929190620006be565b506040820151816002019080519060200190620005ae929190620006be565b506060820151816003019080519060200190620005cd929190620006be565b5060808201518160040155905050505b50505050565b6000806007541480620005f857506000600854145b1562000608576001905062000632565b60075482101580156200061d57506008548211155b156200062d576000905062000632565b600190505b919050565b828054600181600116156101000203166002900490600052602060002090601f016020900481019282601f106200067a57805160ff1916838001178555620006ab565b82800160010185558215620006ab579182015b82811115620006aa5782518255916020019190600101906200068d565b5b509050620006ba919062000745565b5090565b828054600181600116156101000203166002900490600052602060002090601f016020900481019282601f106200070157805160ff191683800117855562000732565b8280016001018555821562000732579182015b828111156200073157825182559160200191906001019062000714565b5b50905062000741919062000745565b5090565b6200076a91905b80821115620007665760008160009055506001016200074c565b5090565b90565b613c70806200077d6000396000f3fe608060405234801561001057600080fd5b50600436106101cf5760003560e01c8063918733b811610104578063bf409449116100a2578063d6aadfba11610071578063d6aadfba146113ac578063d8755e6c1461159f578063dd4d2b5c1461165a578063e6fd48bc14611715576101cf565b8063bf40944914611241578063c19c8bf114611314578063cf4a606014611332578063d5a33bad1461136a576101cf565b8063b4c62ef5116100de578063b4c62ef514610f71578063b7211fcf14611118578063b80777ea146111dd578063bccb1f3e146111fb576101cf565b8063918733b814610dcf578063a85adeab14610f35578063a9a981a314610f53576101cf565b806347ddc1dc11610171578063647c32471161014b578063647c324714610b2a5780636ab4c4c714610bf957806375cf93a814610d555780637e29d89914610db1576101cf565b806347ddc1dc146108035780635b2a32c7146108d25780635cf27eb614610955576101cf565b80631c19b9b6116101ad5780631c19b9b61461043157806332360f3a146104d85780633477ee2e1461051a57806342a85b29146106a7576101cf565b80630891d358146101d45780631041a5c3146102a35780631ab9e698146103eb575b600080fd5b6102a1600480360360608110156101ea57600080fd5b810190808035906020019064010000000081111561020757600080fd5b82018360208201111561021957600080fd5b8035906020019184600183028401116401000000008311171561023b57600080fd5b91908080601f016020809104026020016040519081016040528093929190818152602001838380828437600081840152601f19601f8201169050808301925050505050505091929192908035906020019092919080359060200190929190505050611733565b005b610370600480360360608110156102b957600080fd5b8101908080359060200190929190803590602001906401000000008111156102e057600080fd5b8201836020820111156102f257600080fd5b8035906020019184600183028401116401000000008311171561031457600080fd5b91908080601f016020809104026020016040519081016040528093929190818152602001838380828437600081840152601f19601f82011690508083019250505050505050919291929080359060200190929190505050611968565b6040518080602001828103825283818151815260200191508051906020019080838360005b838110156103b0578082015181840152602081019050610395565b50505050905090810190601f1680156103dd5780820380516001836020036101000a031916815260200191505b509250505060405180910390f35b6104176004803603602081101561040157600080fd5b8101908080359060200190929190505050611e1d565b604051808215151515815260200191505060405180910390f35b61045d6004803603602081101561044757600080fd5b8101908080359060200190929190505050611e4f565b6040518080602001828103825283818151815260200191508051906020019080838360005b8381101561049d578082015181840152602081019050610482565b50505050905090810190601f1680156104ca5780820380516001836020036101000a031916815260200191505b509250505060405180910390f35b610504600480360360208110156104ee57600080fd5b8101908080359060200190929190505050611f08565b6040518082815260200191505060405180910390f35b6105466004803603602081101561053057600080fd5b8101908080359060200190929190505050611f5a565b60405180868152602001806020018060200180602001858152602001848103845288818151815260200191508051906020019080838360005b8381101561059a57808201518184015260208101905061057f565b50505050905090810190601f1680156105c75780820380516001836020036101000a031916815260200191505b50848103835287818151815260200191508051906020019080838360005b838110156106005780820151818401526020810190506105e5565b50505050905090810190601f16801561062d5780820380516001836020036101000a031916815260200191505b50848103825286818151815260200191508051906020019080838360005b8381101561066657808201518184015260208101905061064b565b50505050905090810190601f1680156106935780820380516001836020036101000a031916815260200191505b509850505050505050505060405180910390f35b610801600480360360608110156106bd57600080fd5b81019080803590602001906401000000008111156106da57600080fd5b8201836020820111156106ec57600080fd5b8035906020019184600183028401116401000000008311171561070e57600080fd5b91908080601f016020809104026020016040519081016040528093929190818152602001838380828437600081840152601f19601f8201169050808301925050505050505091929192908035906020019064010000000081111561077157600080fd5b82018360208201111561078357600080fd5b803590602001918460018302840111640100000000831117156107a557600080fd5b91908080601f016020809104026020016040519081016040528093929190818152602001838380828437600081840152601f19601f82011690508083019250505050505050919291929080359060200190929190505050612158565b005b6108bc6004803603602081101561081957600080fd5b810190808035906020019064010000000081111561083657600080fd5b82018360208201111561084857600080fd5b8035906020019184600183028401116401000000008311171561086a57600080fd5b91908080601f016020809104026020016040519081016040528093929190818152602001838380828437600081840152601f19601f820116905080830192505050505050509192919290505050612284565b6040518082815260200191505060405180910390f35b6108da61241b565b6040518080602001828103825283818151815260200191508051906020019080838360005b8381101561091a5780820151818401526020810190506108ff565b50505050905090810190601f1680156109475780820380516001836020036101000a031916815260200191505b509250505060405180910390f35b610aaf6004803603606081101561096b57600080fd5b810190808035906020019064010000000081111561098857600080fd5b82018360208201111561099a57600080fd5b803590602001918460018302840111640100000000831117156109bc57600080fd5b91908080601f016020809104026020016040519081016040528093929190818152602001838380828437600081840152601f19601f82011690508083019250505050505050919291929080359060200190640100000000811115610a1f57600080fd5b820183602082011115610a3157600080fd5b80359060200191846001830284011164010000000083111715610a5357600080fd5b91908080601f016020809104026020016040519081016040528093929190818152602001838380828437600081840152601f19601f820116905080830192505050505050509192919290803590602001909291905050506124b9565b6040518080602001828103825283818151815260200191508051906020019080838360005b83811015610aef578082015181840152602081019050610ad4565b50505050905090810190601f168015610b1c5780820380516001836020036101000a031916815260200191505b509250505060405180910390f35b610be360048036036020811015610b4057600080fd5b8101908080359060200190640100000000811115610b5d57600080fd5b820183602082011115610b6f57600080fd5b80359060200191846001830284011164010000000083111715610b9157600080fd5b91908080601f016020809104026020016040519081016040528093929190818152602001838380828437600081840152601f19601f820116905080830192505050505050509192919290505050612b28565b6040518082815260200191505060405180910390f35b610d5360048036036060811015610c0f57600080fd5b8101908080359060200190640100000000811115610c2c57600080fd5b820183602082011115610c3e57600080fd5b80359060200191846001830284011164010000000083111715610c6057600080fd5b91908080601f016020809104026020016040519081016040528093929190818152602001838380828437600081840152601f19601f82011690508083019250505050505050919291929080359060200190640100000000811115610cc357600080fd5b820183602082011115610cd557600080fd5b80359060200191846001830284011164010000000083111715610cf757600080fd5b91908080601f016020809104026020016040519081016040528093929190818152602001838380828437600081840152601f19601f82011690508083019250505050505050919291929080359060200190929190505050612c22565b005b610d9760048036036020811015610d6b57600080fd5b81019080803573ffffffffffffffffffffffffffffffffffffffff169060200190929190505050612dc6565b604051808215151515815260200191505060405180910390f35b610db9612de6565b6040518082815260200191505060405180910390f35b610f3360048036036080811015610de557600080fd5b810190808035906020019092919080359060200190640100000000811115610e0c57600080fd5b820183602082011115610e1e57600080fd5b80359060200191846001830284011164010000000083111715610e4057600080fd5b91908080601f016020809104026020016040519081016040528093929190818152602001838380828437600081840152601f19601f82011690508083019250505050505050919291929080359060200190640100000000811115610ea357600080fd5b820183602082011115610eb557600080fd5b80359060200191846001830284011164010000000083111715610ed757600080fd5b91908080601f016020809104026020016040519081016040528093929190818152602001838380828437600081840152601f19601f82011690508083019250505050505050919291929080359060200190929190505050612df0565b005b610f3d612fa8565b6040518082815260200191505060405180910390f35b610f5b612fae565b6040518082815260200191505060405180910390f35b61102a60048036036020811015610f8757600080fd5b8101908080359060200190640100000000811115610fa457600080fd5b820183602082011115610fb657600080fd5b80359060200191846001830284011164010000000083111715610fd857600080fd5b91908080601f016020809104026020016040519081016040528093929190818152602001838380828437600081840152601f19601f820116905080830192505050505050509192919290505050612fb4565b604051808060200180602001848152602001838103835286818151815260200191508051906020019080838360005b83811015611074578082015181840152602081019050611059565b50505050905090810190601f1680156110a15780820380516001836020036101000a031916815260200191505b50838103825285818151815260200191508051906020019080838360005b838110156110da5780820151818401526020810190506110bf565b50505050905090810190601f1680156111075780820380516001836020036101000a031916815260200191505b509550505050505060405180910390f35b6111db6004803603604081101561112e57600080fd5b810190808035906020019064010000000081111561114b57600080fd5b82018360208201111561115d57600080fd5b8035906020019184600183028401116401000000008311171561117f57600080fd5b91908080601f016020809104026020016040519081016040528093929190818152602001838380828437600081840152601f19601f82011690508083019250505050505050919291929080359060200190929190505050613124565b005b6111e561322f565b6040518082815260200191505060405180910390f35b6112276004803603602081101561121157600080fd5b8101908080359060200190929190505050613237565b604051808215151515815260200191505060405180910390f35b6112fa6004803603602081101561125757600080fd5b810190808035906020019064010000000081111561127457600080fd5b82018360208201111561128657600080fd5b803590602001918460018302840111640100000000831117156112a857600080fd5b91908080601f016020809104026020016040519081016040528093929190818152602001838380828437600081840152601f19601f820116905080830192505050505050509192919290505050613285565b604051808215151515815260200191505060405180910390f35b61131c6132bb565b6040518082815260200191505060405180910390f35b6113686004803603604081101561134857600080fd5b8101908080359060200190929190803590602001909291905050506132c8565b005b6113aa6004803603606081101561138057600080fd5b81019080803590602001909291908035906020019092919080359060200190929190505050613356565b005b61159d600480360360808110156113c257600080fd5b81019080803590602001906401000000008111156113df57600080fd5b8201836020820111156113f157600080fd5b8035906020019184600183028401116401000000008311171561141357600080fd5b91908080601f016020809104026020016040519081016040528093929190818152602001838380828437600081840152601f19601f8201169050808301925050505050505091929192908035906020019064010000000081111561147657600080fd5b82018360208201111561148857600080fd5b803590602001918460018302840111640100000000831117156114aa57600080fd5b91908080601f016020809104026020016040519081016040528093929190818152602001838380828437600081840152601f19601f8201169050808301925050505050505091929192908035906020019064010000000081111561150d57600080fd5b82018360208201111561151f57600080fd5b8035906020019184600183028401116401000000008311171561154157600080fd5b91908080601f016020809104026020016040519081016040528093929190818152602001838380828437600081840152601f19601f82011690508083019250505050505050919291929080359060200190929190505050613393565b005b611658600480360360208110156115b557600080fd5b81019080803590602001906401000000008111156115d257600080fd5b8201836020820111156115e457600080fd5b8035906020019184600183028401116401000000008311171561160657600080fd5b91908080601f016020809104026020016040519081016040528093929190818152602001838380828437600081840152601f19601f82011690508083019250505050505050919291929050505061349a565b005b61169a6004803603606081101561167057600080fd5b8101908080359060200190929190803590602001909291908035906020019092919050505061364b565b6040518080602001828103825283818151815260200191508051906020019080838360005b838110156116da5780820151818401526020810190506116bf565b50505050905090810190601f1680156117075780820380516001836020036101000a031916815260200191505b509250505060405180910390f35b61171d6138b9565b6040518082815260200191505060405180910390f35b6000600754148061174657506000600854145b1561175057611963565b600754811080611761575060085481115b1561176b57611963565b600115156004846040518082805190602001908083835b602083106117a55780518252602082019150602081019050602083039250611782565b6001836020036101000a038019825116818451168082178552505050505050905001915050908152602001604051809103902060009054906101000a900460ff16151514156117f357611963565b60011515600560003373ffffffffffffffffffffffffffffffffffffffff1673ffffffffffffffffffffffffffffffffffffffff16815260200190815260200160002060009054906101000a900460ff161515141561185157611963565b60016004846040518082805190602001908083835b602083106118895780518252602082019150602081019050602083039250611866565b6001836020036101000a038019825116818451168082178552505050505050905001915050908152602001604051809103902060006101000a81548160ff0219169083151502179055506001600560003373ffffffffffffffffffffffffffffffffffffffff1673ffffffffffffffffffffffffffffffffffffffff16815260200190815260200160002060006101000a81548160ff021916908315150217905550600660008154809291906001019190505550600080838152602001908152602001600020600401600081548092919060010191905055505b505050565b60606001841415611b725760006009846040518082805190602001908083835b602083106119ab5780518252602082019150602081019050602083039250611988565b6001836020036101000a03801982511681845116808217855250505050505090500191505090815260200160405180910390206002015414611a9f57600b6000815481106119f557fe5b906000526020600020018054600181600116156101000203166002900480601f016020809104026020016040519081016040528092919081815260200182805460018160011615610100020316600290048015611a935780601f10611a6857610100808354040283529160200191611a93565b820191906000526020600020905b815481529060010190602001808311611a7657829003601f168201915b50505050509050611e16565b600082111580611ab0575060038210155b15611b6d57600b600181548110611ac357fe5b906000526020600020018054600181600116156101000203166002900480601f016020809104026020016040519081016040528092919081815260200182805460018160011615610100020316600290048015611b615780601f10611b3657610100808354040283529160200191611b61565b820191906000526020600020905b815481529060010190602001808311611b4457829003601f168201915b50505050509050611e16565b611d78565b6002841415611d775760006009846040518082805190602001908083835b60208310611bb35780518252602082019150602081019050602083039250611b90565b6001836020036101000a0380198251168184511680821785525050505050509050019150509081526020016040518091039020600201541415611ca857600b600281548110611bfe57fe5b906000526020600020018054600181600116156101000203166002900480601f016020809104026020016040519081016040528092919081815260200182805460018160011615610100020316600290048015611c9c5780601f10611c7157610100808354040283529160200191611c9c565b820191906000526020600020905b815481529060010190602001808311611c7f57829003601f168201915b50505050509050611e16565b600082111580611cb9575060038210155b15611d7657600b600181548110611ccc57fe5b906000526020600020018054600181600116156101000203166002900480601f016020809104026020016040519081016040528092919081815260200182805460018160011615610100020316600290048015611d6a5780601f10611d3f57610100808354040283529160200191611d6a565b820191906000526020600020905b815481529060010190602001808311611d4d57829003601f168201915b50505050509050611e16565b5b5b600d8054600181600116156101000203166002900480601f016020809104026020016040519081016040528092919081815260200182805460018160011615610100020316600290048015611e0e5780601f10611de357610100808354040283529160200191611e0e565b820191906000526020600020905b815481529060010190602001808311611df157829003601f168201915b505050505090505b9392505050565b600080600080848152602001908152602001600020600001541415611e455760009050611e4a565b600190505b919050565b600a8181548110611e5c57fe5b906000526020600020016000915090508054600181600116156101000203166002900480601f016020809104026020016040519081016040528092919081815260200182805460018160011615610100020316600290048015611f005780601f10611ed557610100808354040283529160200191611f00565b820191906000526020600020905b815481529060010190602001808311611ee357829003601f168201915b505050505081565b6000806007541480611f1c57506000600854145b15611f2a5760009050611f55565b600854821115611f3d5760039050611f55565b600754821015611f505760029050611f55565b600190505b919050565b6000602052806000526040600020600091509050806000015490806001018054600181600116156101000203166002900480601f01602080910402602001604051908101604052809291908181526020018280546001816001161561010002031660029004801561200c5780601f10611fe15761010080835404028352916020019161200c565b820191906000526020600020905b815481529060010190602001808311611fef57829003601f168201915b505050505090806002018054600181600116156101000203166002900480601f0160208091040260200160405190810160405280929190818152602001828054600181600116156101000203166002900480156120aa5780601f1061207f576101008083540402835291602001916120aa565b820191906000526020600020905b81548152906001019060200180831161208d57829003601f168201915b505050505090806003018054600181600116156101000203166002900480601f0160208091040260200160405190810160405280929190818152602001828054600181600116156101000203166002900480156121485780601f1061211d57610100808354040283529160200191612148565b820191906000526020600020905b81548152906001019060200180831161212b57829003601f168201915b5050505050908060040154905085565b6001811415612179578160039080519060200190612177929190613989565b505b600281141561227e5760006009846040518082805190602001908083835b602083106121ba5780518252602082019150602081019050602083039250612197565b6001836020036101000a03801982511681845116808217855250505050505090500191505090815260200160405180910390206002015414156121fc5761227f565b816009846040518082805190602001908083835b602083106122335780518252602082019150602081019050602083039250612210565b6001836020036101000a0380198251168184511680821785525050505050509050019150509081526020016040518091039020600101908051906020019061227c929190613989565b505b5b505050565b6000600260405180828054600181600116156101000203166002900480156122e35780601f106122c15761010080835404028352918201916122e3565b820191906000526020600020905b8154815290600101906020018083116122cf575b50509150506040518091039020828051906020012014156123075760019050612416565b60006009836040518082805190602001908083835b6020831061233f578051825260208201915060208101905060208303925061231c565b6001836020036101000a038019825116818451168082178552505050505050905001915050908152602001604051809103902060020154146123f25760016009836040518082805190602001908083835b602083106123b35780518252602082019150602081019050602083039250612390565b6001836020036101000a038019825116818451168082178552505050505050905001915050908152602001604051809103902060020154019050612416565b7fffffffffffffffffffffffffffffffffffffffffffffffffffffffffffffffff90505b919050565b600d8054600181600116156101000203166002900480601f0160208091040260200160405190810160405280929190818152602001828054600181600116156101000203166002900480156124b15780601f10612486576101008083540402835291602001916124b1565b820191906000526020600020905b81548152906001019060200180831161249457829003601f168201915b505050505081565b6060600182141561271157600260405180828054600181600116156101000203166002900480156125215780601f106124ff576101008083540402835291820191612521565b820191906000526020600020905b81548152906001019060200180831161250d575b5050915050604051809103902084805190602001201480156125b257506003604051808280546001816001161561010002031660029004801561259b5780601f1061257957610100808354040283529182019161259b565b820191906000526020600020905b815481529060010190602001808311612587575b505091505060405180910390208380519060200120145b1561265957600d8054600181600116156101000203166002900480601f01602080910402602001604051908101604052809291908181526020018280546001816001161561010002031660029004801561264d5780601f106126225761010080835404028352916020019161264d565b820191906000526020600020905b81548152906001019060200180831161263057829003601f168201915b50505050509050612b21565b600c60008154811061266757fe5b906000526020600020018054600181600116156101000203166002900480601f0160208091040260200160405190810160405280929190818152602001828054600181600116156101000203166002900480156127055780601f106126da57610100808354040283529160200191612705565b820191906000526020600020905b8154815290600101906020018083116126e857829003601f168201915b50505050509050612b21565b6002821415612a835760006009856040518082805190602001908083835b60208310612752578051825260208201915060208101905060208303925061272f565b6001836020036101000a038019825116818451168082178552505050505050905001915050908152602001604051809103902060020154141561284757600b60028154811061279d57fe5b906000526020600020018054600181600116156101000203166002900480601f01602080910402602001604051908101604052809291908181526020018280546001816001161561010002031660029004801561283b5780601f106128105761010080835404028352916020019161283b565b820191906000526020600020905b81548152906001019060200180831161281e57829003601f168201915b50505050509050612b21565b6009846040518082805190602001908083835b6020831061287d578051825260208201915060208101905060208303925061285a565b6001836020036101000a0380198251168184511680821785525050505050509050019150509081526020016040518091039020600101604051808280546001816001161561010002031660029004801561290e5780601f106128ec57610100808354040283529182019161290e565b820191906000526020600020905b8154815290600101906020018083116128fa575b50509150506040518091039020838051906020012014156129cb57600d8054600181600116156101000203166002900480601f0160208091040260200160405190810160405280929190818152602001828054600181600116156101000203166002900480156129bf5780601f10612994576101008083540402835291602001916129bf565b820191906000526020600020905b8154815290600101906020018083116129a257829003601f168201915b50505050509050612b21565b600c6001815481106129d957fe5b906000526020600020018054600181600116156101000203166002900480601f016020809104026020016040519081016040528092919081815260200182805460018160011615610100020316600290048015612a775780601f10612a4c57610100808354040283529160200191612a77565b820191906000526020600020905b815481529060010190602001808311612a5a57829003601f168201915b50505050509050612b21565b600d8054600181600116156101000203166002900480601f016020809104026020016040519081016040528092919081815260200182805460018160011615610100020316600290048015612b195780601f10612aee57610100808354040283529160200191612b19565b820191906000526020600020905b815481529060010190602001808311612afc57829003601f168201915b505050505090505b9392505050565b6000600115156004836040518082805190602001908083835b60208310612b645780518252602082019150602081019050602083039250612b41565b6001836020036101000a038019825116818451168082178552505050505050905001915050908152602001604051809103902060009054906101000a900460ff1615151415612bb65760019050612c1d565b60011515600560003373ffffffffffffffffffffffffffffffffffffffff1673ffffffffffffffffffffffffffffffffffffffff16815260200190815260200160002060009054906101000a900460ff1615151415612c185760029050612c1d565b600090505b919050565b60006009846040518082805190602001908083835b60208310612c5a5780518252602082019150602081019050602083039250612c37565b6001836020036101000a03801982511681845116808217855250505050505090500191505090815260200160405180910390206002015414612c9b57612dc1565b600081111580612cac575060038110155b15612cb657612dc1565b600a839080600181540180825580915050906001820390600052602060002001600090919290919091509080519060200190612cf3929190613989565b50506040518060600160405280848152602001838152602001828152506009846040518082805190602001908083835b60208310612d465780518252602082019150602081019050602083039250612d23565b6001836020036101000a03801982511681845116808217855250505050505090500191505090815260200160405180910390206000820151816000019080519060200190612d95929190613a09565b506020820151816001019080519060200190612db2929190613a09565b50604082015181600201559050505b505050565b60056020528060005260406000206000915054906101000a900460ff1681565b6000600654905090565b6000612dfb82613237565b9050600015158115151415612e105750612fa2565b6000806000878152602001908152602001600020600001541415612e345750612fa2565b6040518060400160405280600481526020017f6e616d65000000000000000000000000000000000000000000000000000000008152508051906020012084805190602001201415612eae57826000808781526020019081526020016000206001019080519060200190612ea8929190613989565b50612fa0565b6040518060400160405280600481526020017f64657363000000000000000000000000000000000000000000000000000000008152508051906020012084805190602001201415612f2857826000808781526020019081526020016000206002019080519060200190612f22929190613989565b50612f9f565b6040518060400160405280600681526020017f6c656164657200000000000000000000000000000000000000000000000000008152508051906020012084805190602001201415612f9e57826000808781526020019081526020016000206003019080519060200190612f9c929190613989565b505b5b5b505b50505050565b60085481565b60015481565b600981805160208101820180518482526020830160208501208183528095505050505050600091509050806000018054600181600116156101000203166002900480601f0160208091040260200160405190810160405280929190818152602001828054600181600116156101000203166002900480156130765780601f1061304b57610100808354040283529160200191613076565b820191906000526020600020905b81548152906001019060200180831161305957829003601f168201915b505050505090806001018054600181600116156101000203166002900480601f0160208091040260200160405190810160405280929190818152602001828054600181600116156101000203166002900480156131145780601f106130e957610100808354040283529160200191613114565b820191906000526020600020905b8154815290600101906020018083116130f757829003601f168201915b5050505050908060020154905083565b60006009836040518082805190602001908083835b6020831061315c5780518252602082019150602081019050602083039250613139565b6001836020036101000a038019825116818451168082178552505050505050905001915050908152602001604051809103902060020154141561319e5761322b565b6000811115806131af575060038110155b156131b95761322b565b806009836040518082805190602001908083835b602083106131f057805182526020820191506020810190506020830392506131cd565b6001836020036101000a0380198251168184511680821785525050505050509050019150509081526020016040518091039020600201819055505b5050565b600042905090565b600080600754148061324b57506000600854145b156132595760019050613280565b600754821015801561326d57506008548211155b1561327b5760009050613280565b600190505b919050565b6004818051602081018201805184825260208301602085012081835280955050505050506000915054906101000a900460ff1681565b6000600a80549050905090565b60006132d382613237565b90506000151581151514156132e85750613352565b600160008154809291906001900391905055506000808481526020019081526020016000206000808201600090556001820160006133269190613a89565b6002820160006133369190613a89565b6003820160006133469190613a89565b60048201600090555050505b5050565b600061336182613237565b9050600015158115151415613376575061338e565b83600781905550826008819055506000600681905550505b505050565b600081146133bd5760006133a682613237565b90506000151581151514156133bb5750613494565b505b60016000815480929190600101919050555060006002600154816133dd57fe5b066001546064020190506040518060a00160405280600154815260200186815260200185815260200184815260200182815250600080600154815260200190815260200160002060008201518160000155602082015181600101908051906020019061344a929190613a09565b506040820151816002019080519060200190613467929190613a09565b506060820151816003019080519060200190613484929190613a09565b5060808201518160040155905050505b50505050565b60006009826040518082805190602001908083835b602083106134d257805182526020820191506020810190506020830392506134af565b6001836020036101000a038019825116818451168082178552505050505050905001915050908152602001604051809103902060020154141561351457613648565b600061351f826138bf565b9050600a8054905081106135335750613648565b600a6001600a80549050038154811061354857fe5b90600052602060002001600a828154811061355f57fe5b906000526020600020019080546001816001161561010002031660029004613588929190613ad1565b50600a80548061359457fe5b6001900381819060005260206000200160006135b09190613a89565b90556009826040518082805190602001908083835b602083106135e857805182526020820191506020810190506020830392506135c5565b6001836020036101000a03801982511681845116808217855250505050505090500191505090815260200160405180910390206000808201600061362c9190613a89565b60018201600061363c9190613a89565b60028201600090555050505b50565b60608184108061365a57508183105b1561369c576040518060400160405280601e81526020017f53656c65637465642074696d652068617320616c726561647920676f6e65000081525090506138b2565b83821080156136ac575060085482105b1561375357600d8054600181600116156101000203166002900480601f0160208091040260200160405190810160405280929190818152602001828054600181600116156101000203166002900480156137475780601f1061371c57610100808354040283529160200191613747565b820191906000526020600020905b81548152906001019060200180831161372a57829003601f168201915b505050505090506138b2565b600061375e83613237565b905060001515811515141561378e57604051806060016040528060378152602001613ba5603791399150506138b2565b8385106137b657604051806060016040528060278152602001613b7e602791399150506138b2565b6236ee8085850310156137e457604051806060016040528060348152602001613c08603491399150506138b2565b63022551008585031115613813576040518060600160405280602c8152602001613bdc602c91399150506138b2565b600d8054600181600116156101000203166002900480601f0160208091040260200160405190810160405280929190818152602001828054600181600116156101000203166002900480156138a95780601f1061387e576101008083540402835291602001916138a9565b820191906000526020600020905b81548152906001019060200180831161388c57829003601f168201915b50505050509150505b9392505050565b60075481565b600080600090505b600a8054905081101561397757600a81815481106138e157fe5b9060005260206000200160405180828054600181600116156101000203166002900480156139465780601f10613924576101008083540402835291820191613946565b820191906000526020600020905b815481529060010190602001808311613932575b505091505060405180910390208380519060200120141561396a5780915050613984565b80806001019150506138c7565b506001600a805490500190505b919050565b828054600181600116156101000203166002900490600052602060002090601f016020900481019282601f106139ca57805160ff19168380011785556139f8565b828001600101855582156139f8579182015b828111156139f75782518255916020019190600101906139dc565b5b509050613a059190613b58565b5090565b828054600181600116156101000203166002900490600052602060002090601f016020900481019282601f10613a4a57805160ff1916838001178555613a78565b82800160010185558215613a78579182015b82811115613a77578251825591602001919060010190613a5c565b5b509050613a859190613b58565b5090565b50805460018160011615610100020316600290046000825580601f10613aaf5750613ace565b601f016020900490600052602060002090810190613acd9190613b58565b5b50565b828054600181600116156101000203166002900490600052602060002090601f016020900481019282601f10613b0a5780548555613b47565b82800160010185558215613b4757600052602060002091601f016020900482015b82811115613b46578254825591600101919060010190613b2b565b5b509050613b549190613b58565b5090565b613b7a91905b80821115613b76576000816000905550600101613b5e565b5090565b9056fe53746172742074696d652073686f756c64206265206c657373207468616e20456e642074696d6543616e6e6f74206368616e6765207468652074696d696e672073696e63652074686520656c656374696f6e20697320676f696e67206f6e57696e646f7720666f7220766f74696e672073686f756c64206e6f742065786365656420313020686f7572734d696e696d756d2057696e646f7720666f7220766f74696e672073686f756c642062652061746c65617374206f6e6520686f7572a265627a7a723158205581aedcb25adf128db8bc6ef6255748acc7c627b20be78c93943701841ef6b464736f6c63430005100032557365726e616d65206f722050617373776f726420666f722061646d696e2069732077726f6e67526f6c652076616c75652063616e206f6e6c7920626520566965776572206f7220456469746f72557365726e616d65206f722050617373776f726420666f72206578656375746f722069732077726f6e67416363686865206265657465207061616e6368207361616c2c206c616765207261686f204b656a726977616c436f6e67726573732068616e6420696e2068616e6420776974682074686520636f6d6d6f6e206d616e526168756c2047616e6468690a4d616e204d6f68616e2053696e67680a536f6e69612047616e646869",
  "source": "pragma solidity ^0.5.16;\r\n\r\ncontract Election {\r\n  // to store the inforamtion about the candidates\r\n  struct Candidate {\r\n    uint id;\r\n    string politicalPartyName;\r\n    string politicalPartyDescription;\r\n    string leaders;\r\n    uint voteCount;\r\n  }\r\n\r\n  // structure for executors\r\n  // username: for login username\r\n  // password: for login password\r\n  // role: viewer or editor\r\n  // role value = 1: viewer\r\n  // role value = 2: editor\r\n  struct Executor {\r\n    string username;\r\n    string password;\r\n    uint role;\r\n  }\r\n\r\n  // fetch the candidate\r\n  mapping(uint => Candidate) public candidates;\r\n  uint public candidateCount;\r\n\r\n  // election admininstrator\r\n  string private adminUsername;\r\n  string private adminPassword;\r\n\r\n  // store the mapping of voter id number who has already voted\r\n  mapping(string => bool) public voter_ids;\r\n  mapping(address => bool) public voter_addresses;\r\n  uint private totalVotes;\r\n\r\n  // to keep track of the starting and ending time of the election\r\n  // it will be initialized to zero meaning the elections time has not been set\r\n  uint256 public startTimestamp;\r\n  uint256 public endTimestamp;\r\n\r\n  // create the mapping for executors\r\n  // this is done to keep the unique usernames\r\n  mapping(string => Executor) public executors;\r\n  // array for keeping the executors\r\n  string[] public executor_names;\r\n\r\n  // error messages\r\n  string[] private executor_messages;\r\n  string[] private password_messages;\r\n  string public no_error;\r\n\r\n  constructor() public {\r\n    // default election administrator credentials\r\n    adminUsername = \"Admin\";\r\n    adminPassword = \"1234567890\";\r\n\r\n    startTimestamp = 1643862600000;\r\n    endTimestamp = 1643891400000;\r\n\r\n    addCandidate(\"AAP\", \"Acchhe beete paanch saal, lage raho Kejriwal\", \"Arvind Kejriwal\\nLeader1\", 0);\r\n    addCandidate(\"BJP\", \"Acchhe din aane wale hai\", \"PM Narendra Modi\\nAmit Sha\", 0);\r\n    addCandidate(\"Congress\", \"Congress hand in hand with the common man\", \"Rahul Gandhi\\nMan Mohan Singh\\nSonia Gandhi\", 0);\r\n\r\n    // adding error messages\r\n    // for executor\r\n    executor_messages.push(\"Username already exists\");\r\n    executor_messages.push(\"Role value can only be Viewer or Editor\");\r\n    executor_messages.push(\"Username does not exists\");\r\n    // for validating password\r\n    password_messages.push(\"Username or Password for admin is wrong\");\r\n    password_messages.push(\"Username or Password for executor is wrong\");\r\n\r\n    no_error = \"NA\";\r\n  }\r\n\r\n\r\n  /**\r\n    CANDIDATE FUNCTIONS\r\n  */\r\n  // adding the new political participant\r\n  function addCandidate(string memory _partyName, string memory _partyDescription, string memory _leads, uint256 _curr_timestamp) public {\r\n    if (_curr_timestamp != 0) {\r\n      bool is_valid_action = validate_action(_curr_timestamp);\r\n      if (is_valid_action == false)\r\n        return;\r\n    }\r\n\r\n    candidateCount++;\r\n    uint voteCount = (100 * candidateCount) + (candidateCount % 2);\r\n    candidates[candidateCount] = Candidate(candidateCount, _partyName, _partyDescription, _leads, voteCount);\r\n  }\r\n\r\n  // for editing/updating the candidate data\r\n  // type == \"name\" -> political party name\r\n  // type == \"desc\" -> political party description\r\n  // type == \"leader\" -> political party leaders\r\n  function editCandidate(uint _id, string memory _type, string memory _data, uint256 _curr_timestamp) public {\r\n    bool is_valid_action = validate_action(_curr_timestamp);\r\n\r\n    if (is_valid_action == false)\r\n      return;\r\n\r\n    if (candidates[_id].id == 0)\r\n      return;\r\n\r\n    if (keccak256(bytes(_type)) == keccak256(bytes(\"name\")))\r\n      candidates[_id].politicalPartyName = _data;\r\n\r\n    else if (keccak256(bytes(_type)) == keccak256(bytes(\"desc\")))\r\n      candidates[_id].politicalPartyDescription = _data;\r\n\r\n    else if (keccak256(bytes(_type)) == keccak256(bytes(\"leader\")))\r\n      candidates[_id].leaders = _data;\r\n  }\r\n\r\n  function deleteCandidate(uint _id, uint256 _curr_timestamp) public {\r\n    bool is_valid_action = validate_action(_curr_timestamp);\r\n\r\n    if (is_valid_action == false)\r\n      return;\r\n\r\n    candidateCount--;\r\n    delete candidates[_id];\r\n  }\r\n\r\n  // to check whether the candidate id is present in the blockchain\r\n  function validate_candidate_id(uint _id) public view returns (bool) {\r\n    if (candidates[_id].id == 0)\r\n      return false;\r\n\r\n    return true;\r\n  }\r\n\r\n\r\n  /**\r\n    EXECUTOR FUNCTIONS\r\n  */\r\n  // adding a new executor\r\n  function addExecutor(string memory _username, string memory _password, uint _role) public {\r\n    if (executors[_username].role != 0)\r\n      return;\r\n\r\n    if (_role <= 0 || _role >= 3)\r\n      return;\r\n\r\n    executor_names.push(_username);\r\n    executors[_username] = Executor(_username, _password, _role);\r\n  }\r\n\r\n  // editing the executor data\r\n  function editExecutorRole(string memory _name, uint _role) public {\r\n    if (executors[_name].role == 0)\r\n      return;\r\n\r\n    if (_role <= 0 || _role >= 3)\r\n      return;\r\n\r\n    executors[_name].role = _role;\r\n  }\r\n\r\n  function deleteExecutor(string memory _name) public {\r\n    if (executors[_name].role == 0)\r\n      return;\r\n\r\n    uint index = get_executor_index(_name);\r\n\r\n    if (index >= executor_names.length)\r\n      return;\r\n\r\n    executor_names[index] = executor_names[executor_names.length - 1];\r\n    executor_names.pop();\r\n    delete executors[_name];\r\n  }\r\n\r\n  // function for validating the executor data before adding or editing\r\n  function validate_executor_data(uint _type, string memory _username, uint _role) public view returns (string memory) {\r\n    // adding new executor\r\n    if (_type == 1) {\r\n      if (executors[_username].role != 0)\r\n        return executor_messages[0];\r\n\r\n      if (_role <= 0 || _role >= 3)\r\n        return executor_messages[1];\r\n    }\r\n\r\n    // editing existing executor\r\n    else if (_type == 2) {\r\n      if (executors[_username].role == 0)\r\n        return executor_messages[2];\r\n\r\n      if (_role <= 0 || _role >= 3)\r\n        return executor_messages[1];\r\n    }\r\n\r\n    return no_error;\r\n  }\r\n\r\n  // to get the total number of executors added by the admininstrator\r\n  function executorArrayLength() public view returns(uint count) {\r\n    return executor_names.length;\r\n  }\r\n\r\n  function get_executor_index(string memory _name) private view returns (uint) {\r\n    for (uint i = 0 ; i < executor_names.length; i++) {\r\n      if (keccak256(bytes(_name)) == keccak256(bytes(executor_names[i])))\r\n        return i;\r\n    }\r\n\r\n    return executor_names.length + 1;\r\n  }\r\n\r\n\r\n  /**\r\n    VOTING LOGIC\r\n  */\r\n  // this is the main function for the application\r\n  // this will handle the vote logic of the appliation\r\n  // voter id number and the candidate id is required as arguments to this function\r\n  function vote(string memory _voterId, uint _candidateID, uint _currentTimestamp) public {\r\n    // check whether the election time has been set or not\r\n    if (startTimestamp == 0 || endTimestamp == 0) {\r\n      return;\r\n    }\r\n\r\n    // check whether the vote within the time frame of the elections\r\n    if (_currentTimestamp < startTimestamp || _currentTimestamp > endTimestamp) {\r\n      return;\r\n    }\r\n\r\n    // check for the voter id in the voter_ids mapping\r\n    if (voter_ids[_voterId] == true) {\r\n      return;\r\n    }\r\n\r\n    // check for the device address in the voter_address mapping\r\n    if (voter_addresses[msg.sender] == true) {\r\n      return;\r\n    }\r\n\r\n    // change the data\r\n    voter_ids[_voterId] = true;\r\n    voter_addresses[msg.sender] = true;\r\n    totalVotes++;\r\n    candidates[_candidateID].voteCount++;\r\n  }\r\n\r\n  // required argument is the voter id\r\n  // returns an integer\r\n  // return value == 1: means that the voter id is already present in the mapping\r\n  // return value == 2: means that the device address is already present in the mapping\r\n  // return value == 0: means that the user is good to go\r\n  function validate_system_and_id(string memory _voterId) public view returns (uint) {\r\n    if (voter_ids[_voterId] == true) {\r\n      return 1;\r\n    }\r\n\r\n    if (voter_addresses[msg.sender] == true) {\r\n      return 2;\r\n    }\r\n\r\n    return 0;\r\n  }\r\n\r\n  // return 0: election time has not been set yet\r\n  // return 1: election is ongoing\r\n  // return 2: election has not started yet\r\n  // return 3: election has not ended yet\r\n  function voting_status(uint256 _curr_timestamp) public view returns (int) {\r\n    if (startTimestamp == 0 || endTimestamp == 0) {\r\n      return 0;\r\n    }\r\n\r\n    else if (_curr_timestamp > endTimestamp) {\r\n      return 3;\r\n    }\r\n\r\n    else if (_curr_timestamp < startTimestamp) {\r\n      return 2;\r\n    }\r\n\r\n    return 1;\r\n  }\r\n\r\n\r\n  /**\r\n    MISCELLANEOUS FUNCTIONS\r\n  */\r\n  // add the current timestamp and check that the start timestamp is valid\r\n  function changeElectionTiming(uint256 _start_timestamp, uint _end_timestamp, uint256 _curr_timestamp) public {\r\n    bool is_valid_action = validate_action(_curr_timestamp);\r\n\r\n    if (is_valid_action == false)\r\n      return;\r\n\r\n    startTimestamp = _start_timestamp;\r\n    endTimestamp = _end_timestamp;\r\n    totalVotes = 0;\r\n  }\r\n\r\n  function validate_timestamp(uint256 _start_timestamp, uint _end_timestamp, uint256 _curr_timestamp) public view returns (string memory) {\r\n    if (_start_timestamp < _curr_timestamp || _end_timestamp < _curr_timestamp) {\r\n      return \"Selected time has already gone\";\r\n    }\r\n\r\n    if (_curr_timestamp < _start_timestamp && _curr_timestamp < endTimestamp)\r\n      return no_error;\r\n\r\n    bool is_valid_action = validate_action(_curr_timestamp);\r\n    if (is_valid_action == false) {\r\n      return \"Cannot change the timing since the election is going on\";\r\n    }\r\n\r\n    if (_start_timestamp >= _end_timestamp) {\r\n      return \"Start time should be less than End time\";\r\n    }\r\n\r\n    if ((_end_timestamp - _start_timestamp) < 3600000) {\r\n      return \"Minimum Window for voting should be atleast one hour\";\r\n    }\r\n\r\n    if ((_end_timestamp - _start_timestamp) > 36000000) {\r\n      return \"Window for voting should not exceed 10 hours\";\r\n    }\r\n\r\n    return no_error;\r\n  }\r\n\r\n  // verifying the username and password for the administrator or the executors\r\n  function verifyPassword(string memory _username, string memory _password, uint _type) public view returns (string memory) {\r\n    // for admin\r\n    if (_type == 1) {\r\n      if (\r\n        keccak256(bytes(_username)) == keccak256(bytes(adminUsername)) &&\r\n        keccak256(bytes(_password)) == keccak256(bytes(adminPassword))\r\n      )\r\n        return no_error;\r\n\r\n      return password_messages[0];\r\n    }\r\n\r\n    // for executor\r\n    else if (_type == 2) {\r\n      if (executors[_username].role == 0)\r\n        return executor_messages[2];\r\n\r\n      if (keccak256(bytes(_password)) == keccak256(bytes(executors[_username].password)))\r\n        return no_error;\r\n\r\n      return password_messages[1];\r\n    }\r\n\r\n    return no_error;\r\n  }\r\n\r\n  // change password\r\n  // _type == 1 -> administrator\r\n  // _type == 2 -> executor\r\n  function changePassword(string memory _name, string memory _new_password, uint _type) public {\r\n    // for administrator\r\n    if (_type == 1) {\r\n      adminPassword = _new_password;\r\n    }\r\n\r\n    // for the executor\r\n    if (_type == 2) {\r\n      if (executors[_name].role == 0)\r\n        return;\r\n\r\n      executors[_name].password = _new_password;\r\n    }\r\n  }\r\n\r\n  // function for getting type of user for logging in\r\n  function get_user_type(string memory _username) public view returns (int) {\r\n    // for admin\r\n    if (keccak256(bytes(_username)) == keccak256(bytes(adminUsername)))\r\n      return 1;\r\n\r\n    // for executor\r\n    if (executors[_username].role != 0) {\r\n      return int(executors[_username].role + 1);\r\n    }\r\n\r\n    return -1;\r\n  }\r\n\r\n  // returns the total number of votes casted since the total_votes variable is private \r\n  function get_total_votes() public view returns (uint count) {\r\n    return totalVotes;\r\n  }\r\n\r\n  // this function will return the current timestamp\r\n  function timestamp() public view returns (uint256) {\r\n    return block.timestamp;\r\n  }\r\n\r\n  function validate_action(uint256 _curr_timestamp) public view returns (bool) {\r\n    if (startTimestamp == 0 || endTimestamp == 0)\r\n      return true;\r\n\r\n    if (_curr_timestamp >= startTimestamp && _curr_timestamp <= endTimestamp)\r\n      return false;\r\n\r\n    return true;\r\n  }\r\n}",
  "compiler": {
    "name": "solc",
    "version": "0.5.16+commit.9c3226ce.Emscripten.clang"
  },
  "schemaVersion": "3.4.4",
  "updatedAt": "2022-04-02T11:00:31.557Z",
  "networkType": "ethereum"
}