{
  "contractName": "Election",
  "abi": [
    {
      "inputs": [],
      "payable": false,
      "stateMutability": "nonpayable",
      "type": "constructor"
    },
    {
      "constant": true,
      "inputs": [],
      "name": "candidateCount",
      "outputs": [
        {
          "internalType": "uint256",
          "name": "",
          "type": "uint256"
        }
      ],
      "payable": false,
      "stateMutability": "view",
      "type": "function"
    },
    {
      "constant": true,
      "inputs": [
        {
          "internalType": "uint256",
          "name": "",
          "type": "uint256"
        }
      ],
      "name": "candidates",
      "outputs": [
        {
          "internalType": "uint256",
          "name": "id",
          "type": "uint256"
        },
        {
          "internalType": "string",
          "name": "politicalPartyName",
          "type": "string"
        },
        {
          "internalType": "string",
          "name": "politicalPartyDescription",
          "type": "string"
        },
        {
          "internalType": "string",
          "name": "leaders",
          "type": "string"
        },
        {
          "internalType": "uint256",
          "name": "voteCount",
          "type": "uint256"
        }
      ],
      "payable": false,
      "stateMutability": "view",
      "type": "function"
    },
    {
      "constant": true,
      "inputs": [],
      "name": "endTimestamp",
      "outputs": [
        {
          "internalType": "uint256",
          "name": "",
          "type": "uint256"
        }
      ],
      "payable": false,
      "stateMutability": "view",
      "type": "function"
    },
    {
      "constant": true,
      "inputs": [],
      "name": "startTimestamp",
      "outputs": [
        {
          "internalType": "uint256",
          "name": "",
          "type": "uint256"
        }
      ],
      "payable": false,
      "stateMutability": "view",
      "type": "function"
    },
    {
      "constant": true,
      "inputs": [],
      "name": "totalVotes",
      "outputs": [
        {
          "internalType": "uint256",
          "name": "",
          "type": "uint256"
        }
      ],
      "payable": false,
      "stateMutability": "view",
      "type": "function"
    },
    {
      "constant": true,
      "inputs": [
        {
          "internalType": "string",
          "name": "",
          "type": "string"
        }
      ],
      "name": "voters",
      "outputs": [
        {
          "internalType": "bool",
          "name": "",
          "type": "bool"
        }
      ],
      "payable": false,
      "stateMutability": "view",
      "type": "function"
    },
    {
      "constant": false,
      "inputs": [
        {
          "internalType": "string",
          "name": "_partyName",
          "type": "string"
        },
        {
          "internalType": "string",
          "name": "_partyDescription",
          "type": "string"
        },
        {
          "internalType": "string",
          "name": "_leads",
          "type": "string"
        }
      ],
      "name": "addCandidate",
      "outputs": [],
      "payable": false,
      "stateMutability": "nonpayable",
      "type": "function"
    },
    {
      "constant": false,
      "inputs": [
        {
          "internalType": "string",
          "name": "_voterId",
          "type": "string"
        },
        {
          "internalType": "uint256",
          "name": "_candidateID",
          "type": "uint256"
        }
      ],
      "name": "vote",
      "outputs": [],
      "payable": false,
      "stateMutability": "nonpayable",
      "type": "function"
    },
    {
      "constant": true,
      "inputs": [
        {
          "internalType": "string",
          "name": "_username",
          "type": "string"
        },
        {
          "internalType": "string",
          "name": "_password",
          "type": "string"
        }
      ],
      "name": "verifyPassword",
      "outputs": [
        {
          "internalType": "bool",
          "name": "",
          "type": "bool"
        }
      ],
      "payable": false,
      "stateMutability": "view",
      "type": "function"
    },
    {
      "constant": false,
      "inputs": [
        {
          "internalType": "uint256",
          "name": "_timestamp",
          "type": "uint256"
        }
      ],
      "name": "changeStartDate",
      "outputs": [],
      "payable": false,
      "stateMutability": "nonpayable",
      "type": "function"
    },
    {
      "constant": false,
      "inputs": [
        {
          "internalType": "uint256",
          "name": "_timestamp",
          "type": "uint256"
        }
      ],
      "name": "changeEndDate",
      "outputs": [],
      "payable": false,
      "stateMutability": "nonpayable",
      "type": "function"
    }
  ],
  "bytecode": "0x60806040523480156200001157600080fd5b506040518060400160405280600581526020017f41646d696e000000000000000000000000000000000000000000000000000000815250600290805190602001906200005f92919062000359565b506040518060400160405280600a81526020017f313233343536373839300000000000000000000000000000000000000000000081525060039080519060200190620000ad92919062000359565b5065017ef6ec7a4060048190555065017ef75a57406005819055506200015e6040518060400160405280600381526020017f41415000000000000000000000000000000000000000000000000000000000008152506040518060600160405280602c81526020016200125b602c91396040518060400160405280601781526020017f417276696e64204b656a726977616c0a4c6561646572310000000000000000008152506200029060201b60201c565b620002106040518060400160405280600381526020017f424a5000000000000000000000000000000000000000000000000000000000008152506040518060400160405280601881526020017f4163636868652064696e2061616e652077616c652068616900000000000000008152506040518060400160405280601981526020017f504d204e6172656e647261204d6f64690a416d697420536861000000000000008152506200029060201b60201c565b6200028a6040518060400160405280600881526020017f436f6e67726573730000000000000000000000000000000000000000000000008152506040518060600160405280602981526020016200128760299139604051806060016040528060288152602001620012b0602891396200029060201b60201c565b6200048f565b6001600081548092919060010191905055506040518060a0016040528060015481526020018481526020018381526020018281526020016000815250600080600154815260200190815260200160002060008201518160000155602082015181600101908051906020019062000308929190620003e0565b50604082015181600201908051906020019062000327929190620003e0565b50606082015181600301908051906020019062000346929190620003e0565b5060808201518160040155905050505050565b828054600181600116156101000203166002900490600052602060002090601f016020900481019282601f106200039c57805160ff1916838001178555620003cd565b82800160010185558215620003cd579182015b82811115620003cc578251825591602001919060010190620003af565b5b509050620003dc919062000467565b5090565b828054600181600116156101000203166002900490600052602060002090601f016020900481019282601f106200042357805160ff191683800117855562000454565b8280016001018555821562000454579182015b828111156200045357825182559160200191906001019062000436565b5b50905062000463919062000467565b5090565b6200048c91905b80821115620004885760008160009055506001016200046e565b5090565b90565b610dbc806200049f6000396000f3fe608060405234801561001057600080fd5b50600436106100a85760003560e01c806353fa2e641161007157806353fa2e641461041e578063a6385803146104f1578063a85adeab146105b6578063a9a981a3146105d4578063ad71f8dc146105f2578063e6fd48bc146107db576100a8565b8062739f2a146100ad5780630d15fd77146100db5780632fe6269f146100f95780633477ee2e1461026357806345737b1e146103f0575b600080fd5b6100d9600480360360208110156100c357600080fd5b81019080803590602001909291905050506107f9565b005b6100e3610803565b6040518082815260200191505060405180910390f35b6102496004803603604081101561010f57600080fd5b810190808035906020019064010000000081111561012c57600080fd5b82018360208201111561013e57600080fd5b8035906020019184600183028401116401000000008311171561016057600080fd5b91908080601f016020809104026020016040519081016040528093929190818152602001838380828437600081840152601f19601f820116905080830192505050505050509192919290803590602001906401000000008111156101c357600080fd5b8201836020820111156101d557600080fd5b803590602001918460018302840111640100000000831117156101f757600080fd5b91908080601f016020809104026020016040519081016040528093929190818152602001838380828437600081840152601f19601f820116905080830192505050505050509192919290505050610809565b604051808215151515815260200191505060405180910390f35b61028f6004803603602081101561027957600080fd5b8101908080359060200190929190505050610912565b60405180868152602001806020018060200180602001858152602001848103845288818151815260200191508051906020019080838360005b838110156102e35780820151818401526020810190506102c8565b50505050905090810190601f1680156103105780820380516001836020036101000a031916815260200191505b50848103835287818151815260200191508051906020019080838360005b8381101561034957808201518184015260208101905061032e565b50505050905090810190601f1680156103765780820380516001836020036101000a031916815260200191505b50848103825286818151815260200191508051906020019080838360005b838110156103af578082015181840152602081019050610394565b50505050905090810190601f1680156103dc5780820380516001836020036101000a031916815260200191505b509850505050505050505060405180910390f35b61041c6004803603602081101561040657600080fd5b8101908080359060200190929190505050610b10565b005b6104d76004803603602081101561043457600080fd5b810190808035906020019064010000000081111561045157600080fd5b82018360208201111561046357600080fd5b8035906020019184600183028401116401000000008311171561048557600080fd5b91908080601f016020809104026020016040519081016040528093929190818152602001838380828437600081840152601f19601f820116905080830192505050505050509192919290505050610b1a565b604051808215151515815260200191505060405180910390f35b6105b46004803603604081101561050757600080fd5b810190808035906020019064010000000081111561052457600080fd5b82018360208201111561053657600080fd5b8035906020019184600183028401116401000000008311171561055857600080fd5b91908080601f016020809104026020016040519081016040528093929190818152602001838380828437600081840152601f19601f82011690508083019250505050505050919291929080359060200190929190505050610b50565b005b6105be610c0d565b6040518082815260200191505060405180910390f35b6105dc610c13565b6040518082815260200191505060405180910390f35b6107d96004803603606081101561060857600080fd5b810190808035906020019064010000000081111561062557600080fd5b82018360208201111561063757600080fd5b8035906020019184600183028401116401000000008311171561065957600080fd5b91908080601f016020809104026020016040519081016040528093929190818152602001838380828437600081840152601f19601f820116905080830192505050505050509192919290803590602001906401000000008111156106bc57600080fd5b8201836020820111156106ce57600080fd5b803590602001918460018302840111640100000000831117156106f057600080fd5b91908080601f016020809104026020016040519081016040528093929190818152602001838380828437600081840152601f19601f8201169050808301925050505050505091929192908035906020019064010000000081111561075357600080fd5b82018360208201111561076557600080fd5b8035906020019184600183028401116401000000008311171561078757600080fd5b91908080601f016020809104026020016040519081016040528093929190818152602001838380828437600081840152601f19601f820116905080830192505050505050509192919290505050610c19565b005b6107e3610cdc565b6040518082815260200191505060405180910390f35b8060048190555050565b60075481565b6000600260405180828054600181600116156101000203166002900480156108685780601f10610846576101008083540402835291820191610868565b820191906000526020600020905b815481529060010190602001808311610854575b5050915050604051809103902083805190602001201480156108f95750600360405180828054600181600116156101000203166002900480156108e25780601f106108c05761010080835404028352918201916108e2565b820191906000526020600020905b8154815290600101906020018083116108ce575b505091505060405180910390208280519060200120145b15610907576001905061090c565b600090505b92915050565b6000602052806000526040600020600091509050806000015490806001018054600181600116156101000203166002900480601f0160208091040260200160405190810160405280929190818152602001828054600181600116156101000203166002900480156109c45780601f10610999576101008083540402835291602001916109c4565b820191906000526020600020905b8154815290600101906020018083116109a757829003601f168201915b505050505090806002018054600181600116156101000203166002900480601f016020809104026020016040519081016040528092919081815260200182805460018160011615610100020316600290048015610a625780601f10610a3757610100808354040283529160200191610a62565b820191906000526020600020905b815481529060010190602001808311610a4557829003601f168201915b505050505090806003018054600181600116156101000203166002900480601f016020809104026020016040519081016040528092919081815260200182805460018160011615610100020316600290048015610b005780601f10610ad557610100808354040283529160200191610b00565b820191906000526020600020905b815481529060010190602001808311610ae357829003601f168201915b5050505050908060040154905085565b8060058190555050565b6006818051602081018201805184825260208301602085012081835280955050505050506000915054906101000a900460ff1681565b60016006836040518082805190602001908083835b60208310610b885780518252602082019150602081019050602083039250610b65565b6001836020036101000a038019825116818451168082178552505050505050905001915050908152602001604051809103902060006101000a81548160ff021916908315150217905550600760008154809291906001019190505550600080828152602001908152602001600020600401600081548092919060010191905055505050565b60055481565b60015481565b6001600081548092919060010191905055506040518060a00160405280600154815260200184815260200183815260200182815260200160008152506000806001548152602001908152602001600020600082015181600001556020820151816001019080519060200190610c8f929190610ce2565b506040820151816002019080519060200190610cac929190610ce2565b506060820151816003019080519060200190610cc9929190610ce2565b5060808201518160040155905050505050565b60045481565b828054600181600116156101000203166002900490600052602060002090601f016020900481019282601f10610d2357805160ff1916838001178555610d51565b82800160010185558215610d51579182015b82811115610d50578251825591602001919060010190610d35565b5b509050610d5e9190610d62565b5090565b610d8491905b80821115610d80576000816000905550600101610d68565b5090565b9056fea265627a7a72315820ab05b755c09ec956c832f782a4f03b45847dea9cfeb7330454007dc8f233368d64736f6c63430005100032416363686865206265657465207061616e6368207361616c2c206c616765207261686f204b656a726977616c436f6e67726573732068616e6420696e2068616e6420776974682074686520636f6d6d6f6e206d616e526168756c2047616e6468690a4d616e204d6f68616e2053696e67680a536f6e696147616e646869",
  "source": "pragma solidity ^0.5.16;\r\n\r\ncontract Election {\r\n  struct Candidate {\r\n    uint id;\r\n    string politicalPartyName;\r\n    string politicalPartyDescription;\r\n    string leaders;\r\n    uint voteCount;\r\n  }\r\n\r\n  // fetch the candidate\r\n  mapping(uint => Candidate) public candidates;\r\n  uint public candidateCount;\r\n\r\n  string private adminUsername;\r\n  string private adminPassword;\r\n\r\n  uint public startTimestamp;\r\n  uint public endTimestamp;\r\n\r\n  mapping(string => bool) public voters;\r\n  uint public totalVotes;\r\n\r\n  constructor() public {\r\n    adminUsername = \"Admin\";\r\n    adminPassword = \"1234567890\";\r\n\r\n    startTimestamp = 1644820200000;\r\n    endTimestamp   = 1644827400000;\r\n\r\n    addCandidate(\"AAP\", \"Acchhe beete paanch saal, lage raho Kejriwal\", \"Arvind Kejriwal\\nLeader1\");\r\n    addCandidate(\"BJP\", \"Acchhe din aane wale hai\", \"PM Narendra Modi\\nAmit Sha\");\r\n    addCandidate(\"Congress\", \"Congress hand in hand with the common man\", \"Rahul Gandhi\\nMan Mohan Singh\\nSoniaGandhi\");\r\n  }\r\n\r\n  function addCandidate(string memory _partyName, string memory _partyDescription, string memory _leads) public {\r\n    candidateCount++;\r\n    candidates[candidateCount] = Candidate(candidateCount, _partyName, _partyDescription, _leads, 0);\r\n  }\r\n\r\n  function vote(string memory _voterId, uint _candidateID) public {\r\n    voters[_voterId] = true;\r\n    totalVotes++;\r\n    candidates[_candidateID].voteCount++;\r\n  }\r\n\r\n  function verifyPassword(string memory _username, string memory _password) public view returns (bool) {\r\n    if (\r\n      keccak256(bytes(_username)) == keccak256(bytes(adminUsername)) &&\r\n      keccak256(bytes(_password)) == keccak256(bytes(adminPassword))\r\n    )\r\n      return true;\r\n\r\n    return false;\r\n  }\r\n\r\n  function changeStartDate(uint _timestamp) public {\r\n    startTimestamp = _timestamp;\r\n  }\r\n\r\n  function changeEndDate(uint _timestamp) public {\r\n    endTimestamp = _timestamp;\r\n  }\r\n}",
  "sourcePath": "E:\\files\\FYP\\test\\smart_contract\\contracts\\Election.sol",
  "compiler": {
    "name": "solc",
    "version": "0.5.16+commit.9c3226ce.Emscripten.clang"
  },
  "schemaVersion": "3.4.4",
  "updatedAt": "2022-02-10T06:59:40.101Z",
  "networkType": "ethereum",
  "devdoc": {
    "methods": {}
  },
  "userdoc": {
    "methods": {}
  }
}