{
  "contractName": "Election",
  "abi": [
    {
      "inputs": [],
      "payable": false,
      "stateMutability": "nonpayable",
      "type": "constructor"
    },
    {
      "constant": true,
      "inputs": [],
      "name": "candidateCount",
      "outputs": [
        {
          "internalType": "uint256",
          "name": "",
          "type": "uint256"
        }
      ],
      "payable": false,
      "stateMutability": "view",
      "type": "function"
    },
    {
      "constant": true,
      "inputs": [
        {
          "internalType": "uint256",
          "name": "",
          "type": "uint256"
        }
      ],
      "name": "candidates",
      "outputs": [
        {
          "internalType": "uint256",
          "name": "id",
          "type": "uint256"
        },
        {
          "internalType": "string",
          "name": "politicalPartyName",
          "type": "string"
        },
        {
          "internalType": "string",
          "name": "politicalPartyDescription",
          "type": "string"
        },
        {
          "internalType": "string",
          "name": "leaders",
          "type": "string"
        },
        {
          "internalType": "uint256",
          "name": "voteCount",
          "type": "uint256"
        }
      ],
      "payable": false,
      "stateMutability": "view",
      "type": "function"
    },
    {
      "constant": true,
      "inputs": [],
      "name": "endTimestamp",
      "outputs": [
        {
          "internalType": "uint256",
          "name": "",
          "type": "uint256"
        }
      ],
      "payable": false,
      "stateMutability": "view",
      "type": "function"
    },
    {
      "constant": true,
      "inputs": [],
      "name": "startTimestamp",
      "outputs": [
        {
          "internalType": "uint256",
          "name": "",
          "type": "uint256"
        }
      ],
      "payable": false,
      "stateMutability": "view",
      "type": "function"
    },
    {
      "constant": true,
      "inputs": [],
      "name": "totalVotes",
      "outputs": [
        {
          "internalType": "uint256",
          "name": "",
          "type": "uint256"
        }
      ],
      "payable": false,
      "stateMutability": "view",
      "type": "function"
    },
    {
      "constant": true,
      "inputs": [
        {
          "internalType": "string",
          "name": "",
          "type": "string"
        }
      ],
      "name": "voters",
      "outputs": [
        {
          "internalType": "bool",
          "name": "",
          "type": "bool"
        }
      ],
      "payable": false,
      "stateMutability": "view",
      "type": "function"
    },
    {
      "constant": false,
      "inputs": [
        {
          "internalType": "string",
          "name": "_partyName",
          "type": "string"
        },
        {
          "internalType": "string",
          "name": "_partyDescription",
          "type": "string"
        },
        {
          "internalType": "string",
          "name": "_leads",
          "type": "string"
        }
      ],
      "name": "addCandidate",
      "outputs": [],
      "payable": false,
      "stateMutability": "nonpayable",
      "type": "function"
    },
    {
      "constant": false,
      "inputs": [
        {
          "internalType": "string",
          "name": "_voterId",
          "type": "string"
        },
        {
          "internalType": "uint256",
          "name": "_candidateID",
          "type": "uint256"
        },
        {
          "internalType": "uint256",
          "name": "_currentTimestamp",
          "type": "uint256"
        }
      ],
      "name": "vote",
      "outputs": [
        {
          "internalType": "bool",
          "name": "",
          "type": "bool"
        }
      ],
      "payable": false,
      "stateMutability": "nonpayable",
      "type": "function"
    },
    {
      "constant": true,
      "inputs": [
        {
          "internalType": "string",
          "name": "_username",
          "type": "string"
        },
        {
          "internalType": "string",
          "name": "_password",
          "type": "string"
        }
      ],
      "name": "verifyPassword",
      "outputs": [
        {
          "internalType": "bool",
          "name": "",
          "type": "bool"
        }
      ],
      "payable": false,
      "stateMutability": "view",
      "type": "function"
    },
    {
      "constant": false,
      "inputs": [
        {
          "internalType": "uint256",
          "name": "_timestamp",
          "type": "uint256"
        }
      ],
      "name": "changeStartDate",
      "outputs": [],
      "payable": false,
      "stateMutability": "nonpayable",
      "type": "function"
    },
    {
      "constant": false,
      "inputs": [
        {
          "internalType": "uint256",
          "name": "_timestamp",
          "type": "uint256"
        }
      ],
      "name": "changeEndDate",
      "outputs": [],
      "payable": false,
      "stateMutability": "nonpayable",
      "type": "function"
    }
  ],
  "bytecode": "0x60806040523480156200001157600080fd5b506040518060400160405280600581526020017f41646d696e000000000000000000000000000000000000000000000000000000815250600290805190602001906200005f92919062000359565b506040518060400160405280600a81526020017f313233343536373839300000000000000000000000000000000000000000000081525060039080519060200190620000ad92919062000359565b5065017ef6ec7a4060048190555065017ef75a57406005819055506200015e6040518060400160405280600381526020017f41415000000000000000000000000000000000000000000000000000000000008152506040518060600160405280602c8152602001620012a6602c91396040518060400160405280601781526020017f417276696e64204b656a726977616c0a4c6561646572310000000000000000008152506200029060201b60201c565b620002106040518060400160405280600381526020017f424a5000000000000000000000000000000000000000000000000000000000008152506040518060400160405280601881526020017f4163636868652064696e2061616e652077616c652068616900000000000000008152506040518060400160405280601981526020017f504d204e6172656e647261204d6f64690a416d697420536861000000000000008152506200029060201b60201c565b6200028a6040518060400160405280600881526020017f436f6e6772657373000000000000000000000000000000000000000000000000815250604051806060016040528060298152602001620012d260299139604051806060016040528060298152602001620012fb602991396200029060201b60201c565b6200048f565b6001600081548092919060010191905055506040518060a0016040528060015481526020018481526020018381526020018281526020016000815250600080600154815260200190815260200160002060008201518160000155602082015181600101908051906020019062000308929190620003e0565b50604082015181600201908051906020019062000327929190620003e0565b50606082015181600301908051906020019062000346929190620003e0565b5060808201518160040155905050505050565b828054600181600116156101000203166002900490600052602060002090601f016020900481019282601f106200039c57805160ff1916838001178555620003cd565b82800160010185558215620003cd579182015b82811115620003cc578251825591602001919060010190620003af565b5b509050620003dc919062000467565b5090565b828054600181600116156101000203166002900490600052602060002090601f016020900481019282601f106200042357805160ff191683800117855562000454565b8280016001018555821562000454579182015b828111156200045357825182559160200191906001019062000436565b5b50905062000463919062000467565b5090565b6200048c91905b80821115620004885760008160009055506001016200046e565b5090565b90565b610e07806200049f6000396000f3fe608060405234801561001057600080fd5b50600436106100a85760003560e01c806345737b1e1161007157806345737b1e146104d757806353fa2e6414610505578063a85adeab146105d8578063a9a981a3146105f6578063ad71f8dc14610614578063e6fd48bc146107fd576100a8565b8062739f2a146100ad5780630891d358146100db5780630d15fd77146101c25780632fe6269f146101e05780633477ee2e1461034a575b600080fd5b6100d9600480360360208110156100c357600080fd5b810190808035906020019092919050505061081b565b005b6101a8600480360360608110156100f157600080fd5b810190808035906020019064010000000081111561010e57600080fd5b82018360208201111561012057600080fd5b8035906020019184600183028401116401000000008311171561014257600080fd5b91908080601f016020809104026020016040519081016040528093929190818152602001838380828437600081840152601f19601f8201169050808301925050505050505091929192908035906020019092919080359060200190929190505050610825565b604051808215151515815260200191505060405180910390f35b6101ca61090b565b6040518082815260200191505060405180910390f35b610330600480360360408110156101f657600080fd5b810190808035906020019064010000000081111561021357600080fd5b82018360208201111561022557600080fd5b8035906020019184600183028401116401000000008311171561024757600080fd5b91908080601f016020809104026020016040519081016040528093929190818152602001838380828437600081840152601f19601f820116905080830192505050505050509192919290803590602001906401000000008111156102aa57600080fd5b8201836020820111156102bc57600080fd5b803590602001918460018302840111640100000000831117156102de57600080fd5b91908080601f016020809104026020016040519081016040528093929190818152602001838380828437600081840152601f19601f820116905080830192505050505050509192919290505050610911565b604051808215151515815260200191505060405180910390f35b6103766004803603602081101561036057600080fd5b8101908080359060200190929190505050610a1a565b60405180868152602001806020018060200180602001858152602001848103845288818151815260200191508051906020019080838360005b838110156103ca5780820151818401526020810190506103af565b50505050905090810190601f1680156103f75780820380516001836020036101000a031916815260200191505b50848103835287818151815260200191508051906020019080838360005b83811015610430578082015181840152602081019050610415565b50505050905090810190601f16801561045d5780820380516001836020036101000a031916815260200191505b50848103825286818151815260200191508051906020019080838360005b8381101561049657808201518184015260208101905061047b565b50505050905090810190601f1680156104c35780820380516001836020036101000a031916815260200191505b509850505050505050505060405180910390f35b610503600480360360208110156104ed57600080fd5b8101908080359060200190929190505050610c18565b005b6105be6004803603602081101561051b57600080fd5b810190808035906020019064010000000081111561053857600080fd5b82018360208201111561054a57600080fd5b8035906020019184600183028401116401000000008311171561056c57600080fd5b91908080601f016020809104026020016040519081016040528093929190818152602001838380828437600081840152601f19601f820116905080830192505050505050509192919290505050610c22565b604051808215151515815260200191505060405180910390f35b6105e0610c58565b6040518082815260200191505060405180910390f35b6105fe610c5e565b6040518082815260200191505060405180910390f35b6107fb6004803603606081101561062a57600080fd5b810190808035906020019064010000000081111561064757600080fd5b82018360208201111561065957600080fd5b8035906020019184600183028401116401000000008311171561067b57600080fd5b91908080601f016020809104026020016040519081016040528093929190818152602001838380828437600081840152601f19601f820116905080830192505050505050509192919290803590602001906401000000008111156106de57600080fd5b8201836020820111156106f057600080fd5b8035906020019184600183028401116401000000008311171561071257600080fd5b91908080601f016020809104026020016040519081016040528093929190818152602001838380828437600081840152601f19601f8201169050808301925050505050505091929192908035906020019064010000000081111561077557600080fd5b82018360208201111561078757600080fd5b803590602001918460018302840111640100000000831117156107a957600080fd5b91908080601f016020809104026020016040519081016040528093929190818152602001838380828437600081840152601f19601f820116905080830192505050505050509192919290505050610c64565b005b610805610d27565b6040518082815260200191505060405180910390f35b8060048190555050565b6000600454821080610838575060055482115b156108465760009050610904565b60016006856040518082805190602001908083835b6020831061087e578051825260208201915060208101905060208303925061085b565b6001836020036101000a038019825116818451168082178552505050505050905001915050908152602001604051809103902060006101000a81548160ff02191690831515021790555060076000815480929190600101919050555060008084815260200190815260200160002060040160008154809291906001019190505550600190505b9392505050565b60075481565b6000600260405180828054600181600116156101000203166002900480156109705780601f1061094e576101008083540402835291820191610970565b820191906000526020600020905b81548152906001019060200180831161095c575b505091505060405180910390208380519060200120148015610a015750600360405180828054600181600116156101000203166002900480156109ea5780601f106109c85761010080835404028352918201916109ea565b820191906000526020600020905b8154815290600101906020018083116109d6575b505091505060405180910390208280519060200120145b15610a0f5760019050610a14565b600090505b92915050565b6000602052806000526040600020600091509050806000015490806001018054600181600116156101000203166002900480601f016020809104026020016040519081016040528092919081815260200182805460018160011615610100020316600290048015610acc5780601f10610aa157610100808354040283529160200191610acc565b820191906000526020600020905b815481529060010190602001808311610aaf57829003601f168201915b505050505090806002018054600181600116156101000203166002900480601f016020809104026020016040519081016040528092919081815260200182805460018160011615610100020316600290048015610b6a5780601f10610b3f57610100808354040283529160200191610b6a565b820191906000526020600020905b815481529060010190602001808311610b4d57829003601f168201915b505050505090806003018054600181600116156101000203166002900480601f016020809104026020016040519081016040528092919081815260200182805460018160011615610100020316600290048015610c085780601f10610bdd57610100808354040283529160200191610c08565b820191906000526020600020905b815481529060010190602001808311610beb57829003601f168201915b5050505050908060040154905085565b8060058190555050565b6006818051602081018201805184825260208301602085012081835280955050505050506000915054906101000a900460ff1681565b60055481565b60015481565b6001600081548092919060010191905055506040518060a00160405280600154815260200184815260200183815260200182815260200160008152506000806001548152602001908152602001600020600082015181600001556020820151816001019080519060200190610cda929190610d2d565b506040820151816002019080519060200190610cf7929190610d2d565b506060820151816003019080519060200190610d14929190610d2d565b5060808201518160040155905050505050565b60045481565b828054600181600116156101000203166002900490600052602060002090601f016020900481019282601f10610d6e57805160ff1916838001178555610d9c565b82800160010185558215610d9c579182015b82811115610d9b578251825591602001919060010190610d80565b5b509050610da99190610dad565b5090565b610dcf91905b80821115610dcb576000816000905550600101610db3565b5090565b9056fea265627a7a72315820de2d56ccb6c6a759c6427d771998d72c5c599f8ebdb16213defb26ac807fb07a64736f6c63430005100032416363686865206265657465207061616e6368207361616c2c206c616765207261686f204b656a726977616c436f6e67726573732068616e6420696e2068616e6420776974682074686520636f6d6d6f6e206d616e526168756c2047616e6468690a4d616e204d6f68616e2053696e67680a536f6e69612047616e646869",
  "source": "pragma solidity ^0.5.16;\r\n\r\ncontract Election {\r\n  struct Candidate {\r\n    uint id;\r\n    string politicalPartyName;\r\n    string politicalPartyDescription;\r\n    string leaders;\r\n    uint voteCount;\r\n  }\r\n\r\n  // fetch the candidate\r\n  mapping(uint => Candidate) public candidates;\r\n  uint public candidateCount;\r\n\r\n  string private adminUsername;\r\n  string private adminPassword;\r\n\r\n  uint public startTimestamp;\r\n  uint public endTimestamp;\r\n\r\n  mapping(string => bool) public voters;\r\n  uint public totalVotes;\r\n\r\n  constructor() public {\r\n    adminUsername = \"Admin\";\r\n    adminPassword = \"1234567890\";\r\n\r\n    startTimestamp = 1644820200000;\r\n    endTimestamp   = 1644827400000;\r\n\r\n    addCandidate(\"AAP\", \"Acchhe beete paanch saal, lage raho Kejriwal\", \"Arvind Kejriwal\\nLeader1\");\r\n    addCandidate(\"BJP\", \"Acchhe din aane wale hai\", \"PM Narendra Modi\\nAmit Sha\");\r\n    addCandidate(\"Congress\", \"Congress hand in hand with the common man\", \"Rahul Gandhi\\nMan Mohan Singh\\nSonia Gandhi\");\r\n  }\r\n\r\n  function addCandidate(string memory _partyName, string memory _partyDescription, string memory _leads) public {\r\n    candidateCount++;\r\n    candidates[candidateCount] = Candidate(candidateCount, _partyName, _partyDescription, _leads, 0);\r\n  }\r\n\r\n  function vote(string memory _voterId, uint _candidateID, uint _currentTimestamp) public returns (bool) {\r\n    if (_currentTimestamp < startTimestamp || _currentTimestamp > endTimestamp)\r\n      return false;\r\n\r\n    voters[_voterId] = true;\r\n    totalVotes++;\r\n    candidates[_candidateID].voteCount++;\r\n    return true;\r\n  }\r\n\r\n  function verifyPassword(string memory _username, string memory _password) public view returns (bool) {\r\n    if (\r\n      keccak256(bytes(_username)) == keccak256(bytes(adminUsername)) &&\r\n      keccak256(bytes(_password)) == keccak256(bytes(adminPassword))\r\n    )\r\n      return true;\r\n\r\n    return false;\r\n  }\r\n\r\n  function changeStartDate(uint _timestamp) public {\r\n    startTimestamp = _timestamp;\r\n  }\r\n\r\n  function changeEndDate(uint _timestamp) public {\r\n    endTimestamp = _timestamp;\r\n  }\r\n}",
  "sourcePath": "E:\\files\\FYP\\test\\smart_contract\\contracts\\Election.sol",
  "compiler": {
    "name": "solc",
    "version": "0.5.16+commit.9c3226ce.Emscripten.clang"
  },
  "schemaVersion": "3.4.4",
  "updatedAt": "2022-02-27T08:00:36.638Z",
  "networkType": "ethereum",
  "devdoc": {
    "methods": {}
  },
  "userdoc": {
    "methods": {}
  }
}