{
  "contractName": "Election",
  "abi": [
    {
      "inputs": [],
      "payable": false,
      "stateMutability": "nonpayable",
      "type": "constructor"
    },
    {
      "anonymous": false,
      "inputs": [
        {
          "indexed": true,
          "internalType": "uint256",
          "name": "_candidateID",
          "type": "uint256"
        }
      ],
      "name": "voteEvent",
      "type": "event"
    },
    {
      "constant": true,
      "inputs": [],
      "name": "candidateCount",
      "outputs": [
        {
          "internalType": "uint256",
          "name": "",
          "type": "uint256"
        }
      ],
      "payable": false,
      "stateMutability": "view",
      "type": "function"
    },
    {
      "constant": true,
      "inputs": [
        {
          "internalType": "uint256",
          "name": "",
          "type": "uint256"
        }
      ],
      "name": "candidates",
      "outputs": [
        {
          "internalType": "uint256",
          "name": "id",
          "type": "uint256"
        },
        {
          "internalType": "string",
          "name": "politicalPartyName",
          "type": "string"
        },
        {
          "internalType": "string",
          "name": "politicalPartyDescription",
          "type": "string"
        },
        {
          "internalType": "string",
          "name": "leaders",
          "type": "string"
        },
        {
          "internalType": "uint256",
          "name": "voteCount",
          "type": "uint256"
        }
      ],
      "payable": false,
      "stateMutability": "view",
      "type": "function"
    },
    {
      "constant": true,
      "inputs": [],
      "name": "endTimestamp",
      "outputs": [
        {
          "internalType": "uint256",
          "name": "",
          "type": "uint256"
        }
      ],
      "payable": false,
      "stateMutability": "view",
      "type": "function"
    },
    {
      "constant": true,
      "inputs": [
        {
          "internalType": "uint256",
          "name": "",
          "type": "uint256"
        }
      ],
      "name": "executor_names",
      "outputs": [
        {
          "internalType": "string",
          "name": "",
          "type": "string"
        }
      ],
      "payable": false,
      "stateMutability": "view",
      "type": "function"
    },
    {
      "constant": true,
      "inputs": [
        {
          "internalType": "string",
          "name": "",
          "type": "string"
        }
      ],
      "name": "executors",
      "outputs": [
        {
          "internalType": "string",
          "name": "username",
          "type": "string"
        },
        {
          "internalType": "string",
          "name": "password",
          "type": "string"
        },
        {
          "internalType": "uint256",
          "name": "role",
          "type": "uint256"
        }
      ],
      "payable": false,
      "stateMutability": "view",
      "type": "function"
    },
    {
      "constant": true,
      "inputs": [],
      "name": "no_error",
      "outputs": [
        {
          "internalType": "string",
          "name": "",
          "type": "string"
        }
      ],
      "payable": false,
      "stateMutability": "view",
      "type": "function"
    },
    {
      "constant": true,
      "inputs": [],
      "name": "startTimestamp",
      "outputs": [
        {
          "internalType": "uint256",
          "name": "",
          "type": "uint256"
        }
      ],
      "payable": false,
      "stateMutability": "view",
      "type": "function"
    },
    {
      "constant": true,
      "inputs": [
        {
          "internalType": "address",
          "name": "",
          "type": "address"
        }
      ],
      "name": "voter_addresses",
      "outputs": [
        {
          "internalType": "bool",
          "name": "",
          "type": "bool"
        }
      ],
      "payable": false,
      "stateMutability": "view",
      "type": "function"
    },
    {
      "constant": true,
      "inputs": [
        {
          "internalType": "string",
          "name": "",
          "type": "string"
        }
      ],
      "name": "voter_ids",
      "outputs": [
        {
          "internalType": "bool",
          "name": "",
          "type": "bool"
        }
      ],
      "payable": false,
      "stateMutability": "view",
      "type": "function"
    },
    {
      "constant": false,
      "inputs": [
        {
          "internalType": "string",
          "name": "_partyName",
          "type": "string"
        },
        {
          "internalType": "string",
          "name": "_partyDescription",
          "type": "string"
        },
        {
          "internalType": "string",
          "name": "_leads",
          "type": "string"
        },
        {
          "internalType": "uint256",
          "name": "_curr_timestamp",
          "type": "uint256"
        }
      ],
      "name": "addCandidate",
      "outputs": [],
      "payable": false,
      "stateMutability": "nonpayable",
      "type": "function"
    },
    {
      "constant": false,
      "inputs": [
        {
          "internalType": "uint256",
          "name": "_id",
          "type": "uint256"
        },
        {
          "internalType": "string",
          "name": "_type",
          "type": "string"
        },
        {
          "internalType": "string",
          "name": "_data",
          "type": "string"
        },
        {
          "internalType": "uint256",
          "name": "_curr_timestamp",
          "type": "uint256"
        }
      ],
      "name": "editCandidate",
      "outputs": [],
      "payable": false,
      "stateMutability": "nonpayable",
      "type": "function"
    },
    {
      "constant": false,
      "inputs": [
        {
          "internalType": "uint256",
          "name": "_id",
          "type": "uint256"
        },
        {
          "internalType": "uint256",
          "name": "_curr_timestamp",
          "type": "uint256"
        }
      ],
      "name": "deleteCandidate",
      "outputs": [],
      "payable": false,
      "stateMutability": "nonpayable",
      "type": "function"
    },
    {
      "constant": true,
      "inputs": [
        {
          "internalType": "uint256",
          "name": "_id",
          "type": "uint256"
        }
      ],
      "name": "validate_candidate_id",
      "outputs": [
        {
          "internalType": "bool",
          "name": "",
          "type": "bool"
        }
      ],
      "payable": false,
      "stateMutability": "view",
      "type": "function"
    },
    {
      "constant": false,
      "inputs": [],
      "name": "reset",
      "outputs": [],
      "payable": false,
      "stateMutability": "nonpayable",
      "type": "function"
    },
    {
      "constant": false,
      "inputs": [
        {
          "internalType": "string",
          "name": "_username",
          "type": "string"
        },
        {
          "internalType": "string",
          "name": "_password",
          "type": "string"
        },
        {
          "internalType": "uint256",
          "name": "_role",
          "type": "uint256"
        }
      ],
      "name": "addExecutor",
      "outputs": [],
      "payable": false,
      "stateMutability": "nonpayable",
      "type": "function"
    },
    {
      "constant": false,
      "inputs": [
        {
          "internalType": "string",
          "name": "_name",
          "type": "string"
        },
        {
          "internalType": "uint256",
          "name": "_role",
          "type": "uint256"
        }
      ],
      "name": "editExecutorRole",
      "outputs": [],
      "payable": false,
      "stateMutability": "nonpayable",
      "type": "function"
    },
    {
      "constant": false,
      "inputs": [
        {
          "internalType": "string",
          "name": "_name",
          "type": "string"
        }
      ],
      "name": "deleteExecutor",
      "outputs": [],
      "payable": false,
      "stateMutability": "nonpayable",
      "type": "function"
    },
    {
      "constant": true,
      "inputs": [
        {
          "internalType": "uint256",
          "name": "_type",
          "type": "uint256"
        },
        {
          "internalType": "string",
          "name": "_username",
          "type": "string"
        },
        {
          "internalType": "uint256",
          "name": "_role",
          "type": "uint256"
        }
      ],
      "name": "validate_executor_data",
      "outputs": [
        {
          "internalType": "string",
          "name": "",
          "type": "string"
        }
      ],
      "payable": false,
      "stateMutability": "view",
      "type": "function"
    },
    {
      "constant": true,
      "inputs": [],
      "name": "executorArrayLength",
      "outputs": [
        {
          "internalType": "uint256",
          "name": "count",
          "type": "uint256"
        }
      ],
      "payable": false,
      "stateMutability": "view",
      "type": "function"
    },
    {
      "constant": false,
      "inputs": [
        {
          "internalType": "string",
          "name": "_voterId",
          "type": "string"
        },
        {
          "internalType": "uint256",
          "name": "_candidateID",
          "type": "uint256"
        },
        {
          "internalType": "uint256",
          "name": "_currentTimestamp",
          "type": "uint256"
        }
      ],
      "name": "vote",
      "outputs": [],
      "payable": false,
      "stateMutability": "nonpayable",
      "type": "function"
    },
    {
      "constant": true,
      "inputs": [
        {
          "internalType": "string",
          "name": "_voterId",
          "type": "string"
        }
      ],
      "name": "validate_system_and_id",
      "outputs": [
        {
          "internalType": "uint256",
          "name": "",
          "type": "uint256"
        }
      ],
      "payable": false,
      "stateMutability": "view",
      "type": "function"
    },
    {
      "constant": true,
      "inputs": [
        {
          "internalType": "uint256",
          "name": "_curr_timestamp",
          "type": "uint256"
        }
      ],
      "name": "voting_status",
      "outputs": [
        {
          "internalType": "int256",
          "name": "",
          "type": "int256"
        }
      ],
      "payable": false,
      "stateMutability": "view",
      "type": "function"
    },
    {
      "constant": false,
      "inputs": [
        {
          "internalType": "uint256",
          "name": "_start_timestamp",
          "type": "uint256"
        },
        {
          "internalType": "uint256",
          "name": "_end_timestamp",
          "type": "uint256"
        },
        {
          "internalType": "uint256",
          "name": "_curr_timestamp",
          "type": "uint256"
        }
      ],
      "name": "changeElectionTiming",
      "outputs": [],
      "payable": false,
      "stateMutability": "nonpayable",
      "type": "function"
    },
    {
      "constant": true,
      "inputs": [
        {
          "internalType": "uint256",
          "name": "_start_timestamp",
          "type": "uint256"
        },
        {
          "internalType": "uint256",
          "name": "_end_timestamp",
          "type": "uint256"
        },
        {
          "internalType": "uint256",
          "name": "_curr_timestamp",
          "type": "uint256"
        }
      ],
      "name": "validate_timestamp",
      "outputs": [
        {
          "internalType": "string",
          "name": "",
          "type": "string"
        }
      ],
      "payable": false,
      "stateMutability": "view",
      "type": "function"
    },
    {
      "constant": true,
      "inputs": [
        {
          "internalType": "string",
          "name": "_username",
          "type": "string"
        },
        {
          "internalType": "string",
          "name": "_password",
          "type": "string"
        },
        {
          "internalType": "uint256",
          "name": "_type",
          "type": "uint256"
        }
      ],
      "name": "verifyPassword",
      "outputs": [
        {
          "internalType": "string",
          "name": "",
          "type": "string"
        }
      ],
      "payable": false,
      "stateMutability": "view",
      "type": "function"
    },
    {
      "constant": false,
      "inputs": [
        {
          "internalType": "string",
          "name": "_name",
          "type": "string"
        },
        {
          "internalType": "string",
          "name": "_new_password",
          "type": "string"
        },
        {
          "internalType": "uint256",
          "name": "_type",
          "type": "uint256"
        }
      ],
      "name": "changePassword",
      "outputs": [],
      "payable": false,
      "stateMutability": "nonpayable",
      "type": "function"
    },
    {
      "constant": true,
      "inputs": [
        {
          "internalType": "string",
          "name": "_username",
          "type": "string"
        }
      ],
      "name": "get_user_type",
      "outputs": [
        {
          "internalType": "int256",
          "name": "",
          "type": "int256"
        }
      ],
      "payable": false,
      "stateMutability": "view",
      "type": "function"
    },
    {
      "constant": true,
      "inputs": [],
      "name": "get_total_votes",
      "outputs": [
        {
          "internalType": "uint256",
          "name": "count",
          "type": "uint256"
        }
      ],
      "payable": false,
      "stateMutability": "view",
      "type": "function"
    },
    {
      "constant": true,
      "inputs": [],
      "name": "timestamp",
      "outputs": [
        {
          "internalType": "uint256",
          "name": "",
          "type": "uint256"
        }
      ],
      "payable": false,
      "stateMutability": "view",
      "type": "function"
    },
    {
      "constant": true,
      "inputs": [
        {
          "internalType": "uint256",
          "name": "_curr_timestamp",
          "type": "uint256"
        }
      ],
      "name": "validate_action",
      "outputs": [
        {
          "internalType": "bool",
          "name": "",
          "type": "bool"
        }
      ],
      "payable": false,
      "stateMutability": "view",
      "type": "function"
    }
  ],
  "bytecode": "0x60806040523480156200001157600080fd5b506040518060400160405280600581526020017f41646d696e000000000000000000000000000000000000000000000000000000815250600290805190602001906200005f92919062000637565b506040518060400160405280600a81526020017f313233343536373839300000000000000000000000000000000000000000000081525060039080519060200190620000ad92919062000637565b5065017ff5fde15960078190555065017ff6452140600881905550620001606040518060400160405280600381526020017f41415000000000000000000000000000000000000000000000000000000000008152506040518060600160405280602c815260200162004804602c91396040518060400160405280601781526020017f417276696e64204b656a726977616c0a4c6561646572310000000000000000008152506000620004ca60201b60201c565b620002146040518060400160405280600381526020017f424a5000000000000000000000000000000000000000000000000000000000008152506040518060400160405280601881526020017f4163636868652064696e2061616e652077616c652068616900000000000000008152506040518060400160405280601981526020017f504d204e6172656e647261204d6f64690a416d697420536861000000000000008152506000620004ca60201b60201c565b620002906040518060400160405280600881526020017f436f6e6772657373000000000000000000000000000000000000000000000000815250604051806060016040528060298152602001620048306029913960405180606001604052806029815260200162004859602991396000620004ca60201b60201c565b600b8060018154018082558091505090600182039060005260206000200160006040518060400160405280601781526020017f557365726e616d6520616c726561647920657869737473000000000000000000815250909190915090805190602001906200030092919062000637565b5050600b806001815401808255809150509060018203906000526020600020016000604051806060016040528060278152602001620047b360279139909190915090805190602001906200035692919062000637565b5050600b8060018154018082558091505090600182039060005260206000200160006040518060400160405280601881526020017f557365726e616d6520646f6573206e6f7420657869737473000000000000000081525090919091509080519060200190620003c892919062000637565b5050600c8060018154018082558091505090600182039060005260206000200160006040518060600160405280602781526020016200478c60279139909190915090805190602001906200041e92919062000637565b5050600c8060018154018082558091505090600182039060005260206000200160006040518060600160405280602a8152602001620047da602a9139909190915090805190602001906200047492919062000637565b50506040518060400160405280600281526020017f4e41000000000000000000000000000000000000000000000000000000000000815250600d9080519060200190620004c392919062000637565b506200076d565b60008114620004ff576000620004e682620005e360201b60201c565b9050600015158115151415620004fd5750620005dd565b505b60016000815480929190600101919050555060006002600154816200052057fe5b066001546064020190506040518060a0016040528060015481526020018681526020018581526020018481526020018281525060008060015481526020019081526020016000206000820151816000015560208201518160010190805190602001906200058f929190620006be565b506040820151816002019080519060200190620005ae929190620006be565b506060820151816003019080519060200190620005cd929190620006be565b5060808201518160040155905050505b50505050565b6000806007541480620005f857506000600854145b1562000608576001905062000632565b60075482101580156200061d57506008548211155b156200062d576000905062000632565b600190505b919050565b828054600181600116156101000203166002900490600052602060002090601f016020900481019282601f106200067a57805160ff1916838001178555620006ab565b82800160010185558215620006ab579182015b82811115620006aa5782518255916020019190600101906200068d565b5b509050620006ba919062000745565b5090565b828054600181600116156101000203166002900490600052602060002090601f016020900481019282601f106200070157805160ff191683800117855562000732565b8280016001018555821562000732579182015b828111156200073157825182559160200191906001019062000714565b5b50905062000741919062000745565b5090565b6200076a91905b80821115620007665760008160009055506001016200074c565b5090565b90565b61400f806200077d6000396000f3fe608060405234801561001057600080fd5b50600436106101da5760003560e01c8063a85adeab11610104578063c19c8bf1116100a2578063d826f88f11610071578063d826f88f146115aa578063d8755e6c146115b4578063dd4d2b5c1461166f578063e6fd48bc1461172a576101da565b8063c19c8bf11461131f578063cf4a60601461133d578063d5a33bad14611375578063d6aadfba146113b7576101da565b8063b7211fcf116100de578063b7211fcf14611123578063b80777ea146111e8578063bccb1f3e14611206578063bf4094491461124c576101da565b8063a85adeab14610f40578063a9a981a314610f5e578063b4c62ef514610f7c576101da565b806347ddc1dc1161017c5780636ab4c4c71161014b5780636ab4c4c714610c0457806375cf93a814610d605780637e29d89914610dbc578063918733b814610dda576101da565b806347ddc1dc1461080e5780635b2a32c7146108dd5780635cf27eb614610960578063647c324714610b35576101da565b80631c19b9b6116101b85780631c19b9b61461043c57806332360f3a146104e35780633477ee2e1461052557806342a85b29146106b2576101da565b80630891d358146101df5780631041a5c3146102ae5780631ab9e698146103f6575b600080fd5b6102ac600480360360608110156101f557600080fd5b810190808035906020019064010000000081111561021257600080fd5b82018360208201111561022457600080fd5b8035906020019184600183028401116401000000008311171561024657600080fd5b91908080601f016020809104026020016040519081016040528093929190818152602001838380828437600081840152601f19601f8201169050808301925050505050505091929192908035906020019092919080359060200190929190505050611748565b005b61037b600480360360608110156102c457600080fd5b8101908080359060200190929190803590602001906401000000008111156102eb57600080fd5b8201836020820111156102fd57600080fd5b8035906020019184600183028401116401000000008311171561031f57600080fd5b91908080601f016020809104026020016040519081016040528093929190818152602001838380828437600081840152601f19601f82011690508083019250505050505050919291929080359060200190929190505050611b9f565b6040518080602001828103825283818151815260200191508051906020019080838360005b838110156103bb5780820151818401526020810190506103a0565b50505050905090810190601f1680156103e85780820380516001836020036101000a031916815260200191505b509250505060405180910390f35b6104226004803603602081101561040c57600080fd5b8101908080359060200190929190505050612054565b604051808215151515815260200191505060405180910390f35b6104686004803603602081101561045257600080fd5b8101908080359060200190929190505050612086565b6040518080602001828103825283818151815260200191508051906020019080838360005b838110156104a857808201518184015260208101905061048d565b50505050905090810190601f1680156104d55780820380516001836020036101000a031916815260200191505b509250505060405180910390f35b61050f600480360360208110156104f957600080fd5b810190808035906020019092919050505061213f565b6040518082815260200191505060405180910390f35b6105516004803603602081101561053b57600080fd5b8101908080359060200190929190505050612191565b60405180868152602001806020018060200180602001858152602001848103845288818151815260200191508051906020019080838360005b838110156105a557808201518184015260208101905061058a565b50505050905090810190601f1680156105d25780820380516001836020036101000a031916815260200191505b50848103835287818151815260200191508051906020019080838360005b8381101561060b5780820151818401526020810190506105f0565b50505050905090810190601f1680156106385780820380516001836020036101000a031916815260200191505b50848103825286818151815260200191508051906020019080838360005b83811015610671578082015181840152602081019050610656565b50505050905090810190601f16801561069e5780820380516001836020036101000a031916815260200191505b509850505050505050505060405180910390f35b61080c600480360360608110156106c857600080fd5b81019080803590602001906401000000008111156106e557600080fd5b8201836020820111156106f757600080fd5b8035906020019184600183028401116401000000008311171561071957600080fd5b91908080601f016020809104026020016040519081016040528093929190818152602001838380828437600081840152601f19601f8201169050808301925050505050505091929192908035906020019064010000000081111561077c57600080fd5b82018360208201111561078e57600080fd5b803590602001918460018302840111640100000000831117156107b057600080fd5b91908080601f016020809104026020016040519081016040528093929190818152602001838380828437600081840152601f19601f8201169050808301925050505050505091929192908035906020019092919050505061238f565b005b6108c76004803603602081101561082457600080fd5b810190808035906020019064010000000081111561084157600080fd5b82018360208201111561085357600080fd5b8035906020019184600183028401116401000000008311171561087557600080fd5b91908080601f016020809104026020016040519081016040528093929190818152602001838380828437600081840152601f19601f8201169050808301925050505050505091929192905050506124bb565b6040518082815260200191505060405180910390f35b6108e5612652565b6040518080602001828103825283818151815260200191508051906020019080838360005b8381101561092557808201518184015260208101905061090a565b50505050905090810190601f1680156109525780820380516001836020036101000a031916815260200191505b509250505060405180910390f35b610aba6004803603606081101561097657600080fd5b810190808035906020019064010000000081111561099357600080fd5b8201836020820111156109a557600080fd5b803590602001918460018302840111640100000000831117156109c757600080fd5b91908080601f016020809104026020016040519081016040528093929190818152602001838380828437600081840152601f19601f82011690508083019250505050505050919291929080359060200190640100000000811115610a2a57600080fd5b820183602082011115610a3c57600080fd5b80359060200191846001830284011164010000000083111715610a5e57600080fd5b91908080601f016020809104026020016040519081016040528093929190818152602001838380828437600081840152601f19601f820116905080830192505050505050509192919290803590602001909291905050506126f0565b6040518080602001828103825283818151815260200191508051906020019080838360005b83811015610afa578082015181840152602081019050610adf565b50505050905090810190601f168015610b275780820380516001836020036101000a031916815260200191505b509250505060405180910390f35b610bee60048036036020811015610b4b57600080fd5b8101908080359060200190640100000000811115610b6857600080fd5b820183602082011115610b7a57600080fd5b80359060200191846001830284011164010000000083111715610b9c57600080fd5b91908080601f016020809104026020016040519081016040528093929190818152602001838380828437600081840152601f19601f820116905080830192505050505050509192919290505050612d5f565b6040518082815260200191505060405180910390f35b610d5e60048036036060811015610c1a57600080fd5b8101908080359060200190640100000000811115610c3757600080fd5b820183602082011115610c4957600080fd5b80359060200191846001830284011164010000000083111715610c6b57600080fd5b91908080601f016020809104026020016040519081016040528093929190818152602001838380828437600081840152601f19601f82011690508083019250505050505050919291929080359060200190640100000000811115610cce57600080fd5b820183602082011115610ce057600080fd5b80359060200191846001830284011164010000000083111715610d0257600080fd5b91908080601f016020809104026020016040519081016040528093929190818152602001838380828437600081840152601f19601f82011690508083019250505050505050919291929080359060200190929190505050612e59565b005b610da260048036036020811015610d7657600080fd5b81019080803573ffffffffffffffffffffffffffffffffffffffff169060200190929190505050612ffd565b604051808215151515815260200191505060405180910390f35b610dc461301d565b6040518082815260200191505060405180910390f35b610f3e60048036036080811015610df057600080fd5b810190808035906020019092919080359060200190640100000000811115610e1757600080fd5b820183602082011115610e2957600080fd5b80359060200191846001830284011164010000000083111715610e4b57600080fd5b91908080601f016020809104026020016040519081016040528093929190818152602001838380828437600081840152601f19601f82011690508083019250505050505050919291929080359060200190640100000000811115610eae57600080fd5b820183602082011115610ec057600080fd5b80359060200191846001830284011164010000000083111715610ee257600080fd5b91908080601f016020809104026020016040519081016040528093929190818152602001838380828437600081840152601f19601f82011690508083019250505050505050919291929080359060200190929190505050613027565b005b610f486131df565b6040518082815260200191505060405180910390f35b610f666131e5565b6040518082815260200191505060405180910390f35b61103560048036036020811015610f9257600080fd5b8101908080359060200190640100000000811115610faf57600080fd5b820183602082011115610fc157600080fd5b80359060200191846001830284011164010000000083111715610fe357600080fd5b91908080601f016020809104026020016040519081016040528093929190818152602001838380828437600081840152601f19601f8201169050808301925050505050505091929192905050506131eb565b604051808060200180602001848152602001838103835286818151815260200191508051906020019080838360005b8381101561107f578082015181840152602081019050611064565b50505050905090810190601f1680156110ac5780820380516001836020036101000a031916815260200191505b50838103825285818151815260200191508051906020019080838360005b838110156110e55780820151818401526020810190506110ca565b50505050905090810190601f1680156111125780820380516001836020036101000a031916815260200191505b509550505050505060405180910390f35b6111e66004803603604081101561113957600080fd5b810190808035906020019064010000000081111561115657600080fd5b82018360208201111561116857600080fd5b8035906020019184600183028401116401000000008311171561118a57600080fd5b91908080601f016020809104026020016040519081016040528093929190818152602001838380828437600081840152601f19601f8201169050808301925050505050505091929192908035906020019092919050505061335b565b005b6111f0613466565b6040518082815260200191505060405180910390f35b6112326004803603602081101561121c57600080fd5b810190808035906020019092919050505061346e565b604051808215151515815260200191505060405180910390f35b6113056004803603602081101561126257600080fd5b810190808035906020019064010000000081111561127f57600080fd5b82018360208201111561129157600080fd5b803590602001918460018302840111640100000000831117156112b357600080fd5b91908080601f016020809104026020016040519081016040528093929190818152602001838380828437600081840152601f19601f8201169050808301925050505050505091929192905050506134bc565b604051808215151515815260200191505060405180910390f35b6113276134f2565b6040518082815260200191505060405180910390f35b6113736004803603604081101561135357600080fd5b8101908080359060200190929190803590602001909291905050506134ff565b005b6113b56004803603606081101561138b57600080fd5b8101908080359060200190929190803590602001909291908035906020019092919050505061358d565b005b6115a8600480360360808110156113cd57600080fd5b81019080803590602001906401000000008111156113ea57600080fd5b8201836020820111156113fc57600080fd5b8035906020019184600183028401116401000000008311171561141e57600080fd5b91908080601f016020809104026020016040519081016040528093929190818152602001838380828437600081840152601f19601f8201169050808301925050505050505091929192908035906020019064010000000081111561148157600080fd5b82018360208201111561149357600080fd5b803590602001918460018302840111640100000000831117156114b557600080fd5b91908080601f016020809104026020016040519081016040528093929190818152602001838380828437600081840152601f19601f8201169050808301925050505050505091929192908035906020019064010000000081111561151857600080fd5b82018360208201111561152a57600080fd5b8035906020019184600183028401116401000000008311171561154c57600080fd5b91908080601f016020809104026020016040519081016040528093929190818152602001838380828437600081840152601f19601f820116905080830192505050505050509192919290803590602001909291905050506135ca565b005b6115b26136d1565b005b61166d600480360360208110156115ca57600080fd5b81019080803590602001906401000000008111156115e757600080fd5b8201836020820111156115f957600080fd5b8035906020019184600183028401116401000000008311171561161b57600080fd5b91908080601f016020809104026020016040519081016040528093929190818152602001838380828437600081840152601f19601f820116905080830192505050505050509192919290505050613784565b005b6116af6004803603606081101561168557600080fd5b81019080803590602001909291908035906020019092919080359060200190929190505050613935565b6040518080602001828103825283818151815260200191508051906020019080838360005b838110156116ef5780820151818401526020810190506116d4565b50505050905090810190601f16801561171c5780820380516001836020036101000a031916815260200191505b509250505060405180910390f35b611732613be7565b6040518082815260200191505060405180910390f35b6000600754148061175b57506000600854145b156117ce576040517f08c379a000000000000000000000000000000000000000000000000000000000815260040180806020018281038252601d8152602001807f456c656374696f6e7320686173206e6f7420737461727465642079657400000081525060200191505060405180910390fd5b6007548110806117df575060085481115b15611852576040517f08c379a000000000000000000000000000000000000000000000000000000000815260040180806020018281038252601e8152602001807f43757272656e742054696d657374616d70206f7574206f6620626f756e64000081525060200191505060405180910390fd5b600115156004846040518082805190602001908083835b6020831061188c5780518252602082019150602081019050602083039250611869565b6001836020036101000a038019825116818451168082178552505050505050905001915050908152602001604051809103902060009054906101000a900460ff1615151415611926576040517f08c379a0000000000000000000000000000000000000000000000000000000008152600401808060200182810382526027815260200180613f0a6027913960400191505060405180910390fd5b60008060008481526020019081526020016000206000015414156119b2576040517f08c379a00000000000000000000000000000000000000000000000000000000081526004018080602001828103825260168152602001807f43616e646964617465206973206e6f742076616c69640000000000000000000081525060200191505060405180910390fd5b60011515600560003373ffffffffffffffffffffffffffffffffffffffff1673ffffffffffffffffffffffffffffffffffffffff16815260200190815260200160002060009054906101000a900460ff1615151415611a5c576040517f08c379a000000000000000000000000000000000000000000000000000000000815260040180806020018281038252604a815260200180613f5d604a913960600191505060405180910390fd5b60016004846040518082805190602001908083835b60208310611a945780518252602082019150602081019050602083039250611a71565b6001836020036101000a038019825116818451168082178552505050505050905001915050908152602001604051809103902060006101000a81548160ff0219169083151502179055506001600560003373ffffffffffffffffffffffffffffffffffffffff1673ffffffffffffffffffffffffffffffffffffffff16815260200190815260200160002060006101000a81548160ff02191690831515021790555060066000815480929190600101919050555060008083815260200190815260200160002060040160008154809291906001019190505550817fa247b679b8fc65eb95979774186f3f4068743d7c38c37ca4b1181dcb7ca2507d60405160405180910390a2505050565b60606001841415611da95760006009846040518082805190602001908083835b60208310611be25780518252602082019150602081019050602083039250611bbf565b6001836020036101000a03801982511681845116808217855250505050505090500191505090815260200160405180910390206002015414611cd657600b600081548110611c2c57fe5b906000526020600020018054600181600116156101000203166002900480601f016020809104026020016040519081016040528092919081815260200182805460018160011615610100020316600290048015611cca5780601f10611c9f57610100808354040283529160200191611cca565b820191906000526020600020905b815481529060010190602001808311611cad57829003601f168201915b5050505050905061204d565b600082111580611ce7575060038210155b15611da457600b600181548110611cfa57fe5b906000526020600020018054600181600116156101000203166002900480601f016020809104026020016040519081016040528092919081815260200182805460018160011615610100020316600290048015611d985780601f10611d6d57610100808354040283529160200191611d98565b820191906000526020600020905b815481529060010190602001808311611d7b57829003601f168201915b5050505050905061204d565b611faf565b6002841415611fae5760006009846040518082805190602001908083835b60208310611dea5780518252602082019150602081019050602083039250611dc7565b6001836020036101000a0380198251168184511680821785525050505050509050019150509081526020016040518091039020600201541415611edf57600b600281548110611e3557fe5b906000526020600020018054600181600116156101000203166002900480601f016020809104026020016040519081016040528092919081815260200182805460018160011615610100020316600290048015611ed35780601f10611ea857610100808354040283529160200191611ed3565b820191906000526020600020905b815481529060010190602001808311611eb657829003601f168201915b5050505050905061204d565b600082111580611ef0575060038210155b15611fad57600b600181548110611f0357fe5b906000526020600020018054600181600116156101000203166002900480601f016020809104026020016040519081016040528092919081815260200182805460018160011615610100020316600290048015611fa15780601f10611f7657610100808354040283529160200191611fa1565b820191906000526020600020905b815481529060010190602001808311611f8457829003601f168201915b5050505050905061204d565b5b5b600d8054600181600116156101000203166002900480601f0160208091040260200160405190810160405280929190818152602001828054600181600116156101000203166002900480156120455780601f1061201a57610100808354040283529160200191612045565b820191906000526020600020905b81548152906001019060200180831161202857829003601f168201915b505050505090505b9392505050565b60008060008084815260200190815260200160002060000154141561207c5760009050612081565b600190505b919050565b600a818154811061209357fe5b906000526020600020016000915090508054600181600116156101000203166002900480601f0160208091040260200160405190810160405280929190818152602001828054600181600116156101000203166002900480156121375780601f1061210c57610100808354040283529160200191612137565b820191906000526020600020905b81548152906001019060200180831161211a57829003601f168201915b505050505081565b600080600754148061215357506000600854145b15612161576000905061218c565b600854821115612174576003905061218c565b600754821015612187576002905061218c565b600190505b919050565b6000602052806000526040600020600091509050806000015490806001018054600181600116156101000203166002900480601f0160208091040260200160405190810160405280929190818152602001828054600181600116156101000203166002900480156122435780601f1061221857610100808354040283529160200191612243565b820191906000526020600020905b81548152906001019060200180831161222657829003601f168201915b505050505090806002018054600181600116156101000203166002900480601f0160208091040260200160405190810160405280929190818152602001828054600181600116156101000203166002900480156122e15780601f106122b6576101008083540402835291602001916122e1565b820191906000526020600020905b8154815290600101906020018083116122c457829003601f168201915b505050505090806003018054600181600116156101000203166002900480601f01602080910402602001604051908101604052809291908181526020018280546001816001161561010002031660029004801561237f5780601f106123545761010080835404028352916020019161237f565b820191906000526020600020905b81548152906001019060200180831161236257829003601f168201915b5050505050908060040154905085565b60018114156123b05781600390805190602001906123ae929190613cb7565b505b60028114156124b55760006009846040518082805190602001908083835b602083106123f157805182526020820191506020810190506020830392506123ce565b6001836020036101000a0380198251168184511680821785525050505050509050019150509081526020016040518091039020600201541415612433576124b6565b816009846040518082805190602001908083835b6020831061246a5780518252602082019150602081019050602083039250612447565b6001836020036101000a038019825116818451168082178552505050505050905001915050908152602001604051809103902060010190805190602001906124b3929190613cb7565b505b5b505050565b60006002604051808280546001816001161561010002031660029004801561251a5780601f106124f857610100808354040283529182019161251a565b820191906000526020600020905b815481529060010190602001808311612506575b505091505060405180910390208280519060200120141561253e576001905061264d565b60006009836040518082805190602001908083835b602083106125765780518252602082019150602081019050602083039250612553565b6001836020036101000a038019825116818451168082178552505050505050905001915050908152602001604051809103902060020154146126295760016009836040518082805190602001908083835b602083106125ea57805182526020820191506020810190506020830392506125c7565b6001836020036101000a03801982511681845116808217855250505050505090500191505090815260200160405180910390206002015401905061264d565b7fffffffffffffffffffffffffffffffffffffffffffffffffffffffffffffffff90505b919050565b600d8054600181600116156101000203166002900480601f0160208091040260200160405190810160405280929190818152602001828054600181600116156101000203166002900480156126e85780601f106126bd576101008083540402835291602001916126e8565b820191906000526020600020905b8154815290600101906020018083116126cb57829003601f168201915b505050505081565b6060600182141561294857600260405180828054600181600116156101000203166002900480156127585780601f10612736576101008083540402835291820191612758565b820191906000526020600020905b815481529060010190602001808311612744575b5050915050604051809103902084805190602001201480156127e95750600360405180828054600181600116156101000203166002900480156127d25780601f106127b05761010080835404028352918201916127d2565b820191906000526020600020905b8154815290600101906020018083116127be575b505091505060405180910390208380519060200120145b1561289057600d8054600181600116156101000203166002900480601f0160208091040260200160405190810160405280929190818152602001828054600181600116156101000203166002900480156128845780601f1061285957610100808354040283529160200191612884565b820191906000526020600020905b81548152906001019060200180831161286757829003601f168201915b50505050509050612d58565b600c60008154811061289e57fe5b906000526020600020018054600181600116156101000203166002900480601f01602080910402602001604051908101604052809291908181526020018280546001816001161561010002031660029004801561293c5780601f106129115761010080835404028352916020019161293c565b820191906000526020600020905b81548152906001019060200180831161291f57829003601f168201915b50505050509050612d58565b6002821415612cba5760006009856040518082805190602001908083835b602083106129895780518252602082019150602081019050602083039250612966565b6001836020036101000a0380198251168184511680821785525050505050509050019150509081526020016040518091039020600201541415612a7e57600b6002815481106129d457fe5b906000526020600020018054600181600116156101000203166002900480601f016020809104026020016040519081016040528092919081815260200182805460018160011615610100020316600290048015612a725780601f10612a4757610100808354040283529160200191612a72565b820191906000526020600020905b815481529060010190602001808311612a5557829003601f168201915b50505050509050612d58565b6009846040518082805190602001908083835b60208310612ab45780518252602082019150602081019050602083039250612a91565b6001836020036101000a03801982511681845116808217855250505050505090500191505090815260200160405180910390206001016040518082805460018160011615610100020316600290048015612b455780601f10612b23576101008083540402835291820191612b45565b820191906000526020600020905b815481529060010190602001808311612b31575b5050915050604051809103902083805190602001201415612c0257600d8054600181600116156101000203166002900480601f016020809104026020016040519081016040528092919081815260200182805460018160011615610100020316600290048015612bf65780601f10612bcb57610100808354040283529160200191612bf6565b820191906000526020600020905b815481529060010190602001808311612bd957829003601f168201915b50505050509050612d58565b600c600181548110612c1057fe5b906000526020600020018054600181600116156101000203166002900480601f016020809104026020016040519081016040528092919081815260200182805460018160011615610100020316600290048015612cae5780601f10612c8357610100808354040283529160200191612cae565b820191906000526020600020905b815481529060010190602001808311612c9157829003601f168201915b50505050509050612d58565b600d8054600181600116156101000203166002900480601f016020809104026020016040519081016040528092919081815260200182805460018160011615610100020316600290048015612d505780601f10612d2557610100808354040283529160200191612d50565b820191906000526020600020905b815481529060010190602001808311612d3357829003601f168201915b505050505090505b9392505050565b6000600115156004836040518082805190602001908083835b60208310612d9b5780518252602082019150602081019050602083039250612d78565b6001836020036101000a038019825116818451168082178552505050505050905001915050908152602001604051809103902060009054906101000a900460ff1615151415612ded5760019050612e54565b60011515600560003373ffffffffffffffffffffffffffffffffffffffff1673ffffffffffffffffffffffffffffffffffffffff16815260200190815260200160002060009054906101000a900460ff1615151415612e4f5760029050612e54565b600090505b919050565b60006009846040518082805190602001908083835b60208310612e915780518252602082019150602081019050602083039250612e6e565b6001836020036101000a03801982511681845116808217855250505050505090500191505090815260200160405180910390206002015414612ed257612ff8565b600081111580612ee3575060038110155b15612eed57612ff8565b600a839080600181540180825580915050906001820390600052602060002001600090919290919091509080519060200190612f2a929190613cb7565b50506040518060600160405280848152602001838152602001828152506009846040518082805190602001908083835b60208310612f7d5780518252602082019150602081019050602083039250612f5a565b6001836020036101000a03801982511681845116808217855250505050505090500191505090815260200160405180910390206000820151816000019080519060200190612fcc929190613d37565b506020820151816001019080519060200190612fe9929190613d37565b50604082015181600201559050505b505050565b60056020528060005260406000206000915054906101000a900460ff1681565b6000600654905090565b60006130328261346e565b905060001515811515141561304757506131d9565b600080600087815260200190815260200160002060000154141561306b57506131d9565b6040518060400160405280600481526020017f6e616d650000000000000000000000000000000000000000000000000000000081525080519060200120848051906020012014156130e5578260008087815260200190815260200160002060010190805190602001906130df929190613cb7565b506131d7565b6040518060400160405280600481526020017f6465736300000000000000000000000000000000000000000000000000000000815250805190602001208480519060200120141561315f57826000808781526020019081526020016000206002019080519060200190613159929190613cb7565b506131d6565b6040518060400160405280600681526020017f6c6561646572000000000000000000000000000000000000000000000000000081525080519060200120848051906020012014156131d5578260008087815260200190815260200160002060030190805190602001906131d3929190613cb7565b505b5b5b505b50505050565b60085481565b60015481565b600981805160208101820180518482526020830160208501208183528095505050505050600091509050806000018054600181600116156101000203166002900480601f0160208091040260200160405190810160405280929190818152602001828054600181600116156101000203166002900480156132ad5780601f10613282576101008083540402835291602001916132ad565b820191906000526020600020905b81548152906001019060200180831161329057829003601f168201915b505050505090806001018054600181600116156101000203166002900480601f01602080910402602001604051908101604052809291908181526020018280546001816001161561010002031660029004801561334b5780601f106133205761010080835404028352916020019161334b565b820191906000526020600020905b81548152906001019060200180831161332e57829003601f168201915b5050505050908060020154905083565b60006009836040518082805190602001908083835b602083106133935780518252602082019150602081019050602083039250613370565b6001836020036101000a03801982511681845116808217855250505050505090500191505090815260200160405180910390206002015414156133d557613462565b6000811115806133e6575060038110155b156133f057613462565b806009836040518082805190602001908083835b602083106134275780518252602082019150602081019050602083039250613404565b6001836020036101000a0380198251168184511680821785525050505050509050019150509081526020016040518091039020600201819055505b5050565b600042905090565b600080600754148061348257506000600854145b1561349057600190506134b7565b60075482101580156134a457506008548211155b156134b257600090506134b7565b600190505b919050565b6004818051602081018201805184825260208301602085012081835280955050505050506000915054906101000a900460ff1681565b6000600a80549050905090565b600061350a8261346e565b905060001515811515141561351f5750613589565b6001600081548092919060019003919050555060008084815260200190815260200160002060008082016000905560018201600061355d9190613db7565b60028201600061356d9190613db7565b60038201600061357d9190613db7565b60048201600090555050505b5050565b60006135988261346e565b90506000151581151514156135ad57506135c5565b83600781905550826008819055506000600681905550505b505050565b600081146135f45760006135dd8261346e565b90506000151581151514156135f257506136cb565b505b600160008154809291906001019190505550600060026001548161361457fe5b066001546064020190506040518060a001604052806001548152602001868152602001858152602001848152602001828152506000806001548152602001908152602001600020600082015181600001556020820151816001019080519060200190613681929190613d37565b50604082015181600201908051906020019061369e929190613d37565b5060608201518160030190805190602001906136bb929190613d37565b5060808201518160040155905050505b50505050565b6000600190505b60015481116137615760008060008381526020019081526020016000206000015414613754576000808281526020019081526020016000206000808201600090556001820160006137299190613db7565b6002820160006137399190613db7565b6003820160006137499190613db7565b600482016000905550505b80806001019150506136d8565b506000600681905550600060018190555060006007819055506000600881905550565b60006009826040518082805190602001908083835b602083106137bc5780518252602082019150602081019050602083039250613799565b6001836020036101000a03801982511681845116808217855250505050505090500191505090815260200160405180910390206002015414156137fe57613932565b600061380982613bed565b9050600a80549050811061381d5750613932565b600a6001600a80549050038154811061383257fe5b90600052602060002001600a828154811061384957fe5b906000526020600020019080546001816001161561010002031660029004613872929190613dff565b50600a80548061387e57fe5b60019003818190600052602060002001600061389a9190613db7565b90556009826040518082805190602001908083835b602083106138d257805182526020820191506020810190506020830392506138af565b6001836020036101000a0380198251168184511680821785525050505050509050019150509081526020016040518091039020600080820160006139169190613db7565b6001820160006139269190613db7565b60028201600090555050505b50565b60608184108061394457508183105b15613986576040518060400160405280601e81526020017f53656c65637465642074696d652068617320616c726561647920676f6e6500008152509050613be0565b8284106139ca576040518060400160405280601c81526020017f53746172742074696d6520697320616674657220456e642054696d65000000008152509050613be0565b83821080156139da575060085482105b15613a8157600d8054600181600116156101000203166002900480601f016020809104026020016040519081016040528092919081815260200182805460018160011615610100020316600290048015613a755780601f10613a4a57610100808354040283529160200191613a75565b820191906000526020600020905b815481529060010190602001808311613a5857829003601f168201915b50505050509050613be0565b6000613a8c8361346e565b9050600015158115151415613abc57604051806060016040528060378152602001613ed360379139915050613be0565b838510613ae457604051806060016040528060278152602001613eac60279139915050613be0565b6236ee808585031015613b1257604051806060016040528060348152602001613fa760349139915050613be0565b63022551008585031115613b41576040518060600160405280602c8152602001613f31602c9139915050613be0565b600d8054600181600116156101000203166002900480601f016020809104026020016040519081016040528092919081815260200182805460018160011615610100020316600290048015613bd75780601f10613bac57610100808354040283529160200191613bd7565b820191906000526020600020905b815481529060010190602001808311613bba57829003601f168201915b50505050509150505b9392505050565b60075481565b600080600090505b600a80549050811015613ca557600a8181548110613c0f57fe5b906000526020600020016040518082805460018160011615610100020316600290048015613c745780601f10613c52576101008083540402835291820191613c74565b820191906000526020600020905b815481529060010190602001808311613c60575b5050915050604051809103902083805190602001201415613c985780915050613cb2565b8080600101915050613bf5565b506001600a805490500190505b919050565b828054600181600116156101000203166002900490600052602060002090601f016020900481019282601f10613cf857805160ff1916838001178555613d26565b82800160010185558215613d26579182015b82811115613d25578251825591602001919060010190613d0a565b5b509050613d339190613e86565b5090565b828054600181600116156101000203166002900490600052602060002090601f016020900481019282601f10613d7857805160ff1916838001178555613da6565b82800160010185558215613da6579182015b82811115613da5578251825591602001919060010190613d8a565b5b509050613db39190613e86565b5090565b50805460018160011615610100020316600290046000825580601f10613ddd5750613dfc565b601f016020900490600052602060002090810190613dfb9190613e86565b5b50565b828054600181600116156101000203166002900490600052602060002090601f016020900481019282601f10613e385780548555613e75565b82800160010185558215613e7557600052602060002091601f016020900482015b82811115613e74578254825591600101919060010190613e59565b5b509050613e829190613e86565b5090565b613ea891905b80821115613ea4576000816000905550600101613e8c565b5090565b9056fe53746172742074696d652073686f756c64206265206c657373207468616e20456e642074696d6543616e6e6f74206368616e6765207468652074696d696e672073696e63652074686520656c656374696f6e20697320676f696e67206f6e566f74657220696420616c72656164792070726573656e7420696e20746865206d617070696e6757696e646f7720666f7220766f74696e672073686f756c64206e6f742065786365656420313020686f7572734163636f756e74204164647265737320616c72656164792070726573656e7420696e20746865206d617070696e672e20506c656173652075736520616e6f74686572206163636f756e744d696e696d756d2057696e646f7720666f7220766f74696e672073686f756c642062652061746c65617374206f6e6520686f7572a265627a7a7231582088a24b27873beef671f26f73a32dfab5c6898aae824dbacafd695518560b05eb64736f6c63430005100032557365726e616d65206f722050617373776f726420666f722061646d696e2069732077726f6e67526f6c652076616c75652063616e206f6e6c7920626520566965776572206f7220456469746f72557365726e616d65206f722050617373776f726420666f72206578656375746f722069732077726f6e67416363686865206265657465207061616e6368207361616c2c206c616765207261686f204b656a726977616c436f6e67726573732068616e6420696e2068616e6420776974682074686520636f6d6d6f6e206d616e526168756c2047616e6468690a4d616e204d6f68616e2053696e67680a536f6e69612047616e646869",
  "source": "pragma solidity ^0.5.16;\r\n\r\ncontract Election {\r\n  // to store the inforamtion about the candidates\r\n  struct Candidate {\r\n    uint id;\r\n    string politicalPartyName;\r\n    string politicalPartyDescription;\r\n    string leaders;\r\n    uint voteCount;\r\n  }\r\n\r\n  // structure for executors\r\n  // username: for login username\r\n  // password: for login password\r\n  // role: viewer or editor\r\n  // role value = 1: viewer\r\n  // role value = 2: editor\r\n  struct Executor {\r\n    string username;\r\n    string password;\r\n    uint role;\r\n  }\r\n\r\n  // fetch the candidate\r\n  mapping(uint => Candidate) public candidates;\r\n  uint public candidateCount;\r\n\r\n  // election admininstrator\r\n  string private adminUsername;\r\n  string private adminPassword;\r\n\r\n  // store the mapping of voter id number who has already voted\r\n  mapping(string => bool) public voter_ids;\r\n  mapping(address => bool) public voter_addresses;\r\n  uint private totalVotes;\r\n\r\n  // to keep track of the starting and ending time of the election\r\n  // it will be initialized to zero meaning the elections time has not been set\r\n  uint256 public startTimestamp;\r\n  uint256 public endTimestamp;\r\n\r\n  // create the mapping for executors\r\n  // this is done to keep the unique usernames\r\n  mapping(string => Executor) public executors;\r\n  // array for keeping the executors\r\n  string[] public executor_names;\r\n\r\n  // error messages\r\n  string[] private executor_messages;\r\n  string[] private password_messages;\r\n  string public no_error;\r\n\r\n  constructor() public {\r\n    // default election administrator credentials\r\n    adminUsername = \"Admin\";\r\n    adminPassword = \"1234567890\";\r\n\r\n    startTimestamp = 1649099530585;\r\n    endTimestamp = 1649104200000;\r\n\r\n    addCandidate(\"AAP\", \"Acchhe beete paanch saal, lage raho Kejriwal\", \"Arvind Kejriwal\\nLeader1\", 0);\r\n    addCandidate(\"BJP\", \"Acchhe din aane wale hai\", \"PM Narendra Modi\\nAmit Sha\", 0);\r\n    addCandidate(\"Congress\", \"Congress hand in hand with the common man\", \"Rahul Gandhi\\nMan Mohan Singh\\nSonia Gandhi\", 0);\r\n\r\n    // adding error messages\r\n    // for executor\r\n    executor_messages.push(\"Username already exists\");\r\n    executor_messages.push(\"Role value can only be Viewer or Editor\");\r\n    executor_messages.push(\"Username does not exists\");\r\n    // for validating password\r\n    password_messages.push(\"Username or Password for admin is wrong\");\r\n    password_messages.push(\"Username or Password for executor is wrong\");\r\n\r\n    no_error = \"NA\";\r\n  }\r\n\r\n\r\n  /**\r\n    CANDIDATE FUNCTIONS\r\n  */\r\n  // adding the new political participant\r\n  function addCandidate(string memory _partyName, string memory _partyDescription, string memory _leads, uint256 _curr_timestamp) public {\r\n    if (_curr_timestamp != 0) {\r\n      bool is_valid_action = validate_action(_curr_timestamp);\r\n      if (is_valid_action == false)\r\n        return;\r\n    }\r\n\r\n    candidateCount++;\r\n    uint voteCount = (100 * candidateCount) + (candidateCount % 2);\r\n    candidates[candidateCount] = Candidate(candidateCount, _partyName, _partyDescription, _leads, voteCount);\r\n  }\r\n\r\n  // for editing/updating the candidate data\r\n  // type == \"name\" -> political party name\r\n  // type == \"desc\" -> political party description\r\n  // type == \"leader\" -> political party leaders\r\n  function editCandidate(uint _id, string memory _type, string memory _data, uint256 _curr_timestamp) public {\r\n    bool is_valid_action = validate_action(_curr_timestamp);\r\n\r\n    if (is_valid_action == false)\r\n      return;\r\n\r\n    if (candidates[_id].id == 0)\r\n      return;\r\n\r\n    if (keccak256(bytes(_type)) == keccak256(bytes(\"name\")))\r\n      candidates[_id].politicalPartyName = _data;\r\n\r\n    else if (keccak256(bytes(_type)) == keccak256(bytes(\"desc\")))\r\n      candidates[_id].politicalPartyDescription = _data;\r\n\r\n    else if (keccak256(bytes(_type)) == keccak256(bytes(\"leader\")))\r\n      candidates[_id].leaders = _data;\r\n  }\r\n\r\n  function deleteCandidate(uint _id, uint256 _curr_timestamp) public {\r\n    bool is_valid_action = validate_action(_curr_timestamp);\r\n\r\n    if (is_valid_action == false)\r\n      return;\r\n\r\n    candidateCount--;\r\n    delete candidates[_id];\r\n  }\r\n\r\n  // to check whether the candidate id is present in the blockchain\r\n  function validate_candidate_id(uint _id) public view returns (bool) {\r\n    if (candidates[_id].id == 0)\r\n      return false;\r\n\r\n    return true;\r\n  }\r\n\r\n  function reset() public {\r\n    for (uint _id=1; _id <= candidateCount; _id++) {\r\n      if (candidates[_id].id != 0) {\r\n        delete candidates[_id];\r\n      }\r\n    }\r\n\r\n    totalVotes = 0;\r\n    candidateCount = 0;\r\n    startTimestamp = 0;\r\n    endTimestamp = 0;\r\n  }\r\n\r\n\r\n  /**\r\n    EXECUTOR FUNCTIONS\r\n  */\r\n  // adding a new executor\r\n  function addExecutor(string memory _username, string memory _password, uint _role) public {\r\n    if (executors[_username].role != 0)\r\n      return;\r\n\r\n    if (_role <= 0 || _role >= 3)\r\n      return;\r\n\r\n    executor_names.push(_username);\r\n    executors[_username] = Executor(_username, _password, _role);\r\n  }\r\n\r\n  // editing the executor data\r\n  function editExecutorRole(string memory _name, uint _role) public {\r\n    if (executors[_name].role == 0)\r\n      return;\r\n\r\n    if (_role <= 0 || _role >= 3)\r\n      return;\r\n\r\n    executors[_name].role = _role;\r\n  }\r\n\r\n  function deleteExecutor(string memory _name) public {\r\n    if (executors[_name].role == 0)\r\n      return;\r\n\r\n    uint index = get_executor_index(_name);\r\n\r\n    if (index >= executor_names.length)\r\n      return;\r\n\r\n    executor_names[index] = executor_names[executor_names.length - 1];\r\n    executor_names.pop();\r\n    delete executors[_name];\r\n  }\r\n\r\n  // function for validating the executor data before adding or editing\r\n  function validate_executor_data(uint _type, string memory _username, uint _role) public view returns (string memory) {\r\n    // adding new executor\r\n    if (_type == 1) {\r\n      if (executors[_username].role != 0)\r\n        return executor_messages[0];\r\n\r\n      if (_role <= 0 || _role >= 3)\r\n        return executor_messages[1];\r\n    }\r\n\r\n    // editing existing executor\r\n    else if (_type == 2) {\r\n      if (executors[_username].role == 0)\r\n        return executor_messages[2];\r\n\r\n      if (_role <= 0 || _role >= 3)\r\n        return executor_messages[1];\r\n    }\r\n\r\n    return no_error;\r\n  }\r\n\r\n  // to get the total number of executors added by the admininstrator\r\n  function executorArrayLength() public view returns(uint count) {\r\n    return executor_names.length;\r\n  }\r\n\r\n  function get_executor_index(string memory _name) private view returns (uint) {\r\n    for (uint i = 0 ; i < executor_names.length; i++) {\r\n      if (keccak256(bytes(_name)) == keccak256(bytes(executor_names[i])))\r\n        return i;\r\n    }\r\n\r\n    return executor_names.length + 1;\r\n  }\r\n\r\n\r\n  /**\r\n    VOTING LOGIC\r\n  */\r\n  // voting event\r\n  event voteEvent (\r\n    uint indexed _candidateID\r\n  );\r\n\r\n  // this is the main function for the application\r\n  // this will handle the vote logic of the appliation\r\n  // voter id number and the candidate id is required as arguments to this function\r\n  function vote(string memory _voterId, uint _candidateID, uint _currentTimestamp) public {\r\n    // check whether the election time has been set or not\r\n    if (startTimestamp == 0 || endTimestamp == 0) {\r\n      revert(\"Elections has not started yet\");\r\n    }\r\n\r\n    // check whether the vote within the time frame of the elections\r\n    if (_currentTimestamp < startTimestamp || _currentTimestamp > endTimestamp) {\r\n      revert(\"Current Timestamp out of bound\");\r\n    }\r\n\r\n    // check for the voter id in the voter_ids mapping\r\n    if (voter_ids[_voterId] == true) {\r\n      revert(\"Voter id already present in the mapping\");\r\n    }\r\n\r\n    if (candidates[_candidateID].id == 0) {\r\n      revert(\"Candidate is not valid\");\r\n    }\r\n\r\n    // check for the device address in the voter_address mapping\r\n    if (voter_addresses[msg.sender] == true) {\r\n      revert(\"Account Address already present in the mapping. Please use another account\");\r\n    }\r\n\r\n    // change the data\r\n    voter_ids[_voterId] = true;\r\n    voter_addresses[msg.sender] = true;\r\n    totalVotes++;\r\n    candidates[_candidateID].voteCount++;\r\n\r\n    // trigger event\r\n    emit voteEvent(_candidateID);\r\n  }\r\n\r\n  // required argument is the voter id\r\n  // returns an integer\r\n  // return value == 1: means that the voter id is already present in the mapping\r\n  // return value == 2: means that the account address is already present in the mapping\r\n  // return value == 0: means that the user is good to go\r\n  function validate_system_and_id(string memory _voterId) public view returns (uint) {\r\n    if (voter_ids[_voterId] == true) {\r\n      return 1;\r\n    }\r\n\r\n    if (voter_addresses[msg.sender] == true) {\r\n      return 2;\r\n    }\r\n\r\n    return 0;\r\n  }\r\n\r\n  // return 0: election time has not been set yet\r\n  // return 1: election is ongoing\r\n  // return 2: election has not started yet\r\n  // return 3: election has ended\r\n  function voting_status(uint256 _curr_timestamp) public view returns (int) {\r\n    if (startTimestamp == 0 || endTimestamp == 0) {\r\n      return 0;\r\n    }\r\n\r\n    else if (_curr_timestamp > endTimestamp) {\r\n      return 3;\r\n    }\r\n\r\n    else if (_curr_timestamp < startTimestamp) {\r\n      return 2;\r\n    }\r\n\r\n    return 1;\r\n  }\r\n\r\n\r\n  /**\r\n    MISCELLANEOUS FUNCTIONS\r\n  */\r\n  // add the current timestamp and check that the start timestamp is valid\r\n  function changeElectionTiming(uint256 _start_timestamp, uint _end_timestamp, uint256 _curr_timestamp) public {\r\n    bool is_valid_action = validate_action(_curr_timestamp);\r\n\r\n    if (is_valid_action == false)\r\n      return;\r\n\r\n    startTimestamp = _start_timestamp;\r\n    endTimestamp = _end_timestamp;\r\n    totalVotes = 0;\r\n  }\r\n\r\n  function validate_timestamp(uint256 _start_timestamp, uint _end_timestamp, uint256 _curr_timestamp) public view returns (string memory) {\r\n    if (_start_timestamp < _curr_timestamp || _end_timestamp < _curr_timestamp) {\r\n      return \"Selected time has already gone\";\r\n    }\r\n\r\n    if (_start_timestamp >= _end_timestamp) {\r\n      return \"Start time is after End Time\";\r\n    }\r\n\r\n    if (_curr_timestamp < _start_timestamp && _curr_timestamp < endTimestamp)\r\n      return no_error;\r\n\r\n    bool is_valid_action = validate_action(_curr_timestamp);\r\n    if (is_valid_action == false) {\r\n      return \"Cannot change the timing since the election is going on\";\r\n    }\r\n\r\n    if (_start_timestamp >= _end_timestamp) {\r\n      return \"Start time should be less than End time\";\r\n    }\r\n\r\n    if ((_end_timestamp - _start_timestamp) < 3600000) {\r\n      return \"Minimum Window for voting should be atleast one hour\";\r\n    }\r\n\r\n    if ((_end_timestamp - _start_timestamp) > 36000000) {\r\n      return \"Window for voting should not exceed 10 hours\";\r\n    }\r\n\r\n    return no_error;\r\n  }\r\n\r\n  // verifying the username and password for the administrator or the executors\r\n  function verifyPassword(string memory _username, string memory _password, uint _type) public view returns (string memory) {\r\n    // for admin\r\n    if (_type == 1) {\r\n      if (\r\n        keccak256(bytes(_username)) == keccak256(bytes(adminUsername)) &&\r\n        keccak256(bytes(_password)) == keccak256(bytes(adminPassword))\r\n      )\r\n        return no_error;\r\n\r\n      return password_messages[0];\r\n    }\r\n\r\n    // for executor\r\n    else if (_type == 2) {\r\n      if (executors[_username].role == 0)\r\n        return executor_messages[2];\r\n\r\n      if (keccak256(bytes(_password)) == keccak256(bytes(executors[_username].password)))\r\n        return no_error;\r\n\r\n      return password_messages[1];\r\n    }\r\n\r\n    return no_error;\r\n  }\r\n\r\n  // change password\r\n  // _type == 1 -> administrator\r\n  // _type == 2 -> executor\r\n  function changePassword(string memory _name, string memory _new_password, uint _type) public {\r\n    // for administrator\r\n    if (_type == 1) {\r\n      adminPassword = _new_password;\r\n    }\r\n\r\n    // for the executor\r\n    if (_type == 2) {\r\n      if (executors[_name].role == 0)\r\n        return;\r\n\r\n      executors[_name].password = _new_password;\r\n    }\r\n  }\r\n\r\n  // function for getting type of user for logging in\r\n  function get_user_type(string memory _username) public view returns (int) {\r\n    // for admin\r\n    if (keccak256(bytes(_username)) == keccak256(bytes(adminUsername)))\r\n      return 1;\r\n\r\n    // for executor\r\n    if (executors[_username].role != 0) {\r\n      return int(executors[_username].role + 1);\r\n    }\r\n\r\n    return -1;\r\n  }\r\n\r\n  // returns the total number of votes casted since the total_votes variable is private \r\n  function get_total_votes() public view returns (uint count) {\r\n    return totalVotes;\r\n  }\r\n\r\n  // this function will return the current timestamp\r\n  function timestamp() public view returns (uint256) {\r\n    return block.timestamp;\r\n  }\r\n\r\n  function validate_action(uint256 _curr_timestamp) public view returns (bool) {\r\n    if (startTimestamp == 0 || endTimestamp == 0)\r\n      return true;\r\n\r\n    if (_curr_timestamp >= startTimestamp && _curr_timestamp <= endTimestamp)\r\n      return false;\r\n\r\n    return true;\r\n  }\r\n}",
  "compiler": {
    "name": "solc",
    "version": "0.5.16+commit.9c3226ce.Emscripten.clang"
  },
  "schemaVersion": "3.4.4",
  "updatedAt": "2022-04-04T19:14:04.762Z",
  "networkType": "ethereum"
}