{
  "contractName": "Election",
  "abi": [
    {
      "inputs": [],
      "payable": false,
      "stateMutability": "nonpayable",
      "type": "constructor"
    },
    {
      "constant": true,
      "inputs": [],
      "name": "candidateCount",
      "outputs": [
        {
          "internalType": "uint256",
          "name": "",
          "type": "uint256"
        }
      ],
      "payable": false,
      "stateMutability": "view",
      "type": "function"
    },
    {
      "constant": true,
      "inputs": [
        {
          "internalType": "uint256",
          "name": "",
          "type": "uint256"
        }
      ],
      "name": "candidates",
      "outputs": [
        {
          "internalType": "uint256",
          "name": "id",
          "type": "uint256"
        },
        {
          "internalType": "string",
          "name": "politicalPartyName",
          "type": "string"
        },
        {
          "internalType": "string",
          "name": "politicalPartyDescription",
          "type": "string"
        },
        {
          "internalType": "string",
          "name": "leaders",
          "type": "string"
        },
        {
          "internalType": "uint256",
          "name": "voteCount",
          "type": "uint256"
        }
      ],
      "payable": false,
      "stateMutability": "view",
      "type": "function"
    },
    {
      "constant": true,
      "inputs": [],
      "name": "endTimestamp",
      "outputs": [
        {
          "internalType": "uint256",
          "name": "",
          "type": "uint256"
        }
      ],
      "payable": false,
      "stateMutability": "view",
      "type": "function"
    },
    {
      "constant": true,
      "inputs": [
        {
          "internalType": "uint256",
          "name": "",
          "type": "uint256"
        }
      ],
      "name": "executor_names",
      "outputs": [
        {
          "internalType": "string",
          "name": "",
          "type": "string"
        }
      ],
      "payable": false,
      "stateMutability": "view",
      "type": "function"
    },
    {
      "constant": true,
      "inputs": [
        {
          "internalType": "string",
          "name": "",
          "type": "string"
        }
      ],
      "name": "executors",
      "outputs": [
        {
          "internalType": "string",
          "name": "username",
          "type": "string"
        },
        {
          "internalType": "string",
          "name": "password",
          "type": "string"
        },
        {
          "internalType": "uint256",
          "name": "role",
          "type": "uint256"
        }
      ],
      "payable": false,
      "stateMutability": "view",
      "type": "function"
    },
    {
      "constant": true,
      "inputs": [],
      "name": "startTimestamp",
      "outputs": [
        {
          "internalType": "uint256",
          "name": "",
          "type": "uint256"
        }
      ],
      "payable": false,
      "stateMutability": "view",
      "type": "function"
    },
    {
      "constant": true,
      "inputs": [],
      "name": "totalVotes",
      "outputs": [
        {
          "internalType": "uint256",
          "name": "",
          "type": "uint256"
        }
      ],
      "payable": false,
      "stateMutability": "view",
      "type": "function"
    },
    {
      "constant": true,
      "inputs": [
        {
          "internalType": "address",
          "name": "",
          "type": "address"
        }
      ],
      "name": "voter_addresses",
      "outputs": [
        {
          "internalType": "bool",
          "name": "",
          "type": "bool"
        }
      ],
      "payable": false,
      "stateMutability": "view",
      "type": "function"
    },
    {
      "constant": true,
      "inputs": [
        {
          "internalType": "string",
          "name": "",
          "type": "string"
        }
      ],
      "name": "voter_ids",
      "outputs": [
        {
          "internalType": "bool",
          "name": "",
          "type": "bool"
        }
      ],
      "payable": false,
      "stateMutability": "view",
      "type": "function"
    },
    {
      "constant": true,
      "inputs": [],
      "name": "timestamp",
      "outputs": [
        {
          "internalType": "uint256",
          "name": "",
          "type": "uint256"
        }
      ],
      "payable": false,
      "stateMutability": "view",
      "type": "function"
    },
    {
      "constant": false,
      "inputs": [
        {
          "internalType": "string",
          "name": "_partyName",
          "type": "string"
        },
        {
          "internalType": "string",
          "name": "_partyDescription",
          "type": "string"
        },
        {
          "internalType": "string",
          "name": "_leads",
          "type": "string"
        }
      ],
      "name": "addCandidate",
      "outputs": [
        {
          "internalType": "bool",
          "name": "",
          "type": "bool"
        }
      ],
      "payable": false,
      "stateMutability": "nonpayable",
      "type": "function"
    },
    {
      "constant": false,
      "inputs": [
        {
          "internalType": "uint256",
          "name": "_id",
          "type": "uint256"
        },
        {
          "internalType": "string",
          "name": "_type",
          "type": "string"
        },
        {
          "internalType": "string",
          "name": "_data",
          "type": "string"
        }
      ],
      "name": "editCandidate",
      "outputs": [],
      "payable": false,
      "stateMutability": "nonpayable",
      "type": "function"
    },
    {
      "constant": false,
      "inputs": [
        {
          "internalType": "string",
          "name": "_voterId",
          "type": "string"
        },
        {
          "internalType": "uint256",
          "name": "_candidateID",
          "type": "uint256"
        }
      ],
      "name": "vote",
      "outputs": [
        {
          "internalType": "string",
          "name": "",
          "type": "string"
        }
      ],
      "payable": false,
      "stateMutability": "nonpayable",
      "type": "function"
    },
    {
      "constant": true,
      "inputs": [
        {
          "internalType": "string",
          "name": "_username",
          "type": "string"
        },
        {
          "internalType": "string",
          "name": "_password",
          "type": "string"
        }
      ],
      "name": "verifyPassword",
      "outputs": [
        {
          "internalType": "bool",
          "name": "",
          "type": "bool"
        }
      ],
      "payable": false,
      "stateMutability": "view",
      "type": "function"
    },
    {
      "constant": false,
      "inputs": [
        {
          "internalType": "uint256",
          "name": "_timestamp",
          "type": "uint256"
        }
      ],
      "name": "changeStartDate",
      "outputs": [],
      "payable": false,
      "stateMutability": "nonpayable",
      "type": "function"
    },
    {
      "constant": false,
      "inputs": [
        {
          "internalType": "uint256",
          "name": "_timestamp",
          "type": "uint256"
        }
      ],
      "name": "changeEndDate",
      "outputs": [],
      "payable": false,
      "stateMutability": "nonpayable",
      "type": "function"
    },
    {
      "constant": false,
      "inputs": [
        {
          "internalType": "string",
          "name": "_name",
          "type": "string"
        },
        {
          "internalType": "string",
          "name": "_new_password",
          "type": "string"
        },
        {
          "internalType": "uint256",
          "name": "_type",
          "type": "uint256"
        }
      ],
      "name": "changePassword",
      "outputs": [
        {
          "internalType": "bool",
          "name": "",
          "type": "bool"
        }
      ],
      "payable": false,
      "stateMutability": "nonpayable",
      "type": "function"
    },
    {
      "constant": false,
      "inputs": [
        {
          "internalType": "string",
          "name": "_username",
          "type": "string"
        },
        {
          "internalType": "string",
          "name": "_password",
          "type": "string"
        },
        {
          "internalType": "uint256",
          "name": "_role",
          "type": "uint256"
        }
      ],
      "name": "addExecutor",
      "outputs": [
        {
          "internalType": "bool",
          "name": "",
          "type": "bool"
        }
      ],
      "payable": false,
      "stateMutability": "nonpayable",
      "type": "function"
    },
    {
      "constant": false,
      "inputs": [
        {
          "internalType": "string",
          "name": "_name",
          "type": "string"
        },
        {
          "internalType": "uint256",
          "name": "_role",
          "type": "uint256"
        }
      ],
      "name": "editExecutorRole",
      "outputs": [
        {
          "internalType": "bool",
          "name": "",
          "type": "bool"
        }
      ],
      "payable": false,
      "stateMutability": "nonpayable",
      "type": "function"
    },
    {
      "constant": true,
      "inputs": [],
      "name": "executorArrayLength",
      "outputs": [
        {
          "internalType": "uint256",
          "name": "count",
          "type": "uint256"
        }
      ],
      "payable": false,
      "stateMutability": "view",
      "type": "function"
    }
  ],
  "bytecode": "0x60806040523480156200001157600080fd5b506040518060400160405280600581526020017f41646d696e000000000000000000000000000000000000000000000000000000815250600290805190602001906200005f9291906200035a565b506040518060400160405280600a81526020017f313233343536373839300000000000000000000000000000000000000000000081525060039080519060200190620000ad9291906200035a565b5060006007819055506000600881905550620001546040518060400160405280600381526020017f41415000000000000000000000000000000000000000000000000000000000008152506040518060600160405280602c81526020016200268f602c91396040518060400160405280601781526020017f417276696e64204b656a726977616c0a4c6561646572310000000000000000008152506200028960201b60201c565b50620002076040518060400160405280600381526020017f424a5000000000000000000000000000000000000000000000000000000000008152506040518060400160405280601881526020017f4163636868652064696e2061616e652077616c652068616900000000000000008152506040518060400160405280601981526020017f504d204e6172656e647261204d6f64690a416d697420536861000000000000008152506200028960201b60201c565b50620002826040518060400160405280600881526020017f436f6e6772657373000000000000000000000000000000000000000000000000815250604051806060016040528060298152602001620026bb60299139604051806060016040528060298152602001620026e4602991396200028960201b60201c565b5062000490565b60006001600081548092919060010191905055506040518060a0016040528060015481526020018581526020018481526020018381526020016000815250600080600154815260200190815260200160002060008201518160000155602082015181600101908051906020019062000303929190620003e1565b50604082015181600201908051906020019062000322929190620003e1565b50606082015181600301908051906020019062000341929190620003e1565b5060808201518160040155905050600190509392505050565b828054600181600116156101000203166002900490600052602060002090601f016020900481019282601f106200039d57805160ff1916838001178555620003ce565b82800160010185558215620003ce579182015b82811115620003cd578251825591602001919060010190620003b0565b5b509050620003dd919062000468565b5090565b828054600181600116156101000203166002900490600052602060002090601f016020900481019282601f106200042457805160ff191683800117855562000455565b8280016001018555821562000455579182015b828111156200045457825182559160200191906001019062000437565b5b50905062000464919062000468565b5090565b6200048d91905b80821115620004895760008160009055506001016200046f565b5090565b90565b6121ef80620004a06000396000f3fe608060405234801561001057600080fd5b506004361061012b5760003560e01c8063a6385803116100ad578063b7211fcf11610071578063b7211fcf14610f0a578063b80777ea14610fe7578063bf40944914611005578063c19c8bf1146110d8578063e6fd48bc146110f65761012b565b8063a6385803146109e8578063a85adeab14610b26578063a9a981a314610b44578063ad71f8dc14610b62578063b4c62ef514610d635761012b565b80633477ee2e116100f45780633477ee2e146104e957806342a85b291461067657806345737b1e146107ea5780636ab4c4c71461081857806375cf93a81461098c5761012b565b8062739f2a146101305780630c3573e81461015e5780630d15fd77146102ba5780631c19b9b6146102d85780632fe6269f1461037f575b600080fd5b61015c6004803603602081101561014657600080fd5b8101908080359060200190929190505050611114565b005b6102b86004803603606081101561017457600080fd5b81019080803590602001909291908035906020019064010000000081111561019b57600080fd5b8201836020820111156101ad57600080fd5b803590602001918460018302840111640100000000831117156101cf57600080fd5b91908080601f016020809104026020016040519081016040528093929190818152602001838380828437600081840152601f19601f8201169050808301925050505050505091929192908035906020019064010000000081111561023257600080fd5b82018360208201111561024457600080fd5b8035906020019184600183028401116401000000008311171561026657600080fd5b91908080601f016020809104026020016040519081016040528093929190818152602001838380828437600081840152601f19601f82011690508083019250505050505050919291929050505061111e565b005b6102c26112b3565b6040518082815260200191505060405180910390f35b610304600480360360208110156102ee57600080fd5b81019080803590602001909291905050506112b9565b6040518080602001828103825283818151815260200191508051906020019080838360005b83811015610344578082015181840152602081019050610329565b50505050905090810190601f1680156103715780820380516001836020036101000a031916815260200191505b509250505060405180910390f35b6104cf6004803603604081101561039557600080fd5b81019080803590602001906401000000008111156103b257600080fd5b8201836020820111156103c457600080fd5b803590602001918460018302840111640100000000831117156103e657600080fd5b91908080601f016020809104026020016040519081016040528093929190818152602001838380828437600081840152601f19601f8201169050808301925050505050505091929192908035906020019064010000000081111561044957600080fd5b82018360208201111561045b57600080fd5b8035906020019184600183028401116401000000008311171561047d57600080fd5b91908080601f016020809104026020016040519081016040528093929190818152602001838380828437600081840152601f19601f820116905080830192505050505050509192919290505050611372565b604051808215151515815260200191505060405180910390f35b610515600480360360208110156104ff57600080fd5b810190808035906020019092919050505061147b565b60405180868152602001806020018060200180602001858152602001848103845288818151815260200191508051906020019080838360005b8381101561056957808201518184015260208101905061054e565b50505050905090810190601f1680156105965780820380516001836020036101000a031916815260200191505b50848103835287818151815260200191508051906020019080838360005b838110156105cf5780820151818401526020810190506105b4565b50505050905090810190601f1680156105fc5780820380516001836020036101000a031916815260200191505b50848103825286818151815260200191508051906020019080838360005b8381101561063557808201518184015260208101905061061a565b50505050905090810190601f1680156106625780820380516001836020036101000a031916815260200191505b509850505050505050505060405180910390f35b6107d06004803603606081101561068c57600080fd5b81019080803590602001906401000000008111156106a957600080fd5b8201836020820111156106bb57600080fd5b803590602001918460018302840111640100000000831117156106dd57600080fd5b91908080601f016020809104026020016040519081016040528093929190818152602001838380828437600081840152601f19601f8201169050808301925050505050505091929192908035906020019064010000000081111561074057600080fd5b82018360208201111561075257600080fd5b8035906020019184600183028401116401000000008311171561077457600080fd5b91908080601f016020809104026020016040519081016040528093929190818152602001838380828437600081840152601f19601f82011690508083019250505050505050919291929080359060200190929190505050611679565b604051808215151515815260200191505060405180910390f35b6108166004803603602081101561080057600080fd5b8101908080359060200190929190505050611842565b005b6109726004803603606081101561082e57600080fd5b810190808035906020019064010000000081111561084b57600080fd5b82018360208201111561085d57600080fd5b8035906020019184600183028401116401000000008311171561087f57600080fd5b91908080601f016020809104026020016040519081016040528093929190818152602001838380828437600081840152601f19601f820116905080830192505050505050509192919290803590602001906401000000008111156108e257600080fd5b8201836020820111156108f457600080fd5b8035906020019184600183028401116401000000008311171561091657600080fd5b91908080601f016020809104026020016040519081016040528093929190818152602001838380828437600081840152601f19601f8201169050808301925050505050505091929192908035906020019092919050505061184c565b604051808215151515815260200191505060405180910390f35b6109ce600480360360208110156109a257600080fd5b81019080803573ffffffffffffffffffffffffffffffffffffffff1690602001909291905050506119ff565b604051808215151515815260200191505060405180910390f35b610aab600480360360408110156109fe57600080fd5b8101908080359060200190640100000000811115610a1b57600080fd5b820183602082011115610a2d57600080fd5b80359060200191846001830284011164010000000083111715610a4f57600080fd5b91908080601f016020809104026020016040519081016040528093929190818152602001838380828437600081840152601f19601f82011690508083019250505050505050919291929080359060200190929190505050611a1f565b6040518080602001828103825283818151815260200191508051906020019080838360005b83811015610aeb578082015181840152602081019050610ad0565b50505050905090810190601f168015610b185780820380516001836020036101000a031916815260200191505b509250505060405180910390f35b610b2e611caa565b6040518082815260200191505060405180910390f35b610b4c611cb0565b6040518082815260200191505060405180910390f35b610d4960048036036060811015610b7857600080fd5b8101908080359060200190640100000000811115610b9557600080fd5b820183602082011115610ba757600080fd5b80359060200191846001830284011164010000000083111715610bc957600080fd5b91908080601f016020809104026020016040519081016040528093929190818152602001838380828437600081840152601f19601f82011690508083019250505050505050919291929080359060200190640100000000811115610c2c57600080fd5b820183602082011115610c3e57600080fd5b80359060200191846001830284011164010000000083111715610c6057600080fd5b91908080601f016020809104026020016040519081016040528093929190818152602001838380828437600081840152601f19601f82011690508083019250505050505050919291929080359060200190640100000000811115610cc357600080fd5b820183602082011115610cd557600080fd5b80359060200191846001830284011164010000000083111715610cf757600080fd5b91908080601f016020809104026020016040519081016040528093929190818152602001838380828437600081840152601f19601f820116905080830192505050505050509192919290505050611cb6565b604051808215151515815260200191505060405180910390f35b610e1c60048036036020811015610d7957600080fd5b8101908080359060200190640100000000811115610d9657600080fd5b820183602082011115610da857600080fd5b80359060200191846001830284011164010000000083111715610dca57600080fd5b91908080601f016020809104026020016040519081016040528093929190818152602001838380828437600081840152601f19601f820116905080830192505050505050509192919290505050611d81565b604051808060200180602001848152602001838103835286818151815260200191508051906020019080838360005b83811015610e66578082015181840152602081019050610e4b565b50505050905090810190601f168015610e935780820380516001836020036101000a031916815260200191505b50838103825285818151815260200191508051906020019080838360005b83811015610ecc578082015181840152602081019050610eb1565b50505050905090810190601f168015610ef95780820380516001836020036101000a031916815260200191505b509550505050505060405180910390f35b610fcd60048036036040811015610f2057600080fd5b8101908080359060200190640100000000811115610f3d57600080fd5b820183602082011115610f4f57600080fd5b80359060200191846001830284011164010000000083111715610f7157600080fd5b91908080601f016020809104026020016040519081016040528093929190818152602001838380828437600081840152601f19601f82011690508083019250505050505050919291929080359060200190929190505050611ef1565b604051808215151515815260200191505060405180910390f35b610fef61200b565b6040518082815260200191505060405180910390f35b6110be6004803603602081101561101b57600080fd5b810190808035906020019064010000000081111561103857600080fd5b82018360208201111561104a57600080fd5b8035906020019184600183028401116401000000008311171561106c57600080fd5b91908080601f016020809104026020016040519081016040528093929190818152602001838380828437600081840152601f19601f820116905080830192505050505050509192919290505050612013565b604051808215151515815260200191505060405180910390f35b6110e0612049565b6040518082815260200191505060405180910390f35b6110fe612056565b6040518082815260200191505060405180910390f35b8060078190555050565b6000806000858152602001908152602001600020600001541415611141576112ae565b6040518060400160405280600481526020017f6e616d650000000000000000000000000000000000000000000000000000000081525080519060200120828051906020012014156111bb578060008085815260200190815260200160002060010190805190602001906111b592919061205c565b506112ad565b6040518060400160405280600481526020017f646573630000000000000000000000000000000000000000000000000000000081525080519060200120828051906020012014156112355780600080858152602001908152602001600020600201908051906020019061122f92919061205c565b506112ac565b6040518060400160405280600681526020017f6c6561646572000000000000000000000000000000000000000000000000000081525080519060200120828051906020012014156112ab578060008085815260200190815260200160002060030190805190602001906112a992919061205c565b505b5b5b5b505050565b60065481565b600a81815481106112c657fe5b906000526020600020016000915090508054600181600116156101000203166002900480601f01602080910402602001604051908101604052809291908181526020018280546001816001161561010002031660029004801561136a5780601f1061133f5761010080835404028352916020019161136a565b820191906000526020600020905b81548152906001019060200180831161134d57829003601f168201915b505050505081565b6000600260405180828054600181600116156101000203166002900480156113d15780601f106113af5761010080835404028352918201916113d1565b820191906000526020600020905b8154815290600101906020018083116113bd575b50509150506040518091039020838051906020012014801561146257506003604051808280546001816001161561010002031660029004801561144b5780601f1061142957610100808354040283529182019161144b565b820191906000526020600020905b815481529060010190602001808311611437575b505091505060405180910390208280519060200120145b156114705760019050611475565b600090505b92915050565b6000602052806000526040600020600091509050806000015490806001018054600181600116156101000203166002900480601f01602080910402602001604051908101604052809291908181526020018280546001816001161561010002031660029004801561152d5780601f106115025761010080835404028352916020019161152d565b820191906000526020600020905b81548152906001019060200180831161151057829003601f168201915b505050505090806002018054600181600116156101000203166002900480601f0160208091040260200160405190810160405280929190818152602001828054600181600116156101000203166002900480156115cb5780601f106115a0576101008083540402835291602001916115cb565b820191906000526020600020905b8154815290600101906020018083116115ae57829003601f168201915b505050505090806003018054600181600116156101000203166002900480601f0160208091040260200160405190810160405280929190818152602001828054600181600116156101000203166002900480156116695780601f1061163e57610100808354040283529160200191611669565b820191906000526020600020905b81548152906001019060200180831161164c57829003601f168201915b5050505050908060040154905085565b6000600182141561172557600260405180828054600181600116156101000203166002900480156116e15780601f106116bf5761010080835404028352918201916116e1565b820191906000526020600020905b8154815290600101906020018083116116cd575b505091505060405180910390208480519060200120141561171c57826003908051906020019061171292919061205c565b506001905061183b565b6000905061183b565b60028214156118365760006009856040518082805190602001908083835b602083106117665780518252602082019150602081019050602083039250611743565b6001836020036101000a03801982511681845116808217855250505050505090500191505090815260200160405180910390206002015414156117ac576000905061183b565b826009856040518082805190602001908083835b602083106117e357805182526020820191506020810190506020830392506117c0565b6001836020036101000a0380198251168184511680821785525050505050509050019150509081526020016040518091039020600101908051906020019061182c92919061205c565b506001905061183b565b600090505b9392505050565b8060088190555050565b6000806009856040518082805190602001908083835b602083106118855780518252602082019150602081019050602083039250611862565b6001836020036101000a038019825116818451168082178552505050505050905001915050908152602001604051809103902060020154146118ca57600090506119f8565b6000821115806118db575060038210155b156118e957600090506119f8565b600a84908060018154018082558091505090600182039060005260206000200160009091929091909150908051906020019061192692919061205c565b50506040518060600160405280858152602001848152602001838152506009856040518082805190602001908083835b602083106119795780518252602082019150602081019050602083039250611956565b6001836020036101000a038019825116818451168082178552505050505050905001915050908152602001604051809103902060008201518160000190805190602001906119c89291906120dc565b5060208201518160010190805190602001906119e59291906120dc565b5060408201518160020155905050600190505b9392505050565b60056020528060005260406000206000915054906101000a900460ff1681565b6060600115156004846040518082805190602001908083835b60208310611a5b5780518252602082019150602081019050602083039250611a38565b6001836020036101000a038019825116818451168082178552505050505050905001915050908152602001604051809103902060009054906101000a900460ff1615151415611ae1576040518060400160405280602081526020017f416c726561647920766f7465642077697468207468697320766f7465722069648152509050611ca4565b60011515600560003373ffffffffffffffffffffffffffffffffffffffff1673ffffffffffffffffffffffffffffffffffffffff16815260200190815260200160002060009054906101000a900460ff1615151415611b5a57604051806060016040528060398152602001612182603991399050611ca4565b60016004846040518082805190602001908083835b60208310611b925780518252602082019150602081019050602083039250611b6f565b6001836020036101000a038019825116818451168082178552505050505050905001915050908152602001604051809103902060006101000a81548160ff0219169083151502179055506001600560003373ffffffffffffffffffffffffffffffffffffffff1673ffffffffffffffffffffffffffffffffffffffff16815260200190815260200160002060006101000a81548160ff021916908315150217905550600660008154809291906001019190505550600080838152602001908152602001600020600401600081548092919060010191905055506040518060400160405280601281526020017f5375636365737366756c6c7920766f746564000000000000000000000000000081525090505b92915050565b60085481565b60015481565b60006001600081548092919060010191905055506040518060a00160405280600154815260200185815260200184815260200183815260200160008152506000806001548152602001908152602001600020600082015181600001556020820151816001019080519060200190611d2e9291906120dc565b506040820151816002019080519060200190611d4b9291906120dc565b506060820151816003019080519060200190611d689291906120dc565b5060808201518160040155905050600190509392505050565b600981805160208101820180518482526020830160208501208183528095505050505050600091509050806000018054600181600116156101000203166002900480601f016020809104026020016040519081016040528092919081815260200182805460018160011615610100020316600290048015611e435780601f10611e1857610100808354040283529160200191611e43565b820191906000526020600020905b815481529060010190602001808311611e2657829003601f168201915b505050505090806001018054600181600116156101000203166002900480601f016020809104026020016040519081016040528092919081815260200182805460018160011615610100020316600290048015611ee15780601f10611eb657610100808354040283529160200191611ee1565b820191906000526020600020905b815481529060010190602001808311611ec457829003601f168201915b5050505050908060020154905083565b6000806009846040518082805190602001908083835b60208310611f2a5780518252602082019150602081019050602083039250611f07565b6001836020036101000a0380198251168184511680821785525050505050509050019150509081526020016040518091039020600201541415611f705760009050612005565b600082111580611f81575060038210155b15611f8f5760009050612005565b816009846040518082805190602001908083835b60208310611fc65780518252602082019150602081019050602083039250611fa3565b6001836020036101000a038019825116818451168082178552505050505050905001915050908152602001604051809103902060020181905550600190505b92915050565b600042905090565b6004818051602081018201805184825260208301602085012081835280955050505050506000915054906101000a900460ff1681565b6000600a80549050905090565b60075481565b828054600181600116156101000203166002900490600052602060002090601f016020900481019282601f1061209d57805160ff19168380011785556120cb565b828001600101855582156120cb579182015b828111156120ca5782518255916020019190600101906120af565b5b5090506120d8919061215c565b5090565b828054600181600116156101000203166002900490600052602060002090601f016020900481019282601f1061211d57805160ff191683800117855561214b565b8280016001018555821561214b579182015b8281111561214a57825182559160200191906001019061212f565b5b509050612158919061215c565b5090565b61217e91905b8082111561217a576000816000905550600101612162565b5090565b9056fe446576696365206164647265737320697320616c7265616479206d61707065642e20547279207769746820616e6f7468657220646576696365a265627a7a7231582083a4465a921c8c53a16fa8afcfd05cb2506388236780e989192b753b3797615f64736f6c63430005100032416363686865206265657465207061616e6368207361616c2c206c616765207261686f204b656a726977616c436f6e67726573732068616e6420696e2068616e6420776974682074686520636f6d6d6f6e206d616e526168756c2047616e6468690a4d616e204d6f68616e2053696e67680a536f6e69612047616e646869",
  "source": "pragma solidity ^0.5.16;\r\n\r\ncontract Election {\r\n  // to store the inforamtion about the candidates\r\n  struct Candidate {\r\n    uint id;\r\n    string politicalPartyName;\r\n    string politicalPartyDescription;\r\n    string leaders;\r\n    uint voteCount;\r\n  }\r\n\r\n  // structure for executors\r\n  // username: for login username\r\n  // password: for login password\r\n  // role: viewer or editor\r\n  // role value = 1: viewer\r\n  // role value = 2: editor\r\n  struct Executor {\r\n    string username;\r\n    string password;\r\n    uint role;\r\n  }\r\n\r\n  // fetch the candidate\r\n  mapping(uint => Candidate) public candidates;\r\n  uint public candidateCount;\r\n\r\n  // election admininstrator\r\n  string private adminUsername;\r\n  string private adminPassword;\r\n\r\n  // store the mapping of voter id number who has already voted\r\n  mapping(string => bool) public voter_ids;\r\n  mapping(address => bool) public voter_addresses;\r\n  uint public totalVotes;\r\n\r\n  // to keep track of the starting and ending time of the election\r\n  // it will be initialized to zero meaning the elections time has not been set\r\n  uint256 public startTimestamp;\r\n  uint256 public endTimestamp;\r\n\r\n  // create the mapping for executors\r\n  // this is done to keep the unique usernames\r\n  mapping(string => Executor) public executors;\r\n  // array for keeping the executors\r\n  string[] public executor_names;\r\n\r\n\r\n  constructor() public {\r\n    // default election administrator credentials\r\n    adminUsername = \"Admin\";\r\n    adminPassword = \"1234567890\";\r\n\r\n    startTimestamp = 0;\r\n    endTimestamp = 0;\r\n\r\n    addCandidate(\"AAP\", \"Acchhe beete paanch saal, lage raho Kejriwal\", \"Arvind Kejriwal\\nLeader1\");\r\n    addCandidate(\"BJP\", \"Acchhe din aane wale hai\", \"PM Narendra Modi\\nAmit Sha\");\r\n    addCandidate(\"Congress\", \"Congress hand in hand with the common man\", \"Rahul Gandhi\\nMan Mohan Singh\\nSonia Gandhi\");\r\n  }\r\n\r\n  // this function will return the current timestamp\r\n  function timestamp() public view returns (uint256) {\r\n    return block.timestamp;\r\n  }\r\n\r\n  // adding the new political participant\r\n  function addCandidate(string memory _partyName, string memory _partyDescription, string memory _leads) public returns (bool) {\r\n    candidateCount++;\r\n    candidates[candidateCount] = Candidate(candidateCount, _partyName, _partyDescription, _leads, 0);\r\n    return true;\r\n  }\r\n\r\n  // for editing/updating the candidate data\r\n  // type == \"name\" -> political party name\r\n  // type == \"desc\" -> political party description\r\n  // type == \"leader\" -> political party leaders\r\n  function editCandidate(uint _id, string memory _type, string memory _data) public {\r\n    if (candidates[_id].id == 0)\r\n      return;\r\n\r\n    if (keccak256(bytes(_type)) == keccak256(bytes(\"name\")))\r\n      candidates[_id].politicalPartyName = _data;\r\n\r\n    else if (keccak256(bytes(_type)) == keccak256(bytes(\"desc\")))\r\n      candidates[_id].politicalPartyDescription = _data;\r\n\r\n    else if (keccak256(bytes(_type)) == keccak256(bytes(\"leader\")))\r\n      candidates[_id].leaders = _data;\r\n  }\r\n\r\n  // this is the main function for the application\r\n  // this will handle the vote logic of the appliation\r\n  // voter id number and the candidate id is required as arguments to this function\r\n  // function vote(string memory _voterId, uint _candidateID, uint _currentTimestamp) public returns (string memory) {\r\n  function vote(string memory _voterId, uint _candidateID) public returns (string memory) {\r\n    // if (startTimestamp == 0 || endTimestamp == 0) {\r\n    //   return \"Election has not yet started\";\r\n    // }\r\n\r\n    // if (_currentTimestamp < startTimestamp || _currentTimestamp > endTimestamp) {\r\n    //   return \"No elections currently\";\r\n    // }\r\n\r\n    if (voter_ids[_voterId] == true) {\r\n      return \"Already voted with this voter id\";\r\n    }\r\n\r\n    if (voter_addresses[msg.sender] == true) {\r\n      return \"Device address is already mapped. Try with another device\";\r\n    }\r\n\r\n\r\n    voter_ids[_voterId] = true;\r\n    voter_addresses[msg.sender] = true;\r\n    totalVotes++;\r\n    candidates[_candidateID].voteCount++;\r\n    return \"Successfully voted\";\r\n  }\r\n\r\n  // verifying the username and password for the administrator or the executors\r\n  function verifyPassword(string memory _username, string memory _password) public view returns (bool) {\r\n    if (\r\n      keccak256(bytes(_username)) == keccak256(bytes(adminUsername)) &&\r\n      keccak256(bytes(_password)) == keccak256(bytes(adminPassword))\r\n    )\r\n      return true;\r\n\r\n    return false;\r\n  }\r\n\r\n  // add the current timestamp and check that the start timestamp is valid\r\n  function changeStartDate(uint256 _timestamp) public {\r\n    startTimestamp = _timestamp;\r\n  }\r\n\r\n  // add the current timestamp and check the end timestamp is valid\r\n  function changeEndDate(uint256 _timestamp) public {\r\n    endTimestamp = _timestamp;\r\n  }\r\n\r\n  // change password\r\n  // _type == 1 -> administrator\r\n  // _type == 2 -> executor\r\n  function changePassword(string memory _name, string memory _new_password, uint _type) public returns (bool) {\r\n    // for administrator\r\n    if (_type == 1) {\r\n      if (keccak256(bytes(_name)) == keccak256(bytes(adminUsername))) {\r\n        adminPassword = _new_password;\r\n        return true;\r\n      }\r\n      return false;\r\n    }\r\n\r\n    // for the executor\r\n    if (_type == 2) {\r\n      if (executors[_name].role == 0)\r\n        return false;\r\n\r\n      executors[_name].password = _new_password;\r\n      return true;\r\n    }\r\n\r\n    return false;\r\n  }\r\n\r\n  // adding a new executor\r\n  function addExecutor(string memory _username, string memory _password, uint _role) public returns (bool) {\r\n    if (executors[_username].role != 0)\r\n      return false;\r\n\r\n    if (_role <= 0 || _role >= 3)\r\n      return false;\r\n\r\n    executor_names.push(_username);\r\n    executors[_username] = Executor(_username, _password, _role);\r\n    return true;\r\n  }\r\n\r\n  // editing the executor data\r\n  function editExecutorRole(string memory _name, uint _role) public returns (bool) {\r\n    if (executors[_name].role == 0)\r\n      return false;\r\n\r\n    if (_role <= 0 || _role >= 3)\r\n      return false;\r\n\r\n    executors[_name].role = _role;\r\n    return true;\r\n  }\r\n\r\n  // function deleteExecutor(string memory _name) public returns (bool) {\r\n  //   if (executors[_name].role == 0)\r\n  //     return false;\r\n\r\n  //   return true;\r\n  // }\r\n\r\n  // to get the total number of executors added by the admininstrator\r\n  function executorArrayLength() public view returns(uint count) {\r\n    return executor_names.length;\r\n  }\r\n}",
  "sourcePath": "E:\\files\\FYP\\test\\smart_contract\\contracts\\Election.sol",
  "compiler": {
    "name": "solc",
    "version": "0.5.16+commit.9c3226ce.Emscripten.clang"
  },
  "schemaVersion": "3.4.4",
  "updatedAt": "2022-03-24T18:12:07.762Z",
  "networkType": "ethereum",
  "devdoc": {
    "methods": {}
  },
  "userdoc": {
    "methods": {}
  }
}