{
  "contractName": "Election",
  "abi": [
    {
      "inputs": [],
      "payable": false,
      "stateMutability": "nonpayable",
      "type": "constructor"
    },
    {
      "constant": true,
      "inputs": [],
      "name": "candidateCount",
      "outputs": [
        {
          "internalType": "uint256",
          "name": "",
          "type": "uint256"
        }
      ],
      "payable": false,
      "stateMutability": "view",
      "type": "function"
    },
    {
      "constant": true,
      "inputs": [
        {
          "internalType": "uint256",
          "name": "",
          "type": "uint256"
        }
      ],
      "name": "candidates",
      "outputs": [
        {
          "internalType": "uint256",
          "name": "id",
          "type": "uint256"
        },
        {
          "internalType": "string",
          "name": "politicalPartyName",
          "type": "string"
        },
        {
          "internalType": "string",
          "name": "politicalPartyDescription",
          "type": "string"
        },
        {
          "internalType": "string",
          "name": "leaders",
          "type": "string"
        },
        {
          "internalType": "uint256",
          "name": "voteCount",
          "type": "uint256"
        }
      ],
      "payable": false,
      "stateMutability": "view",
      "type": "function"
    },
    {
      "constant": true,
      "inputs": [],
      "name": "endTimestamp",
      "outputs": [
        {
          "internalType": "uint256",
          "name": "",
          "type": "uint256"
        }
      ],
      "payable": false,
      "stateMutability": "view",
      "type": "function"
    },
    {
      "constant": true,
      "inputs": [
        {
          "internalType": "uint256",
          "name": "",
          "type": "uint256"
        }
      ],
      "name": "executor_names",
      "outputs": [
        {
          "internalType": "string",
          "name": "",
          "type": "string"
        }
      ],
      "payable": false,
      "stateMutability": "view",
      "type": "function"
    },
    {
      "constant": true,
      "inputs": [
        {
          "internalType": "string",
          "name": "",
          "type": "string"
        }
      ],
      "name": "executors",
      "outputs": [
        {
          "internalType": "string",
          "name": "username",
          "type": "string"
        },
        {
          "internalType": "string",
          "name": "password",
          "type": "string"
        },
        {
          "internalType": "uint256",
          "name": "role",
          "type": "uint256"
        }
      ],
      "payable": false,
      "stateMutability": "view",
      "type": "function"
    },
    {
      "constant": true,
      "inputs": [],
      "name": "no_error",
      "outputs": [
        {
          "internalType": "string",
          "name": "",
          "type": "string"
        }
      ],
      "payable": false,
      "stateMutability": "view",
      "type": "function"
    },
    {
      "constant": true,
      "inputs": [],
      "name": "startTimestamp",
      "outputs": [
        {
          "internalType": "uint256",
          "name": "",
          "type": "uint256"
        }
      ],
      "payable": false,
      "stateMutability": "view",
      "type": "function"
    },
    {
      "constant": true,
      "inputs": [
        {
          "internalType": "address",
          "name": "",
          "type": "address"
        }
      ],
      "name": "voter_addresses",
      "outputs": [
        {
          "internalType": "bool",
          "name": "",
          "type": "bool"
        }
      ],
      "payable": false,
      "stateMutability": "view",
      "type": "function"
    },
    {
      "constant": true,
      "inputs": [
        {
          "internalType": "string",
          "name": "",
          "type": "string"
        }
      ],
      "name": "voter_ids",
      "outputs": [
        {
          "internalType": "bool",
          "name": "",
          "type": "bool"
        }
      ],
      "payable": false,
      "stateMutability": "view",
      "type": "function"
    },
    {
      "constant": false,
      "inputs": [
        {
          "internalType": "string",
          "name": "_partyName",
          "type": "string"
        },
        {
          "internalType": "string",
          "name": "_partyDescription",
          "type": "string"
        },
        {
          "internalType": "string",
          "name": "_leads",
          "type": "string"
        }
      ],
      "name": "addCandidate",
      "outputs": [],
      "payable": false,
      "stateMutability": "nonpayable",
      "type": "function"
    },
    {
      "constant": false,
      "inputs": [
        {
          "internalType": "uint256",
          "name": "_id",
          "type": "uint256"
        },
        {
          "internalType": "string",
          "name": "_type",
          "type": "string"
        },
        {
          "internalType": "string",
          "name": "_data",
          "type": "string"
        }
      ],
      "name": "editCandidate",
      "outputs": [],
      "payable": false,
      "stateMutability": "nonpayable",
      "type": "function"
    },
    {
      "constant": false,
      "inputs": [
        {
          "internalType": "uint256",
          "name": "_id",
          "type": "uint256"
        }
      ],
      "name": "deleteCandidate",
      "outputs": [],
      "payable": false,
      "stateMutability": "nonpayable",
      "type": "function"
    },
    {
      "constant": true,
      "inputs": [
        {
          "internalType": "uint256",
          "name": "_id",
          "type": "uint256"
        }
      ],
      "name": "validate_candidate_id",
      "outputs": [
        {
          "internalType": "bool",
          "name": "",
          "type": "bool"
        }
      ],
      "payable": false,
      "stateMutability": "view",
      "type": "function"
    },
    {
      "constant": false,
      "inputs": [
        {
          "internalType": "string",
          "name": "_username",
          "type": "string"
        },
        {
          "internalType": "string",
          "name": "_password",
          "type": "string"
        },
        {
          "internalType": "uint256",
          "name": "_role",
          "type": "uint256"
        }
      ],
      "name": "addExecutor",
      "outputs": [],
      "payable": false,
      "stateMutability": "nonpayable",
      "type": "function"
    },
    {
      "constant": false,
      "inputs": [
        {
          "internalType": "string",
          "name": "_name",
          "type": "string"
        },
        {
          "internalType": "uint256",
          "name": "_role",
          "type": "uint256"
        }
      ],
      "name": "editExecutorRole",
      "outputs": [],
      "payable": false,
      "stateMutability": "nonpayable",
      "type": "function"
    },
    {
      "constant": false,
      "inputs": [
        {
          "internalType": "string",
          "name": "_name",
          "type": "string"
        }
      ],
      "name": "deleteExecutor",
      "outputs": [],
      "payable": false,
      "stateMutability": "nonpayable",
      "type": "function"
    },
    {
      "constant": true,
      "inputs": [
        {
          "internalType": "uint256",
          "name": "_type",
          "type": "uint256"
        },
        {
          "internalType": "string",
          "name": "_username",
          "type": "string"
        },
        {
          "internalType": "uint256",
          "name": "_role",
          "type": "uint256"
        }
      ],
      "name": "validate_executor_data",
      "outputs": [
        {
          "internalType": "string",
          "name": "",
          "type": "string"
        }
      ],
      "payable": false,
      "stateMutability": "view",
      "type": "function"
    },
    {
      "constant": true,
      "inputs": [],
      "name": "executorArrayLength",
      "outputs": [
        {
          "internalType": "uint256",
          "name": "count",
          "type": "uint256"
        }
      ],
      "payable": false,
      "stateMutability": "view",
      "type": "function"
    },
    {
      "constant": false,
      "inputs": [
        {
          "internalType": "string",
          "name": "_voterId",
          "type": "string"
        },
        {
          "internalType": "uint256",
          "name": "_candidateID",
          "type": "uint256"
        },
        {
          "internalType": "uint256",
          "name": "_currentTimestamp",
          "type": "uint256"
        }
      ],
      "name": "vote",
      "outputs": [],
      "payable": false,
      "stateMutability": "nonpayable",
      "type": "function"
    },
    {
      "constant": true,
      "inputs": [
        {
          "internalType": "string",
          "name": "_voterId",
          "type": "string"
        }
      ],
      "name": "validate_system_and_id",
      "outputs": [
        {
          "internalType": "uint256",
          "name": "",
          "type": "uint256"
        }
      ],
      "payable": false,
      "stateMutability": "view",
      "type": "function"
    },
    {
      "constant": false,
      "inputs": [
        {
          "internalType": "uint256",
          "name": "_timestamp",
          "type": "uint256"
        }
      ],
      "name": "changeStartDate",
      "outputs": [],
      "payable": false,
      "stateMutability": "nonpayable",
      "type": "function"
    },
    {
      "constant": false,
      "inputs": [
        {
          "internalType": "uint256",
          "name": "_timestamp",
          "type": "uint256"
        }
      ],
      "name": "changeEndDate",
      "outputs": [],
      "payable": false,
      "stateMutability": "nonpayable",
      "type": "function"
    },
    {
      "constant": true,
      "inputs": [
        {
          "internalType": "string",
          "name": "_username",
          "type": "string"
        },
        {
          "internalType": "string",
          "name": "_password",
          "type": "string"
        },
        {
          "internalType": "uint256",
          "name": "_type",
          "type": "uint256"
        }
      ],
      "name": "verifyPassword",
      "outputs": [
        {
          "internalType": "string",
          "name": "",
          "type": "string"
        }
      ],
      "payable": false,
      "stateMutability": "view",
      "type": "function"
    },
    {
      "constant": false,
      "inputs": [
        {
          "internalType": "string",
          "name": "_name",
          "type": "string"
        },
        {
          "internalType": "string",
          "name": "_new_password",
          "type": "string"
        },
        {
          "internalType": "uint256",
          "name": "_type",
          "type": "uint256"
        }
      ],
      "name": "changePassword",
      "outputs": [],
      "payable": false,
      "stateMutability": "nonpayable",
      "type": "function"
    },
    {
      "constant": true,
      "inputs": [
        {
          "internalType": "string",
          "name": "_username",
          "type": "string"
        }
      ],
      "name": "get_user_type",
      "outputs": [
        {
          "internalType": "int256",
          "name": "",
          "type": "int256"
        }
      ],
      "payable": false,
      "stateMutability": "view",
      "type": "function"
    },
    {
      "constant": true,
      "inputs": [],
      "name": "get_total_votes",
      "outputs": [
        {
          "internalType": "uint256",
          "name": "count",
          "type": "uint256"
        }
      ],
      "payable": false,
      "stateMutability": "view",
      "type": "function"
    },
    {
      "constant": true,
      "inputs": [],
      "name": "timestamp",
      "outputs": [
        {
          "internalType": "uint256",
          "name": "",
          "type": "uint256"
        }
      ],
      "payable": false,
      "stateMutability": "view",
      "type": "function"
    }
  ],
  "bytecode": "0x60806040523480156200001157600080fd5b506040518060400160405280600581526020017f41646d696e000000000000000000000000000000000000000000000000000000815250600290805190602001906200005f92919062000583565b506040518060400160405280600a81526020017f313233343536373839300000000000000000000000000000000000000000000081525060039080519060200190620000ad92919062000583565b5060006007819055506000600881905550620001546040518060400160405280600381526020017f41415000000000000000000000000000000000000000000000000000000000008152506040518060600160405280602c815260200162003dc4602c91396040518060400160405280601781526020017f417276696e64204b656a726977616c0a4c656164657231000000000000000000815250620004ba60201b60201c565b620002066040518060400160405280600381526020017f424a5000000000000000000000000000000000000000000000000000000000008152506040518060400160405280601881526020017f4163636868652064696e2061616e652077616c652068616900000000000000008152506040518060400160405280601981526020017f504d204e6172656e647261204d6f64690a416d69742053686100000000000000815250620004ba60201b60201c565b620002806040518060400160405280600881526020017f436f6e677265737300000000000000000000000000000000000000000000000081525060405180606001604052806029815260200162003df06029913960405180606001604052806029815260200162003e1960299139620004ba60201b60201c565b600b8060018154018082558091505090600182039060005260206000200160006040518060400160405280601781526020017f557365726e616d6520616c72656164792065786973747300000000000000000081525090919091509080519060200190620002f092919062000583565b5050600b80600181540180825580915050906001820390600052602060002001600060405180606001604052806027815260200162003d7360279139909190915090805190602001906200034692919062000583565b5050600b8060018154018082558091505090600182039060005260206000200160006040518060400160405280601881526020017f557365726e616d6520646f6573206e6f7420657869737473000000000000000081525090919091509080519060200190620003b892919062000583565b5050600c80600181540180825580915050906001820390600052602060002001600060405180606001604052806027815260200162003d4c60279139909190915090805190602001906200040e92919062000583565b5050600c8060018154018082558091505090600182039060005260206000200160006040518060600160405280602a815260200162003d9a602a9139909190915090805190602001906200046492919062000583565b50506040518060400160405280600281526020017f4e41000000000000000000000000000000000000000000000000000000000000815250600d9080519060200190620004b392919062000583565b50620006b9565b6001600081548092919060010191905055506040518060a00160405280600154815260200184815260200183815260200182815260200160008152506000806001548152602001908152602001600020600082015181600001556020820151816001019080519060200190620005329291906200060a565b506040820151816002019080519060200190620005519291906200060a565b506060820151816003019080519060200190620005709291906200060a565b5060808201518160040155905050505050565b828054600181600116156101000203166002900490600052602060002090601f016020900481019282601f10620005c657805160ff1916838001178555620005f7565b82800160010185558215620005f7579182015b82811115620005f6578251825591602001919060010190620005d9565b5b50905062000606919062000691565b5090565b828054600181600116156101000203166002900490600052602060002090601f016020900481019282601f106200064d57805160ff19168380011785556200067e565b828001600101855582156200067e579182015b828111156200067d57825182559160200191906001019062000660565b5b5090506200068d919062000691565b5090565b620006b691905b80821115620006b257600081600090555060010162000698565b5090565b90565b61368380620006c96000396000f3fe608060405234801561001057600080fd5b50600436106101a85760003560e01c8063647c3247116100f9578063b4c62ef511610097578063bf40944911610071578063bf409449146113fb578063c19c8bf1146114ce578063d8755e6c146114ec578063e6fd48bc146115a7576101a8565b8063b4c62ef514611171578063b7211fcf14611318578063b80777ea146113dd576101a8565b80637e29d899116100d35780637e29d89914610f2e578063a85adeab14610f4c578063a9a981a314610f6a578063ad71f8dc14610f88576101a8565b8063647c324714610ca75780636ab4c4c714610d7657806375cf93a814610ed2576101a8565b80631e620cd41161016657806345737b1e1161014057806345737b1e1461095257806347ddc1dc146109805780635b2a32c714610a4f5780635cf27eb614610ad2576101a8565b80631e620cd41461063b5780633477ee2e1461066957806342a85b29146107f6576101a8565b8062739f2a146101ad5780630891d358146101db5780630c3573e8146102aa5780631041a5c3146104065780631ab9e6981461054e5780631c19b9b614610594575b600080fd5b6101d9600480360360208110156101c357600080fd5b81019080803590602001909291905050506115c5565b005b6102a8600480360360608110156101f157600080fd5b810190808035906020019064010000000081111561020e57600080fd5b82018360208201111561022057600080fd5b8035906020019184600183028401116401000000008311171561024257600080fd5b91908080601f016020809104026020016040519081016040528093929190818152602001838380828437600081840152601f19601f82011690508083019250505050505050919291929080359060200190929190803590602001909291905050506115cf565b005b610404600480360360608110156102c057600080fd5b8101908080359060200190929190803590602001906401000000008111156102e757600080fd5b8201836020820111156102f957600080fd5b8035906020019184600183028401116401000000008311171561031b57600080fd5b91908080601f016020809104026020016040519081016040528093929190818152602001838380828437600081840152601f19601f8201169050808301925050505050505091929192908035906020019064010000000081111561037e57600080fd5b82018360208201111561039057600080fd5b803590602001918460018302840111640100000000831117156103b257600080fd5b91908080601f016020809104026020016040519081016040528093929190818152602001838380828437600081840152601f19601f820116905080830192505050505050509192919290505050611804565b005b6104d36004803603606081101561041c57600080fd5b81019080803590602001909291908035906020019064010000000081111561044357600080fd5b82018360208201111561045557600080fd5b8035906020019184600183028401116401000000008311171561047757600080fd5b91908080601f016020809104026020016040519081016040528093929190818152602001838380828437600081840152601f19601f82011690508083019250505050505050919291929080359060200190929190505050611999565b6040518080602001828103825283818151815260200191508051906020019080838360005b838110156105135780820151818401526020810190506104f8565b50505050905090810190601f1680156105405780820380516001836020036101000a031916815260200191505b509250505060405180910390f35b61057a6004803603602081101561056457600080fd5b8101908080359060200190929190505050611e4e565b604051808215151515815260200191505060405180910390f35b6105c0600480360360208110156105aa57600080fd5b8101908080359060200190929190505050611e80565b6040518080602001828103825283818151815260200191508051906020019080838360005b838110156106005780820151818401526020810190506105e5565b50505050905090810190601f16801561062d5780820380516001836020036101000a031916815260200191505b509250505060405180910390f35b6106676004803603602081101561065157600080fd5b8101908080359060200190929190505050611f39565b005b6106956004803603602081101561067f57600080fd5b8101908080359060200190929190505050611fa4565b60405180868152602001806020018060200180602001858152602001848103845288818151815260200191508051906020019080838360005b838110156106e95780820151818401526020810190506106ce565b50505050905090810190601f1680156107165780820380516001836020036101000a031916815260200191505b50848103835287818151815260200191508051906020019080838360005b8381101561074f578082015181840152602081019050610734565b50505050905090810190601f16801561077c5780820380516001836020036101000a031916815260200191505b50848103825286818151815260200191508051906020019080838360005b838110156107b557808201518184015260208101905061079a565b50505050905090810190601f1680156107e25780820380516001836020036101000a031916815260200191505b509850505050505050505060405180910390f35b6109506004803603606081101561080c57600080fd5b810190808035906020019064010000000081111561082957600080fd5b82018360208201111561083b57600080fd5b8035906020019184600183028401116401000000008311171561085d57600080fd5b91908080601f016020809104026020016040519081016040528093929190818152602001838380828437600081840152601f19601f820116905080830192505050505050509192919290803590602001906401000000008111156108c057600080fd5b8201836020820111156108d257600080fd5b803590602001918460018302840111640100000000831117156108f457600080fd5b91908080601f016020809104026020016040519081016040528093929190818152602001838380828437600081840152601f19601f820116905080830192505050505050509192919290803590602001909291905050506121a2565b005b61097e6004803603602081101561096857600080fd5b81019080803590602001909291905050506122ce565b005b610a396004803603602081101561099657600080fd5b81019080803590602001906401000000008111156109b357600080fd5b8201836020820111156109c557600080fd5b803590602001918460018302840111640100000000831117156109e757600080fd5b91908080601f016020809104026020016040519081016040528093929190818152602001838380828437600081840152601f19601f8201169050808301925050505050505091929192905050506122d8565b6040518082815260200191505060405180910390f35b610a5761246f565b6040518080602001828103825283818151815260200191508051906020019080838360005b83811015610a97578082015181840152602081019050610a7c565b50505050905090810190601f168015610ac45780820380516001836020036101000a031916815260200191505b509250505060405180910390f35b610c2c60048036036060811015610ae857600080fd5b8101908080359060200190640100000000811115610b0557600080fd5b820183602082011115610b1757600080fd5b80359060200191846001830284011164010000000083111715610b3957600080fd5b91908080601f016020809104026020016040519081016040528093929190818152602001838380828437600081840152601f19601f82011690508083019250505050505050919291929080359060200190640100000000811115610b9c57600080fd5b820183602082011115610bae57600080fd5b80359060200191846001830284011164010000000083111715610bd057600080fd5b91908080601f016020809104026020016040519081016040528093929190818152602001838380828437600081840152601f19601f8201169050808301925050505050505091929192908035906020019092919050505061250d565b6040518080602001828103825283818151815260200191508051906020019080838360005b83811015610c6c578082015181840152602081019050610c51565b50505050905090810190601f168015610c995780820380516001836020036101000a031916815260200191505b509250505060405180910390f35b610d6060048036036020811015610cbd57600080fd5b8101908080359060200190640100000000811115610cda57600080fd5b820183602082011115610cec57600080fd5b80359060200191846001830284011164010000000083111715610d0e57600080fd5b91908080601f016020809104026020016040519081016040528093929190818152602001838380828437600081840152601f19601f820116905080830192505050505050509192919290505050612b7c565b6040518082815260200191505060405180910390f35b610ed060048036036060811015610d8c57600080fd5b8101908080359060200190640100000000811115610da957600080fd5b820183602082011115610dbb57600080fd5b80359060200191846001830284011164010000000083111715610ddd57600080fd5b91908080601f016020809104026020016040519081016040528093929190818152602001838380828437600081840152601f19601f82011690508083019250505050505050919291929080359060200190640100000000811115610e4057600080fd5b820183602082011115610e5257600080fd5b80359060200191846001830284011164010000000083111715610e7457600080fd5b91908080601f016020809104026020016040519081016040528093929190818152602001838380828437600081840152601f19601f82011690508083019250505050505050919291929080359060200190929190505050612c76565b005b610f1460048036036020811015610ee857600080fd5b81019080803573ffffffffffffffffffffffffffffffffffffffff169060200190929190505050612e1a565b604051808215151515815260200191505060405180910390f35b610f36612e3a565b6040518082815260200191505060405180910390f35b610f54612e44565b6040518082815260200191505060405180910390f35b610f72612e4a565b6040518082815260200191505060405180910390f35b61116f60048036036060811015610f9e57600080fd5b8101908080359060200190640100000000811115610fbb57600080fd5b820183602082011115610fcd57600080fd5b80359060200191846001830284011164010000000083111715610fef57600080fd5b91908080601f016020809104026020016040519081016040528093929190818152602001838380828437600081840152601f19601f8201169050808301925050505050505091929192908035906020019064010000000081111561105257600080fd5b82018360208201111561106457600080fd5b8035906020019184600183028401116401000000008311171561108657600080fd5b91908080601f016020809104026020016040519081016040528093929190818152602001838380828437600081840152601f19601f820116905080830192505050505050509192919290803590602001906401000000008111156110e957600080fd5b8201836020820111156110fb57600080fd5b8035906020019184600183028401116401000000008311171561111d57600080fd5b91908080601f016020809104026020016040519081016040528093929190818152602001838380828437600081840152601f19601f820116905080830192505050505050509192919290505050612e50565b005b61122a6004803603602081101561118757600080fd5b81019080803590602001906401000000008111156111a457600080fd5b8201836020820111156111b657600080fd5b803590602001918460018302840111640100000000831117156111d857600080fd5b91908080601f016020809104026020016040519081016040528093929190818152602001838380828437600081840152601f19601f820116905080830192505050505050509192919290505050612f13565b604051808060200180602001848152602001838103835286818151815260200191508051906020019080838360005b83811015611274578082015181840152602081019050611259565b50505050905090810190601f1680156112a15780820380516001836020036101000a031916815260200191505b50838103825285818151815260200191508051906020019080838360005b838110156112da5780820151818401526020810190506112bf565b50505050905090810190601f1680156113075780820380516001836020036101000a031916815260200191505b509550505050505060405180910390f35b6113db6004803603604081101561132e57600080fd5b810190808035906020019064010000000081111561134b57600080fd5b82018360208201111561135d57600080fd5b8035906020019184600183028401116401000000008311171561137f57600080fd5b91908080601f016020809104026020016040519081016040528093929190818152602001838380828437600081840152601f19601f82011690508083019250505050505050919291929080359060200190929190505050613083565b005b6113e561318e565b6040518082815260200191505060405180910390f35b6114b46004803603602081101561141157600080fd5b810190808035906020019064010000000081111561142e57600080fd5b82018360208201111561144057600080fd5b8035906020019184600183028401116401000000008311171561146257600080fd5b91908080601f016020809104026020016040519081016040528093929190818152602001838380828437600081840152601f19601f820116905080830192505050505050509192919290505050613196565b604051808215151515815260200191505060405180910390f35b6114d66131cc565b6040518082815260200191505060405180910390f35b6115a56004803603602081101561150257600080fd5b810190808035906020019064010000000081111561151f57600080fd5b82018360208201111561153157600080fd5b8035906020019184600183028401116401000000008311171561155357600080fd5b91908080601f016020809104026020016040519081016040528093929190818152602001838380828437600081840152601f19601f8201169050808301925050505050505091929192905050506131d9565b005b6115af61338a565b6040518082815260200191505060405180910390f35b8060078190555050565b600060075414806115e257506000600854145b156115ec576117ff565b6007548110806115fd575060085481115b15611607576117ff565b600115156004846040518082805190602001908083835b60208310611641578051825260208201915060208101905060208303925061161e565b6001836020036101000a038019825116818451168082178552505050505050905001915050908152602001604051809103902060009054906101000a900460ff161515141561168f576117ff565b60011515600560003373ffffffffffffffffffffffffffffffffffffffff1673ffffffffffffffffffffffffffffffffffffffff16815260200190815260200160002060009054906101000a900460ff16151514156116ed576117ff565b60016004846040518082805190602001908083835b602083106117255780518252602082019150602081019050602083039250611702565b6001836020036101000a038019825116818451168082178552505050505050905001915050908152602001604051809103902060006101000a81548160ff0219169083151502179055506001600560003373ffffffffffffffffffffffffffffffffffffffff1673ffffffffffffffffffffffffffffffffffffffff16815260200190815260200160002060006101000a81548160ff021916908315150217905550600660008154809291906001019190505550600080838152602001908152602001600020600401600081548092919060010191905055505b505050565b600080600085815260200190815260200160002060000154141561182757611994565b6040518060400160405280600481526020017f6e616d650000000000000000000000000000000000000000000000000000000081525080519060200120828051906020012014156118a15780600080858152602001908152602001600020600101908051906020019061189b92919061345a565b50611993565b6040518060400160405280600481526020017f6465736300000000000000000000000000000000000000000000000000000000815250805190602001208280519060200120141561191b5780600080858152602001908152602001600020600201908051906020019061191592919061345a565b50611992565b6040518060400160405280600681526020017f6c6561646572000000000000000000000000000000000000000000000000000081525080519060200120828051906020012014156119915780600080858152602001908152602001600020600301908051906020019061198f92919061345a565b505b5b5b5b505050565b60606001841415611ba35760006009846040518082805190602001908083835b602083106119dc57805182526020820191506020810190506020830392506119b9565b6001836020036101000a03801982511681845116808217855250505050505090500191505090815260200160405180910390206002015414611ad057600b600081548110611a2657fe5b906000526020600020018054600181600116156101000203166002900480601f016020809104026020016040519081016040528092919081815260200182805460018160011615610100020316600290048015611ac45780601f10611a9957610100808354040283529160200191611ac4565b820191906000526020600020905b815481529060010190602001808311611aa757829003601f168201915b50505050509050611e47565b600082111580611ae1575060038210155b15611b9e57600b600181548110611af457fe5b906000526020600020018054600181600116156101000203166002900480601f016020809104026020016040519081016040528092919081815260200182805460018160011615610100020316600290048015611b925780601f10611b6757610100808354040283529160200191611b92565b820191906000526020600020905b815481529060010190602001808311611b7557829003601f168201915b50505050509050611e47565b611da9565b6002841415611da85760006009846040518082805190602001908083835b60208310611be45780518252602082019150602081019050602083039250611bc1565b6001836020036101000a0380198251168184511680821785525050505050509050019150509081526020016040518091039020600201541415611cd957600b600281548110611c2f57fe5b906000526020600020018054600181600116156101000203166002900480601f016020809104026020016040519081016040528092919081815260200182805460018160011615610100020316600290048015611ccd5780601f10611ca257610100808354040283529160200191611ccd565b820191906000526020600020905b815481529060010190602001808311611cb057829003601f168201915b50505050509050611e47565b600082111580611cea575060038210155b15611da757600b600181548110611cfd57fe5b906000526020600020018054600181600116156101000203166002900480601f016020809104026020016040519081016040528092919081815260200182805460018160011615610100020316600290048015611d9b5780601f10611d7057610100808354040283529160200191611d9b565b820191906000526020600020905b815481529060010190602001808311611d7e57829003601f168201915b50505050509050611e47565b5b5b600d8054600181600116156101000203166002900480601f016020809104026020016040519081016040528092919081815260200182805460018160011615610100020316600290048015611e3f5780601f10611e1457610100808354040283529160200191611e3f565b820191906000526020600020905b815481529060010190602001808311611e2257829003601f168201915b505050505090505b9392505050565b600080600080848152602001908152602001600020600001541415611e765760009050611e7b565b600190505b919050565b600a8181548110611e8d57fe5b906000526020600020016000915090508054600181600116156101000203166002900480601f016020809104026020016040519081016040528092919081815260200182805460018160011615610100020316600290048015611f315780601f10611f0657610100808354040283529160200191611f31565b820191906000526020600020905b815481529060010190602001808311611f1457829003601f168201915b505050505081565b60016000815480929190600190039190505550600080828152602001908152602001600020600080820160009055600182016000611f7791906134da565b600282016000611f8791906134da565b600382016000611f9791906134da565b6004820160009055505050565b6000602052806000526040600020600091509050806000015490806001018054600181600116156101000203166002900480601f0160208091040260200160405190810160405280929190818152602001828054600181600116156101000203166002900480156120565780601f1061202b57610100808354040283529160200191612056565b820191906000526020600020905b81548152906001019060200180831161203957829003601f168201915b505050505090806002018054600181600116156101000203166002900480601f0160208091040260200160405190810160405280929190818152602001828054600181600116156101000203166002900480156120f45780601f106120c9576101008083540402835291602001916120f4565b820191906000526020600020905b8154815290600101906020018083116120d757829003601f168201915b505050505090806003018054600181600116156101000203166002900480601f0160208091040260200160405190810160405280929190818152602001828054600181600116156101000203166002900480156121925780601f1061216757610100808354040283529160200191612192565b820191906000526020600020905b81548152906001019060200180831161217557829003601f168201915b5050505050908060040154905085565b60018114156121c35781600390805190602001906121c192919061345a565b505b60028114156122c85760006009846040518082805190602001908083835b6020831061220457805182526020820191506020810190506020830392506121e1565b6001836020036101000a0380198251168184511680821785525050505050509050019150509081526020016040518091039020600201541415612246576122c9565b816009846040518082805190602001908083835b6020831061227d578051825260208201915060208101905060208303925061225a565b6001836020036101000a038019825116818451168082178552505050505050905001915050908152602001604051809103902060010190805190602001906122c692919061345a565b505b5b505050565b8060088190555050565b6000600260405180828054600181600116156101000203166002900480156123375780601f10612315576101008083540402835291820191612337565b820191906000526020600020905b815481529060010190602001808311612323575b505091505060405180910390208280519060200120141561235b576001905061246a565b60006009836040518082805190602001908083835b602083106123935780518252602082019150602081019050602083039250612370565b6001836020036101000a038019825116818451168082178552505050505050905001915050908152602001604051809103902060020154146124465760016009836040518082805190602001908083835b6020831061240757805182526020820191506020810190506020830392506123e4565b6001836020036101000a03801982511681845116808217855250505050505090500191505090815260200160405180910390206002015401905061246a565b7fffffffffffffffffffffffffffffffffffffffffffffffffffffffffffffffff90505b919050565b600d8054600181600116156101000203166002900480601f0160208091040260200160405190810160405280929190818152602001828054600181600116156101000203166002900480156125055780601f106124da57610100808354040283529160200191612505565b820191906000526020600020905b8154815290600101906020018083116124e857829003601f168201915b505050505081565b6060600182141561276557600260405180828054600181600116156101000203166002900480156125755780601f10612553576101008083540402835291820191612575565b820191906000526020600020905b815481529060010190602001808311612561575b5050915050604051809103902084805190602001201480156126065750600360405180828054600181600116156101000203166002900480156125ef5780601f106125cd5761010080835404028352918201916125ef565b820191906000526020600020905b8154815290600101906020018083116125db575b505091505060405180910390208380519060200120145b156126ad57600d8054600181600116156101000203166002900480601f0160208091040260200160405190810160405280929190818152602001828054600181600116156101000203166002900480156126a15780601f10612676576101008083540402835291602001916126a1565b820191906000526020600020905b81548152906001019060200180831161268457829003601f168201915b50505050509050612b75565b600c6000815481106126bb57fe5b906000526020600020018054600181600116156101000203166002900480601f0160208091040260200160405190810160405280929190818152602001828054600181600116156101000203166002900480156127595780601f1061272e57610100808354040283529160200191612759565b820191906000526020600020905b81548152906001019060200180831161273c57829003601f168201915b50505050509050612b75565b6002821415612ad75760006009856040518082805190602001908083835b602083106127a65780518252602082019150602081019050602083039250612783565b6001836020036101000a038019825116818451168082178552505050505050905001915050908152602001604051809103902060020154141561289b57600b6002815481106127f157fe5b906000526020600020018054600181600116156101000203166002900480601f01602080910402602001604051908101604052809291908181526020018280546001816001161561010002031660029004801561288f5780601f106128645761010080835404028352916020019161288f565b820191906000526020600020905b81548152906001019060200180831161287257829003601f168201915b50505050509050612b75565b6009846040518082805190602001908083835b602083106128d157805182526020820191506020810190506020830392506128ae565b6001836020036101000a038019825116818451168082178552505050505050905001915050908152602001604051809103902060010160405180828054600181600116156101000203166002900480156129625780601f10612940576101008083540402835291820191612962565b820191906000526020600020905b81548152906001019060200180831161294e575b5050915050604051809103902083805190602001201415612a1f57600d8054600181600116156101000203166002900480601f016020809104026020016040519081016040528092919081815260200182805460018160011615610100020316600290048015612a135780601f106129e857610100808354040283529160200191612a13565b820191906000526020600020905b8154815290600101906020018083116129f657829003601f168201915b50505050509050612b75565b600c600181548110612a2d57fe5b906000526020600020018054600181600116156101000203166002900480601f016020809104026020016040519081016040528092919081815260200182805460018160011615610100020316600290048015612acb5780601f10612aa057610100808354040283529160200191612acb565b820191906000526020600020905b815481529060010190602001808311612aae57829003601f168201915b50505050509050612b75565b600d8054600181600116156101000203166002900480601f016020809104026020016040519081016040528092919081815260200182805460018160011615610100020316600290048015612b6d5780601f10612b4257610100808354040283529160200191612b6d565b820191906000526020600020905b815481529060010190602001808311612b5057829003601f168201915b505050505090505b9392505050565b6000600115156004836040518082805190602001908083835b60208310612bb85780518252602082019150602081019050602083039250612b95565b6001836020036101000a038019825116818451168082178552505050505050905001915050908152602001604051809103902060009054906101000a900460ff1615151415612c0a5760019050612c71565b60011515600560003373ffffffffffffffffffffffffffffffffffffffff1673ffffffffffffffffffffffffffffffffffffffff16815260200190815260200160002060009054906101000a900460ff1615151415612c6c5760029050612c71565b600090505b919050565b60006009846040518082805190602001908083835b60208310612cae5780518252602082019150602081019050602083039250612c8b565b6001836020036101000a03801982511681845116808217855250505050505090500191505090815260200160405180910390206002015414612cef57612e15565b600081111580612d00575060038110155b15612d0a57612e15565b600a839080600181540180825580915050906001820390600052602060002001600090919290919091509080519060200190612d4792919061345a565b50506040518060600160405280848152602001838152602001828152506009846040518082805190602001908083835b60208310612d9a5780518252602082019150602081019050602083039250612d77565b6001836020036101000a03801982511681845116808217855250505050505090500191505090815260200160405180910390206000820151816000019080519060200190612de9929190613522565b506020820151816001019080519060200190612e06929190613522565b50604082015181600201559050505b505050565b60056020528060005260406000206000915054906101000a900460ff1681565b6000600654905090565b60085481565b60015481565b6001600081548092919060010191905055506040518060a00160405280600154815260200184815260200183815260200182815260200160008152506000806001548152602001908152602001600020600082015181600001556020820151816001019080519060200190612ec6929190613522565b506040820151816002019080519060200190612ee3929190613522565b506060820151816003019080519060200190612f00929190613522565b5060808201518160040155905050505050565b600981805160208101820180518482526020830160208501208183528095505050505050600091509050806000018054600181600116156101000203166002900480601f016020809104026020016040519081016040528092919081815260200182805460018160011615610100020316600290048015612fd55780601f10612faa57610100808354040283529160200191612fd5565b820191906000526020600020905b815481529060010190602001808311612fb857829003601f168201915b505050505090806001018054600181600116156101000203166002900480601f0160208091040260200160405190810160405280929190818152602001828054600181600116156101000203166002900480156130735780601f1061304857610100808354040283529160200191613073565b820191906000526020600020905b81548152906001019060200180831161305657829003601f168201915b5050505050908060020154905083565b60006009836040518082805190602001908083835b602083106130bb5780518252602082019150602081019050602083039250613098565b6001836020036101000a03801982511681845116808217855250505050505090500191505090815260200160405180910390206002015414156130fd5761318a565b60008111158061310e575060038110155b156131185761318a565b806009836040518082805190602001908083835b6020831061314f578051825260208201915060208101905060208303925061312c565b6001836020036101000a0380198251168184511680821785525050505050509050019150509081526020016040518091039020600201819055505b5050565b600042905090565b6004818051602081018201805184825260208301602085012081835280955050505050506000915054906101000a900460ff1681565b6000600a80549050905090565b60006009826040518082805190602001908083835b6020831061321157805182526020820191506020810190506020830392506131ee565b6001836020036101000a038019825116818451168082178552505050505050905001915050908152602001604051809103902060020154141561325357613387565b600061325e82613390565b9050600a8054905081106132725750613387565b600a6001600a80549050038154811061328757fe5b90600052602060002001600a828154811061329e57fe5b9060005260206000200190805460018160011615610100020316600290046132c79291906135a2565b50600a8054806132d357fe5b6001900381819060005260206000200160006132ef91906134da565b90556009826040518082805190602001908083835b602083106133275780518252602082019150602081019050602083039250613304565b6001836020036101000a03801982511681845116808217855250505050505090500191505090815260200160405180910390206000808201600061336b91906134da565b60018201600061337b91906134da565b60028201600090555050505b50565b60075481565b600080600090505b600a8054905081101561344857600a81815481106133b257fe5b9060005260206000200160405180828054600181600116156101000203166002900480156134175780601f106133f5576101008083540402835291820191613417565b820191906000526020600020905b815481529060010190602001808311613403575b505091505060405180910390208380519060200120141561343b5780915050613455565b8080600101915050613398565b506001600a805490500190505b919050565b828054600181600116156101000203166002900490600052602060002090601f016020900481019282601f1061349b57805160ff19168380011785556134c9565b828001600101855582156134c9579182015b828111156134c85782518255916020019190600101906134ad565b5b5090506134d69190613629565b5090565b50805460018160011615610100020316600290046000825580601f10613500575061351f565b601f01602090049060005260206000209081019061351e9190613629565b5b50565b828054600181600116156101000203166002900490600052602060002090601f016020900481019282601f1061356357805160ff1916838001178555613591565b82800160010185558215613591579182015b82811115613590578251825591602001919060010190613575565b5b50905061359e9190613629565b5090565b828054600181600116156101000203166002900490600052602060002090601f016020900481019282601f106135db5780548555613618565b8280016001018555821561361857600052602060002091601f016020900482015b828111156136175782548255916001019190600101906135fc565b5b5090506136259190613629565b5090565b61364b91905b8082111561364757600081600090555060010161362f565b5090565b9056fea265627a7a72315820e63e27d5e261d0f74e0966ba5461bce9655e32495a3a89c830c7e494acf8ef8264736f6c63430005100032557365726e616d65206f722050617373776f726420666f722061646d696e2069732077726f6e67526f6c652076616c75652063616e206f6e6c7920626520566965776572206f7220456469746f72557365726e616d65206f722050617373776f726420666f72206578656375746f722069732077726f6e67416363686865206265657465207061616e6368207361616c2c206c616765207261686f204b656a726977616c436f6e67726573732068616e6420696e2068616e6420776974682074686520636f6d6d6f6e206d616e526168756c2047616e6468690a4d616e204d6f68616e2053696e67680a536f6e69612047616e646869",
  "source": "pragma solidity ^0.5.16;\r\n\r\ncontract Election {\r\n  // to store the inforamtion about the candidates\r\n  struct Candidate {\r\n    uint id;\r\n    string politicalPartyName;\r\n    string politicalPartyDescription;\r\n    string leaders;\r\n    uint voteCount;\r\n  }\r\n\r\n  // structure for executors\r\n  // username: for login username\r\n  // password: for login password\r\n  // role: viewer or editor\r\n  // role value = 1: viewer\r\n  // role value = 2: editor\r\n  struct Executor {\r\n    string username;\r\n    string password;\r\n    uint role;\r\n  }\r\n\r\n  // fetch the candidate\r\n  mapping(uint => Candidate) public candidates;\r\n  uint public candidateCount;\r\n\r\n  // election admininstrator\r\n  string private adminUsername;\r\n  string private adminPassword;\r\n\r\n  // store the mapping of voter id number who has already voted\r\n  mapping(string => bool) public voter_ids;\r\n  mapping(address => bool) public voter_addresses;\r\n  uint private totalVotes;\r\n\r\n  // to keep track of the starting and ending time of the election\r\n  // it will be initialized to zero meaning the elections time has not been set\r\n  uint256 public startTimestamp;\r\n  uint256 public endTimestamp;\r\n\r\n  // create the mapping for executors\r\n  // this is done to keep the unique usernames\r\n  mapping(string => Executor) public executors;\r\n  // array for keeping the executors\r\n  string[] public executor_names;\r\n\r\n  // error messages\r\n  string[] private executor_messages;\r\n  string[] private password_messages;\r\n  string public no_error;\r\n\r\n  constructor() public {\r\n    // default election administrator credentials\r\n    adminUsername = \"Admin\";\r\n    adminPassword = \"1234567890\";\r\n\r\n    startTimestamp = 0;\r\n    endTimestamp = 0;\r\n\r\n    addCandidate(\"AAP\", \"Acchhe beete paanch saal, lage raho Kejriwal\", \"Arvind Kejriwal\\nLeader1\");\r\n    addCandidate(\"BJP\", \"Acchhe din aane wale hai\", \"PM Narendra Modi\\nAmit Sha\");\r\n    addCandidate(\"Congress\", \"Congress hand in hand with the common man\", \"Rahul Gandhi\\nMan Mohan Singh\\nSonia Gandhi\");\r\n\r\n    // adding error messages\r\n    // for executor\r\n    executor_messages.push(\"Username already exists\");\r\n    executor_messages.push(\"Role value can only be Viewer or Editor\");\r\n    executor_messages.push(\"Username does not exists\");\r\n    // for validating password\r\n    password_messages.push(\"Username or Password for admin is wrong\");\r\n    password_messages.push(\"Username or Password for executor is wrong\");\r\n\r\n    no_error = \"NA\";\r\n  }\r\n\r\n\r\n  /**\r\n    CANDIDATE FUNCTIONS\r\n  */\r\n  // adding the new political participant\r\n  function addCandidate(string memory _partyName, string memory _partyDescription, string memory _leads) public {\r\n    candidateCount++;\r\n    candidates[candidateCount] = Candidate(candidateCount, _partyName, _partyDescription, _leads, 0);\r\n  }\r\n\r\n  // for editing/updating the candidate data\r\n  // type == \"name\" -> political party name\r\n  // type == \"desc\" -> political party description\r\n  // type == \"leader\" -> political party leaders\r\n  function editCandidate(uint _id, string memory _type, string memory _data) public {\r\n    if (candidates[_id].id == 0)\r\n      return;\r\n\r\n    if (keccak256(bytes(_type)) == keccak256(bytes(\"name\")))\r\n      candidates[_id].politicalPartyName = _data;\r\n\r\n    else if (keccak256(bytes(_type)) == keccak256(bytes(\"desc\")))\r\n      candidates[_id].politicalPartyDescription = _data;\r\n\r\n    else if (keccak256(bytes(_type)) == keccak256(bytes(\"leader\")))\r\n      candidates[_id].leaders = _data;\r\n  }\r\n\r\n  function deleteCandidate(uint _id) public {\r\n    candidateCount--;\r\n    delete candidates[_id];\r\n  }\r\n\r\n  // to check whether the candidate id is present in the blockchain\r\n  function validate_candidate_id(uint _id) public view returns (bool) {\r\n    if (candidates[_id].id == 0)\r\n      return false;\r\n\r\n    return true;\r\n  }\r\n\r\n\r\n  /**\r\n    EXECUTOR FUNCTIONS\r\n  */\r\n  // adding a new executor\r\n  function addExecutor(string memory _username, string memory _password, uint _role) public {\r\n    if (executors[_username].role != 0)\r\n      return;\r\n\r\n    if (_role <= 0 || _role >= 3)\r\n      return;\r\n\r\n    executor_names.push(_username);\r\n    executors[_username] = Executor(_username, _password, _role);\r\n  }\r\n\r\n  // editing the executor data\r\n  function editExecutorRole(string memory _name, uint _role) public {\r\n    if (executors[_name].role == 0)\r\n      return;\r\n\r\n    if (_role <= 0 || _role >= 3)\r\n      return;\r\n\r\n    executors[_name].role = _role;\r\n  }\r\n\r\n  function deleteExecutor(string memory _name) public {\r\n    if (executors[_name].role == 0)\r\n      return;\r\n\r\n    uint index = get_executor_index(_name);\r\n\r\n    if (index >= executor_names.length)\r\n      return;\r\n\r\n    executor_names[index] = executor_names[executor_names.length - 1];\r\n    executor_names.pop();\r\n    delete executors[_name];\r\n  }\r\n\r\n  // function for validating the executor data before adding or editing\r\n  function validate_executor_data(uint _type, string memory _username, uint _role) public view returns (string memory) {\r\n    // adding new executor\r\n    if (_type == 1) {\r\n      if (executors[_username].role != 0)\r\n        return executor_messages[0];\r\n\r\n      if (_role <= 0 || _role >= 3)\r\n        return executor_messages[1];\r\n    }\r\n\r\n    // editing existing executor\r\n    else if (_type == 2) {\r\n      if (executors[_username].role == 0)\r\n        return executor_messages[2];\r\n\r\n      if (_role <= 0 || _role >= 3)\r\n        return executor_messages[1];\r\n    }\r\n\r\n    return no_error;\r\n  }\r\n\r\n  // to get the total number of executors added by the admininstrator\r\n  function executorArrayLength() public view returns(uint count) {\r\n    return executor_names.length;\r\n  }\r\n\r\n  function get_executor_index(string memory _name) private view returns (uint) {\r\n    for (uint i = 0 ; i < executor_names.length; i++) {\r\n      if (keccak256(bytes(_name)) == keccak256(bytes(executor_names[i])))\r\n        return i;\r\n    }\r\n\r\n    return executor_names.length + 1;\r\n  }\r\n\r\n\r\n  /**\r\n    VOTING LOGIC\r\n  */\r\n  // this is the main function for the application\r\n  // this will handle the vote logic of the appliation\r\n  // voter id number and the candidate id is required as arguments to this function\r\n  function vote(string memory _voterId, uint _candidateID, uint _currentTimestamp) public {\r\n    // check whether the election time has been set or not\r\n    if (startTimestamp == 0 || endTimestamp == 0) {\r\n      return;\r\n    }\r\n\r\n    // check whether the vote within the time frame of the elections\r\n    if (_currentTimestamp < startTimestamp || _currentTimestamp > endTimestamp) {\r\n      return;\r\n    }\r\n\r\n    // check for the voter id in the voter_ids mapping\r\n    if (voter_ids[_voterId] == true) {\r\n      return;\r\n    }\r\n\r\n    // check for the device address in the voter_address mapping\r\n    if (voter_addresses[msg.sender] == true) {\r\n      return;\r\n    }\r\n\r\n    // change the data\r\n    voter_ids[_voterId] = true;\r\n    voter_addresses[msg.sender] = true;\r\n    totalVotes++;\r\n    candidates[_candidateID].voteCount++;\r\n  }\r\n\r\n  function validate_system_and_id(string memory _voterId) public view returns (uint) {\r\n    if (voter_ids[_voterId] == true) {\r\n      return 1;\r\n    }\r\n\r\n    if (voter_addresses[msg.sender] == true) {\r\n      return 2;\r\n    }\r\n\r\n    return 0;\r\n  }\r\n\r\n\r\n  /**\r\n    MISCELLANEOUS FUNCTIONS\r\n  */\r\n  // add the current timestamp and check that the start timestamp is valid\r\n  function changeStartDate(uint256 _timestamp) public {\r\n    startTimestamp = _timestamp;\r\n  }\r\n\r\n  // add the current timestamp and check the end timestamp is valid\r\n  function changeEndDate(uint256 _timestamp) public {\r\n    endTimestamp = _timestamp;\r\n  }\r\n\r\n  // verifying the username and password for the administrator or the executors\r\n  function verifyPassword(string memory _username, string memory _password, uint _type) public view returns (string memory) {\r\n    // for admin\r\n    if (_type == 1) {\r\n      if (\r\n        keccak256(bytes(_username)) == keccak256(bytes(adminUsername)) &&\r\n        keccak256(bytes(_password)) == keccak256(bytes(adminPassword))\r\n      )\r\n        return no_error;\r\n\r\n      return password_messages[0];\r\n    }\r\n\r\n    // for executor\r\n    else if (_type == 2) {\r\n      if (executors[_username].role == 0)\r\n        return executor_messages[2];\r\n\r\n      if (keccak256(bytes(_password)) == keccak256(bytes(executors[_username].password)))\r\n        return no_error;\r\n\r\n      return password_messages[1];\r\n    }\r\n\r\n    return no_error;\r\n  }\r\n\r\n  // change password\r\n  // _type == 1 -> administrator\r\n  // _type == 2 -> executor\r\n  function changePassword(string memory _name, string memory _new_password, uint _type) public {\r\n    // for administrator\r\n    if (_type == 1) {\r\n      adminPassword = _new_password;\r\n    }\r\n\r\n    // for the executor\r\n    if (_type == 2) {\r\n      if (executors[_name].role == 0)\r\n        return;\r\n\r\n      executors[_name].password = _new_password;\r\n    }\r\n  }\r\n\r\n  // function for getting type of user for logging in\r\n  function get_user_type(string memory _username) public view returns (int) {\r\n    // for admin\r\n    if (keccak256(bytes(_username)) == keccak256(bytes(adminUsername)))\r\n      return 1;\r\n\r\n    // for executor\r\n    if (executors[_username].role != 0) {\r\n      return int(executors[_username].role + 1);\r\n    }\r\n\r\n    return -1;\r\n  }\r\n\r\n  // returns the total number of votes casted since the total_votes variable is private \r\n  function get_total_votes() public view returns (uint count) {\r\n    return totalVotes;\r\n  }\r\n\r\n  // this function will return the current timestamp\r\n  function timestamp() public view returns (uint256) {\r\n    return block.timestamp;\r\n  }\r\n}",
  "compiler": {
    "name": "solc",
    "version": "0.5.16+commit.9c3226ce.Emscripten.clang"
  },
  "schemaVersion": "3.4.4",
  "updatedAt": "2022-04-01T17:38:34.053Z",
  "networkType": "ethereum"
}