{
  "contractName": "Election",
  "abi": [
    {
      "inputs": [],
      "payable": false,
      "stateMutability": "nonpayable",
      "type": "constructor"
    },
    {
      "constant": true,
      "inputs": [],
      "name": "candidateCount",
      "outputs": [
        {
          "internalType": "uint256",
          "name": "",
          "type": "uint256"
        }
      ],
      "payable": false,
      "stateMutability": "view",
      "type": "function"
    },
    {
      "constant": true,
      "inputs": [
        {
          "internalType": "uint256",
          "name": "",
          "type": "uint256"
        }
      ],
      "name": "candidates",
      "outputs": [
        {
          "internalType": "uint256",
          "name": "id",
          "type": "uint256"
        },
        {
          "internalType": "string",
          "name": "politicalPartyName",
          "type": "string"
        },
        {
          "internalType": "string",
          "name": "politicalPartyDescription",
          "type": "string"
        },
        {
          "internalType": "string",
          "name": "leaders",
          "type": "string"
        },
        {
          "internalType": "uint256",
          "name": "voteCount",
          "type": "uint256"
        }
      ],
      "payable": false,
      "stateMutability": "view",
      "type": "function"
    },
    {
      "constant": true,
      "inputs": [],
      "name": "endTimestamp",
      "outputs": [
        {
          "internalType": "uint256",
          "name": "",
          "type": "uint256"
        }
      ],
      "payable": false,
      "stateMutability": "view",
      "type": "function"
    },
    {
      "constant": true,
      "inputs": [],
      "name": "startTimestamp",
      "outputs": [
        {
          "internalType": "uint256",
          "name": "",
          "type": "uint256"
        }
      ],
      "payable": false,
      "stateMutability": "view",
      "type": "function"
    },
    {
      "constant": true,
      "inputs": [],
      "name": "totalVotes",
      "outputs": [
        {
          "internalType": "uint256",
          "name": "",
          "type": "uint256"
        }
      ],
      "payable": false,
      "stateMutability": "view",
      "type": "function"
    },
    {
      "constant": true,
      "inputs": [
        {
          "internalType": "string",
          "name": "",
          "type": "string"
        }
      ],
      "name": "voters",
      "outputs": [
        {
          "internalType": "bool",
          "name": "",
          "type": "bool"
        }
      ],
      "payable": false,
      "stateMutability": "view",
      "type": "function"
    },
    {
      "constant": false,
      "inputs": [
        {
          "internalType": "string",
          "name": "_partyName",
          "type": "string"
        },
        {
          "internalType": "string",
          "name": "_partyDescription",
          "type": "string"
        },
        {
          "internalType": "string",
          "name": "_leads",
          "type": "string"
        }
      ],
      "name": "addCandidate",
      "outputs": [
        {
          "internalType": "bool",
          "name": "",
          "type": "bool"
        }
      ],
      "payable": false,
      "stateMutability": "nonpayable",
      "type": "function"
    },
    {
      "constant": false,
      "inputs": [
        {
          "internalType": "string",
          "name": "_voterId",
          "type": "string"
        },
        {
          "internalType": "uint256",
          "name": "_candidateID",
          "type": "uint256"
        },
        {
          "internalType": "uint256",
          "name": "_currentTimestamp",
          "type": "uint256"
        }
      ],
      "name": "vote",
      "outputs": [
        {
          "internalType": "bool",
          "name": "",
          "type": "bool"
        }
      ],
      "payable": false,
      "stateMutability": "nonpayable",
      "type": "function"
    },
    {
      "constant": true,
      "inputs": [
        {
          "internalType": "string",
          "name": "_username",
          "type": "string"
        },
        {
          "internalType": "string",
          "name": "_password",
          "type": "string"
        }
      ],
      "name": "verifyPassword",
      "outputs": [
        {
          "internalType": "bool",
          "name": "",
          "type": "bool"
        }
      ],
      "payable": false,
      "stateMutability": "view",
      "type": "function"
    },
    {
      "constant": false,
      "inputs": [
        {
          "internalType": "uint256",
          "name": "_timestamp",
          "type": "uint256"
        }
      ],
      "name": "changeStartDate",
      "outputs": [],
      "payable": false,
      "stateMutability": "nonpayable",
      "type": "function"
    },
    {
      "constant": false,
      "inputs": [
        {
          "internalType": "uint256",
          "name": "_timestamp",
          "type": "uint256"
        }
      ],
      "name": "changeEndDate",
      "outputs": [],
      "payable": false,
      "stateMutability": "nonpayable",
      "type": "function"
    },
    {
      "constant": false,
      "inputs": [
        {
          "internalType": "string",
          "name": "_name",
          "type": "string"
        },
        {
          "internalType": "string",
          "name": "_new_password",
          "type": "string"
        },
        {
          "internalType": "uint256",
          "name": "_type",
          "type": "uint256"
        }
      ],
      "name": "changePassword",
      "outputs": [
        {
          "internalType": "bool",
          "name": "",
          "type": "bool"
        }
      ],
      "payable": false,
      "stateMutability": "nonpayable",
      "type": "function"
    },
    {
      "constant": false,
      "inputs": [],
      "name": "sample",
      "outputs": [
        {
          "internalType": "uint256",
          "name": "",
          "type": "uint256"
        }
      ],
      "payable": false,
      "stateMutability": "nonpayable",
      "type": "function"
    }
  ],
  "bytecode": "0x60806040523480156200001157600080fd5b506040518060400160405280600581526020017f41646d696e000000000000000000000000000000000000000000000000000000815250600290805190602001906200005f9291906200035a565b506040518060400160405280600a81526020017f313233343536373839300000000000000000000000000000000000000000000081525060039080519060200190620000ad9291906200035a565b5060006006819055506000600781905550620001546040518060400160405280600381526020017f41415000000000000000000000000000000000000000000000000000000000008152506040518060600160405280602c8152602001620015bf602c91396040518060400160405280601781526020017f417276696e64204b656a726977616c0a4c6561646572310000000000000000008152506200028960201b60201c565b50620002076040518060400160405280600381526020017f424a5000000000000000000000000000000000000000000000000000000000008152506040518060400160405280601881526020017f4163636868652064696e2061616e652077616c652068616900000000000000008152506040518060400160405280601981526020017f504d204e6172656e647261204d6f64690a416d697420536861000000000000008152506200028960201b60201c565b50620002826040518060400160405280600881526020017f436f6e6772657373000000000000000000000000000000000000000000000000815250604051806060016040528060298152602001620015eb6029913960405180606001604052806029815260200162001614602991396200028960201b60201c565b5062000490565b60006001600081548092919060010191905055506040518060a0016040528060015481526020018581526020018481526020018381526020016000815250600080600154815260200190815260200160002060008201518160000155602082015181600101908051906020019062000303929190620003e1565b50604082015181600201908051906020019062000322929190620003e1565b50606082015181600301908051906020019062000341929190620003e1565b5060808201518160040155905050600190509392505050565b828054600181600116156101000203166002900490600052602060002090601f016020900481019282601f106200039d57805160ff1916838001178555620003ce565b82800160010185558215620003ce579182015b82811115620003cd578251825591602001919060010190620003b0565b5b509050620003dd919062000468565b5090565b828054600181600116156101000203166002900490600052602060002090601f016020900481019282601f106200042457805160ff191683800117855562000455565b8280016001018555821562000455579182015b828111156200045457825182559160200191906001019062000437565b5b50905062000464919062000468565b5090565b6200048d91905b80821115620004895760008160009055506001016200046f565b5090565b90565b61111f80620004a06000396000f3fe608060405234801561001057600080fd5b50600436106100ce5760003560e01c806345737b1e1161008c578063a9a981a311610066578063a9a981a314610790578063ad71f8dc146107ae578063c9482a5d146109af578063e6fd48bc146109cd576100ce565b806345737b1e1461067157806353fa2e641461069f578063a85adeab14610772576100ce565b8062739f2a146100d35780630891d358146101015780630d15fd77146101e85780632fe6269f146102065780633477ee2e1461037057806342a85b29146104fd575b600080fd5b6100ff600480360360208110156100e957600080fd5b81019080803590602001909291905050506109eb565b005b6101ce6004803603606081101561011757600080fd5b810190808035906020019064010000000081111561013457600080fd5b82018360208201111561014657600080fd5b8035906020019184600183028401116401000000008311171561016857600080fd5b91908080601f016020809104026020016040519081016040528093929190818152602001838380828437600081840152601f19601f82011690508083019250505050505050919291929080359060200190929190803590602001909291905050506109f5565b604051808215151515815260200191505060405180910390f35b6101f0610adb565b6040518082815260200191505060405180910390f35b6103566004803603604081101561021c57600080fd5b810190808035906020019064010000000081111561023957600080fd5b82018360208201111561024b57600080fd5b8035906020019184600183028401116401000000008311171561026d57600080fd5b91908080601f016020809104026020016040519081016040528093929190818152602001838380828437600081840152601f19601f820116905080830192505050505050509192919290803590602001906401000000008111156102d057600080fd5b8201836020820111156102e257600080fd5b8035906020019184600183028401116401000000008311171561030457600080fd5b91908080601f016020809104026020016040519081016040528093929190818152602001838380828437600081840152601f19601f820116905080830192505050505050509192919290505050610ae1565b604051808215151515815260200191505060405180910390f35b61039c6004803603602081101561038657600080fd5b8101908080359060200190929190505050610bea565b60405180868152602001806020018060200180602001858152602001848103845288818151815260200191508051906020019080838360005b838110156103f05780820151818401526020810190506103d5565b50505050905090810190601f16801561041d5780820380516001836020036101000a031916815260200191505b50848103835287818151815260200191508051906020019080838360005b8381101561045657808201518184015260208101905061043b565b50505050905090810190601f1680156104835780820380516001836020036101000a031916815260200191505b50848103825286818151815260200191508051906020019080838360005b838110156104bc5780820151818401526020810190506104a1565b50505050905090810190601f1680156104e95780820380516001836020036101000a031916815260200191505b509850505050505050505060405180910390f35b6106576004803603606081101561051357600080fd5b810190808035906020019064010000000081111561053057600080fd5b82018360208201111561054257600080fd5b8035906020019184600183028401116401000000008311171561056457600080fd5b91908080601f016020809104026020016040519081016040528093929190818152602001838380828437600081840152601f19601f820116905080830192505050505050509192919290803590602001906401000000008111156105c757600080fd5b8201836020820111156105d957600080fd5b803590602001918460018302840111640100000000831117156105fb57600080fd5b91908080601f016020809104026020016040519081016040528093929190818152602001838380828437600081840152601f19601f82011690508083019250505050505050919291929080359060200190929190505050610de8565b604051808215151515815260200191505060405180910390f35b61069d6004803603602081101561068757600080fd5b8101908080359060200190929190505050610ea0565b005b610758600480360360208110156106b557600080fd5b81019080803590602001906401000000008111156106d257600080fd5b8201836020820111156106e457600080fd5b8035906020019184600183028401116401000000008311171561070657600080fd5b91908080601f016020809104026020016040519081016040528093929190818152602001838380828437600081840152601f19601f820116905080830192505050505050509192919290505050610eaa565b604051808215151515815260200191505060405180910390f35b61077a610ee0565b6040518082815260200191505060405180910390f35b610798610ee6565b6040518082815260200191505060405180910390f35b610995600480360360608110156107c457600080fd5b81019080803590602001906401000000008111156107e157600080fd5b8201836020820111156107f357600080fd5b8035906020019184600183028401116401000000008311171561081557600080fd5b91908080601f016020809104026020016040519081016040528093929190818152602001838380828437600081840152601f19601f8201169050808301925050505050505091929192908035906020019064010000000081111561087857600080fd5b82018360208201111561088a57600080fd5b803590602001918460018302840111640100000000831117156108ac57600080fd5b91908080601f016020809104026020016040519081016040528093929190818152602001838380828437600081840152601f19601f8201169050808301925050505050505091929192908035906020019064010000000081111561090f57600080fd5b82018360208201111561092157600080fd5b8035906020019184600183028401116401000000008311171561094357600080fd5b91908080601f016020809104026020016040519081016040528093929190818152602001838380828437600081840152601f19601f820116905080830192505050505050509192919290505050610eec565b604051808215151515815260200191505060405180910390f35b6109b7610fb7565b6040518082815260200191505060405180910390f35b6109d5610fbf565b6040518082815260200191505060405180910390f35b8060068190555050565b6000600654821080610a08575060075482115b15610a165760009050610ad4565b60016004856040518082805190602001908083835b60208310610a4e5780518252602082019150602081019050602083039250610a2b565b6001836020036101000a038019825116818451168082178552505050505050905001915050908152602001604051809103902060006101000a81548160ff02191690831515021790555060056000815480929190600101919050555060008084815260200190815260200160002060040160008154809291906001019190505550600190505b9392505050565b60055481565b600060026040518082805460018160011615610100020316600290048015610b405780601f10610b1e576101008083540402835291820191610b40565b820191906000526020600020905b815481529060010190602001808311610b2c575b505091505060405180910390208380519060200120148015610bd1575060036040518082805460018160011615610100020316600290048015610bba5780601f10610b98576101008083540402835291820191610bba565b820191906000526020600020905b815481529060010190602001808311610ba6575b505091505060405180910390208280519060200120145b15610bdf5760019050610be4565b600090505b92915050565b6000602052806000526040600020600091509050806000015490806001018054600181600116156101000203166002900480601f016020809104026020016040519081016040528092919081815260200182805460018160011615610100020316600290048015610c9c5780601f10610c7157610100808354040283529160200191610c9c565b820191906000526020600020905b815481529060010190602001808311610c7f57829003601f168201915b505050505090806002018054600181600116156101000203166002900480601f016020809104026020016040519081016040528092919081815260200182805460018160011615610100020316600290048015610d3a5780601f10610d0f57610100808354040283529160200191610d3a565b820191906000526020600020905b815481529060010190602001808311610d1d57829003601f168201915b505050505090806003018054600181600116156101000203166002900480601f016020809104026020016040519081016040528092919081815260200182805460018160011615610100020316600290048015610dd85780601f10610dad57610100808354040283529160200191610dd8565b820191906000526020600020905b815481529060010190602001808311610dbb57829003601f168201915b5050505050908060040154905085565b60006001821415610e945760026040518082805460018160011615610100020316600290048015610e505780601f10610e2e576101008083540402835291820191610e50565b820191906000526020600020905b815481529060010190602001808311610e3c575b5050915050604051809103902084805190602001201415610e8b578260039080519060200190610e81929190610fc5565b5060019050610e99565b60009050610e99565b600090505b9392505050565b8060078190555050565b6004818051602081018201805184825260208301602085012081835280955050505050506000915054906101000a900460ff1681565b60075481565b60015481565b60006001600081548092919060010191905055506040518060a00160405280600154815260200185815260200184815260200183815260200160008152506000806001548152602001908152602001600020600082015181600001556020820151816001019080519060200190610f64929190611045565b506040820151816002019080519060200190610f81929190611045565b506060820151816003019080519060200190610f9e929190611045565b5060808201518160040155905050600190509392505050565b600042905090565b60065481565b828054600181600116156101000203166002900490600052602060002090601f016020900481019282601f1061100657805160ff1916838001178555611034565b82800160010185558215611034579182015b82811115611033578251825591602001919060010190611018565b5b50905061104191906110c5565b5090565b828054600181600116156101000203166002900490600052602060002090601f016020900481019282601f1061108657805160ff19168380011785556110b4565b828001600101855582156110b4579182015b828111156110b3578251825591602001919060010190611098565b5b5090506110c191906110c5565b5090565b6110e791905b808211156110e35760008160009055506001016110cb565b5090565b9056fea265627a7a723158205d65473c56e6f786287d73a05837d951c2f7665bdd657a19649342cad4f0489c64736f6c63430005100032416363686865206265657465207061616e6368207361616c2c206c616765207261686f204b656a726977616c436f6e67726573732068616e6420696e2068616e6420776974682074686520636f6d6d6f6e206d616e526168756c2047616e6468690a4d616e204d6f68616e2053696e67680a536f6e69612047616e646869",
  "source": "pragma solidity ^0.5.16;\r\n\r\ncontract Election {\r\n  struct Candidate {\r\n    uint id;\r\n    string politicalPartyName;\r\n    string politicalPartyDescription;\r\n    string leaders;\r\n    uint voteCount;\r\n  }\r\n\r\n  // fetch the candidate\r\n  mapping(uint => Candidate) public candidates;\r\n  uint public candidateCount;\r\n\r\n  // election admininstrator\r\n  string private adminUsername;\r\n  string private adminPassword;\r\n\r\n  // store the mapping of voter id number who has already voted\r\n  mapping(string => bool) public voters;\r\n  uint public totalVotes;\r\n\r\n  // to keep track of the starting and ending time of the election\r\n  // it will be initialized to zero meaning the elections time has not been set\r\n  uint public startTimestamp;\r\n  uint public endTimestamp;\r\n\r\n  constructor() public {\r\n    // default election administrator credentials\r\n    adminUsername = \"Admin\";\r\n    adminPassword = \"1234567890\";\r\n\r\n    startTimestamp = 0;\r\n    endTimestamp = 0;\r\n\r\n    addCandidate(\"AAP\", \"Acchhe beete paanch saal, lage raho Kejriwal\", \"Arvind Kejriwal\\nLeader1\");\r\n    addCandidate(\"BJP\", \"Acchhe din aane wale hai\", \"PM Narendra Modi\\nAmit Sha\");\r\n    addCandidate(\"Congress\", \"Congress hand in hand with the common man\", \"Rahul Gandhi\\nMan Mohan Singh\\nSonia Gandhi\");\r\n  }\r\n\r\n  // this function will return the current timestamp\r\n  function timestamp() private view returns (uint) {\r\n    return block.timestamp;\r\n  }\r\n\r\n  // adding the new political participant\r\n  function addCandidate(string memory _partyName, string memory _partyDescription, string memory _leads) public returns (bool) {\r\n    candidateCount++;\r\n    candidates[candidateCount] = Candidate(candidateCount, _partyName, _partyDescription, _leads, 0);\r\n    return true;\r\n  }\r\n\r\n  // this is the main function for the application\r\n  // this will handle the vote logic of the appliation\r\n  // voter id number and the candidate id is required as arguments to this function\r\n  function vote(string memory _voterId, uint _candidateID, uint _currentTimestamp) public returns (bool) {\r\n    if (_currentTimestamp < startTimestamp || _currentTimestamp > endTimestamp)\r\n      return false;\r\n\r\n    voters[_voterId] = true;\r\n    totalVotes++;\r\n    candidates[_candidateID].voteCount++;\r\n    return true;\r\n  }\r\n\r\n  // verifying the username and password for the administrator or the executors\r\n  function verifyPassword(string memory _username, string memory _password) public view returns (bool) {\r\n    if (\r\n      keccak256(bytes(_username)) == keccak256(bytes(adminUsername)) &&\r\n      keccak256(bytes(_password)) == keccak256(bytes(adminPassword))\r\n    )\r\n      return true;\r\n\r\n    return false;\r\n  }\r\n\r\n  // add the current timestamp and check that the start timestamp is valid\r\n  function changeStartDate(uint _timestamp) public {\r\n    startTimestamp = _timestamp;\r\n  }\r\n\r\n  // add the current timestamp and check the end timestamp is valid\r\n  function changeEndDate(uint _timestamp) public {\r\n    endTimestamp = _timestamp;\r\n  }\r\n\r\n  // change password\r\n  function changePassword(string memory _name, string memory _new_password, uint _type) public returns (bool) {\r\n    // for administrator\r\n    if (_type == 1) {\r\n      if (keccak256(bytes(_name)) == keccak256(bytes(adminUsername))) {\r\n        adminPassword = _new_password;\r\n        return true;\r\n      }\r\n      return false;\r\n    }\r\n\r\n    // for the executor\r\n    return false;\r\n  }\r\n\r\n  function sample() public returns (uint) {\r\n    return block.timestamp;\r\n  }\r\n}",
  "sourcePath": "E:\\files\\FYP\\test\\smart_contract\\contracts\\Election.sol",
  "compiler": {
    "name": "solc",
    "version": "0.5.16+commit.9c3226ce.Emscripten.clang"
  },
  "schemaVersion": "3.4.4",
  "updatedAt": "2022-03-21T18:32:21.838Z",
  "networkType": "ethereum",
  "devdoc": {
    "methods": {}
  },
  "userdoc": {
    "methods": {}
  }
}